{
  "_format": "hh-sol-artifact-1",
  "contractName": "NFTMarketplace",
  "sourceName": "contracts/NFTMarketplace.sol",
  "abi": [
    {
      "inputs": [],
      "stateMutability": "nonpayable",
      "type": "constructor"
    },
    {
      "anonymous": false,
      "inputs": [
        {
          "indexed": true,
          "internalType": "address",
          "name": "owner",
          "type": "address"
        },
        {
          "indexed": true,
          "internalType": "address",
          "name": "approved",
          "type": "address"
        },
        {
          "indexed": true,
          "internalType": "uint256",
          "name": "tokenId",
          "type": "uint256"
        }
      ],
      "name": "Approval",
      "type": "event"
    },
    {
      "anonymous": false,
      "inputs": [
        {
          "indexed": true,
          "internalType": "address",
          "name": "owner",
          "type": "address"
        },
        {
          "indexed": true,
          "internalType": "address",
          "name": "operator",
          "type": "address"
        },
        {
          "indexed": false,
          "internalType": "bool",
          "name": "approved",
          "type": "bool"
        }
      ],
      "name": "ApprovalForAll",
      "type": "event"
    },
    {
      "anonymous": false,
      "inputs": [
        {
          "indexed": true,
          "internalType": "uint256",
          "name": "contractId",
          "type": "uint256"
        },
        {
          "indexed": true,
          "internalType": "address",
          "name": "sender",
          "type": "address"
        },
        {
          "indexed": true,
          "internalType": "address",
          "name": "receiver",
          "type": "address"
        },
        {
          "indexed": false,
          "internalType": "uint256",
          "name": "tokenId",
          "type": "uint256"
        },
        {
          "indexed": false,
          "internalType": "uint256",
          "name": "requestedid",
          "type": "uint256"
        }
      ],
      "name": "HTLCERC721New",
      "type": "event"
    },
    {
      "anonymous": false,
      "inputs": [
        {
          "indexed": true,
          "internalType": "uint256",
          "name": "contractId",
          "type": "uint256"
        }
      ],
      "name": "HTLCERC721Refund",
      "type": "event"
    },
    {
      "anonymous": false,
      "inputs": [
        {
          "indexed": true,
          "internalType": "uint256",
          "name": "contractId",
          "type": "uint256"
        }
      ],
      "name": "HTLCERC721Withdraw",
      "type": "event"
    },
    {
      "anonymous": false,
      "inputs": [
        {
          "indexed": true,
          "internalType": "uint256",
          "name": "tokenId",
          "type": "uint256"
        },
        {
          "indexed": false,
          "internalType": "address",
          "name": "seller",
          "type": "address"
        },
        {
          "indexed": false,
          "internalType": "address",
          "name": "owner",
          "type": "address"
        },
        {
          "indexed": false,
          "internalType": "uint256",
          "name": "price",
          "type": "uint256"
        },
        {
          "indexed": false,
          "internalType": "bool",
          "name": "sold",
          "type": "bool"
        },
        {
          "indexed": false,
          "internalType": "bool",
          "name": "isSwap",
          "type": "bool"
        }
      ],
      "name": "MarketItemCreated",
      "type": "event"
    },
    {
      "anonymous": false,
      "inputs": [
        {
          "indexed": true,
          "internalType": "address",
          "name": "from",
          "type": "address"
        },
        {
          "indexed": true,
          "internalType": "address",
          "name": "to",
          "type": "address"
        },
        {
          "indexed": true,
          "internalType": "uint256",
          "name": "tokenId",
          "type": "uint256"
        }
      ],
      "name": "Transfer",
      "type": "event"
    },
    {
      "inputs": [],
      "name": "MyTradesReceiver",
      "outputs": [
        {
          "components": [
            {
              "internalType": "address",
              "name": "sender",
              "type": "address"
            },
            {
              "internalType": "address",
              "name": "receiver",
              "type": "address"
            },
            {
              "internalType": "uint256",
              "name": "tokenId",
              "type": "uint256"
            },
            {
              "internalType": "uint256",
              "name": "requestedid",
              "type": "uint256"
            },
            {
              "internalType": "bool",
              "name": "withdrawn",
              "type": "bool"
            },
            {
              "internalType": "bool",
              "name": "refunded",
              "type": "bool"
            }
          ],
          "internalType": "struct NFTMarketplace.LockContract[]",
          "name": "",
          "type": "tuple[]"
        }
      ],
      "stateMutability": "view",
      "type": "function"
    },
    {
      "inputs": [],
      "name": "MyTradesSender",
      "outputs": [
        {
          "components": [
            {
              "internalType": "address",
              "name": "sender",
              "type": "address"
            },
            {
              "internalType": "address",
              "name": "receiver",
              "type": "address"
            },
            {
              "internalType": "uint256",
              "name": "tokenId",
              "type": "uint256"
            },
            {
              "internalType": "uint256",
              "name": "requestedid",
              "type": "uint256"
            },
            {
              "internalType": "bool",
              "name": "withdrawn",
              "type": "bool"
            },
            {
              "internalType": "bool",
              "name": "refunded",
              "type": "bool"
            }
          ],
          "internalType": "struct NFTMarketplace.LockContract[]",
          "name": "",
          "type": "tuple[]"
        }
      ],
      "stateMutability": "view",
      "type": "function"
    },
    {
      "inputs": [
        {
          "internalType": "uint256",
          "name": "_Amount",
          "type": "uint256"
        }
      ],
      "name": "SetverificationFees",
      "outputs": [],
      "stateMutability": "nonpayable",
      "type": "function"
    },
    {
      "inputs": [
        {
          "internalType": "address",
          "name": "_collectibleAddress",
          "type": "address"
        }
      ],
      "name": "SubmitContract",
      "outputs": [],
      "stateMutability": "payable",
      "type": "function"
    },
    {
      "inputs": [],
      "name": "_itemsSold",
      "outputs": [
        {
          "internalType": "uint256",
          "name": "_value",
          "type": "uint256"
        }
      ],
      "stateMutability": "view",
      "type": "function"
    },
    {
      "inputs": [],
      "name": "_tokenIds",
      "outputs": [
        {
          "internalType": "uint256",
          "name": "_value",
          "type": "uint256"
        }
      ],
      "stateMutability": "view",
      "type": "function"
    },
    {
      "inputs": [
        {
          "internalType": "address",
          "name": "to",
          "type": "address"
        },
        {
          "internalType": "uint256",
          "name": "tokenId",
          "type": "uint256"
        }
      ],
      "name": "approve",
      "outputs": [],
      "stateMutability": "nonpayable",
      "type": "function"
    },
    {
      "inputs": [
        {
          "internalType": "address",
          "name": "owner",
          "type": "address"
        }
      ],
      "name": "balanceOf",
      "outputs": [
        {
          "internalType": "uint256",
          "name": "",
          "type": "uint256"
        }
      ],
      "stateMutability": "view",
      "type": "function"
    },
    {
      "inputs": [
        {
          "internalType": "uint256",
          "name": "",
          "type": "uint256"
        }
      ],
      "name": "contracts",
      "outputs": [
        {
          "internalType": "address",
          "name": "sender",
          "type": "address"
        },
        {
          "internalType": "address",
          "name": "receiver",
          "type": "address"
        },
        {
          "internalType": "uint256",
          "name": "tokenId",
          "type": "uint256"
        },
        {
          "internalType": "uint256",
          "name": "requestedid",
          "type": "uint256"
        },
        {
          "internalType": "bool",
          "name": "withdrawn",
          "type": "bool"
        },
        {
          "internalType": "bool",
          "name": "refunded",
          "type": "bool"
        }
      ],
      "stateMutability": "view",
      "type": "function"
    },
    {
      "inputs": [
        {
          "internalType": "uint256",
          "name": "tokenId",
          "type": "uint256"
        }
      ],
      "name": "createMarketSale",
      "outputs": [],
      "stateMutability": "payable",
      "type": "function"
    },
    {
      "inputs": [
        {
          "internalType": "string",
          "name": "tokenURI",
          "type": "string"
        },
        {
          "internalType": "uint256",
          "name": "price",
          "type": "uint256"
        }
      ],
      "name": "createToken",
      "outputs": [
        {
          "internalType": "uint256",
          "name": "",
          "type": "uint256"
        }
      ],
      "stateMutability": "payable",
      "type": "function"
    },
    {
      "inputs": [],
      "name": "fetchItemsListed",
      "outputs": [
        {
          "components": [
            {
              "internalType": "uint256",
              "name": "tokenId",
              "type": "uint256"
            },
            {
              "internalType": "address payable",
              "name": "seller",
              "type": "address"
            },
            {
              "internalType": "address payable",
              "name": "owner",
              "type": "address"
            },
            {
              "internalType": "uint256",
              "name": "price",
              "type": "uint256"
            },
            {
              "internalType": "bool",
              "name": "sold",
              "type": "bool"
            },
            {
              "internalType": "bool",
              "name": "isSwap",
              "type": "bool"
            }
          ],
          "internalType": "struct NFTMarketplace.MarketItem[]",
          "name": "",
          "type": "tuple[]"
        }
      ],
      "stateMutability": "view",
      "type": "function"
    },
    {
      "inputs": [],
      "name": "fetchMarketItems",
      "outputs": [
        {
          "components": [
            {
              "internalType": "uint256",
              "name": "tokenId",
              "type": "uint256"
            },
            {
              "internalType": "address payable",
              "name": "seller",
              "type": "address"
            },
            {
              "internalType": "address payable",
              "name": "owner",
              "type": "address"
            },
            {
              "internalType": "uint256",
              "name": "price",
              "type": "uint256"
            },
            {
              "internalType": "bool",
              "name": "sold",
              "type": "bool"
            },
            {
              "internalType": "bool",
              "name": "isSwap",
              "type": "bool"
            }
          ],
          "internalType": "struct NFTMarketplace.MarketItem[]",
          "name": "",
          "type": "tuple[]"
        }
      ],
      "stateMutability": "view",
      "type": "function"
    },
    {
      "inputs": [],
      "name": "fetchMyNFTs",
      "outputs": [
        {
          "components": [
            {
              "internalType": "uint256",
              "name": "tokenId",
              "type": "uint256"
            },
            {
              "internalType": "address payable",
              "name": "seller",
              "type": "address"
            },
            {
              "internalType": "address payable",
              "name": "owner",
              "type": "address"
            },
            {
              "internalType": "uint256",
              "name": "price",
              "type": "uint256"
            },
            {
              "internalType": "bool",
              "name": "sold",
              "type": "bool"
            },
            {
              "internalType": "bool",
              "name": "isSwap",
              "type": "bool"
            }
          ],
          "internalType": "struct NFTMarketplace.MarketItem[]",
          "name": "",
          "type": "tuple[]"
        }
      ],
      "stateMutability": "view",
      "type": "function"
    },
    {
      "inputs": [
        {
          "internalType": "uint256",
          "name": "tokenId",
          "type": "uint256"
        }
      ],
      "name": "getApproved",
      "outputs": [
        {
          "internalType": "address",
          "name": "",
          "type": "address"
        }
      ],
      "stateMutability": "view",
      "type": "function"
    },
    {
      "inputs": [],
      "name": "getListingPrice",
      "outputs": [
        {
          "internalType": "uint256",
          "name": "",
          "type": "uint256"
        }
      ],
      "stateMutability": "view",
      "type": "function"
    },
    {
      "inputs": [
        {
          "internalType": "uint256",
          "name": "",
          "type": "uint256"
        }
      ],
      "name": "idToMarketItem",
      "outputs": [
        {
          "internalType": "uint256",
          "name": "tokenId",
          "type": "uint256"
        },
        {
          "internalType": "address payable",
          "name": "seller",
          "type": "address"
        },
        {
          "internalType": "address payable",
          "name": "owner",
          "type": "address"
        },
        {
          "internalType": "uint256",
          "name": "price",
          "type": "uint256"
        },
        {
          "internalType": "bool",
          "name": "sold",
          "type": "bool"
        },
        {
          "internalType": "bool",
          "name": "isSwap",
          "type": "bool"
        }
      ],
      "stateMutability": "view",
      "type": "function"
    },
    {
      "inputs": [
        {
          "internalType": "address",
          "name": "owner",
          "type": "address"
        },
        {
          "internalType": "address",
          "name": "operator",
          "type": "address"
        }
      ],
      "name": "isApprovedForAll",
      "outputs": [
        {
          "internalType": "bool",
          "name": "",
          "type": "bool"
        }
      ],
      "stateMutability": "view",
      "type": "function"
    },
    {
      "inputs": [],
      "name": "name",
      "outputs": [
        {
          "internalType": "string",
          "name": "",
          "type": "string"
        }
      ],
      "stateMutability": "view",
      "type": "function"
    },
    {
      "inputs": [
        {
          "internalType": "address",
          "name": "_receiver",
          "type": "address"
        },
        {
          "internalType": "uint256",
          "name": "_tokenId",
          "type": "uint256"
        },
        {
          "internalType": "uint256",
          "name": "_requestedid",
          "type": "uint256"
        }
      ],
      "name": "newContract",
      "outputs": [
        {
          "internalType": "uint256",
          "name": "_contractId",
          "type": "uint256"
        }
      ],
      "stateMutability": "payable",
      "type": "function"
    },
    {
      "inputs": [
        {
          "internalType": "uint256",
          "name": "tokenId",
          "type": "uint256"
        }
      ],
      "name": "ownerOf",
      "outputs": [
        {
          "internalType": "address",
          "name": "",
          "type": "address"
        }
      ],
      "stateMutability": "view",
      "type": "function"
    },
    {
      "inputs": [
        {
          "internalType": "uint256",
          "name": "_contractId",
          "type": "uint256"
        }
      ],
      "name": "refund",
      "outputs": [
        {
          "internalType": "bool",
          "name": "",
          "type": "bool"
        }
      ],
      "stateMutability": "nonpayable",
      "type": "function"
    },
    {
      "inputs": [
        {
          "internalType": "uint256",
          "name": "_tokenId",
          "type": "uint256"
        },
        {
          "internalType": "uint256",
          "name": "_requestedid",
          "type": "uint256"
        }
      ],
      "name": "refund2",
      "outputs": [
        {
          "internalType": "bool",
          "name": "",
          "type": "bool"
        }
      ],
      "stateMutability": "nonpayable",
      "type": "function"
    },
    {
      "inputs": [
        {
          "internalType": "uint256",
          "name": "tokenId",
          "type": "uint256"
        },
        {
          "internalType": "uint256",
          "name": "price",
          "type": "uint256"
        }
      ],
      "name": "resellToken",
      "outputs": [],
      "stateMutability": "payable",
      "type": "function"
    },
    {
      "inputs": [
        {
          "internalType": "address",
          "name": "from",
          "type": "address"
        },
        {
          "internalType": "address",
          "name": "to",
          "type": "address"
        },
        {
          "internalType": "uint256",
          "name": "tokenId",
          "type": "uint256"
        }
      ],
      "name": "safeTransferFrom",
      "outputs": [],
      "stateMutability": "nonpayable",
      "type": "function"
    },
    {
      "inputs": [
        {
          "internalType": "address",
          "name": "from",
          "type": "address"
        },
        {
          "internalType": "address",
          "name": "to",
          "type": "address"
        },
        {
          "internalType": "uint256",
          "name": "tokenId",
          "type": "uint256"
        },
        {
          "internalType": "bytes",
          "name": "data",
          "type": "bytes"
        }
      ],
      "name": "safeTransferFrom",
      "outputs": [],
      "stateMutability": "nonpayable",
      "type": "function"
    },
    {
      "inputs": [
        {
          "internalType": "address",
          "name": "operator",
          "type": "address"
        },
        {
          "internalType": "bool",
          "name": "approved",
          "type": "bool"
        }
      ],
      "name": "setApprovalForAll",
      "outputs": [],
      "stateMutability": "nonpayable",
      "type": "function"
    },
    {
      "inputs": [
        {
          "internalType": "bytes4",
          "name": "interfaceId",
          "type": "bytes4"
        }
      ],
      "name": "supportsInterface",
      "outputs": [
        {
          "internalType": "bool",
          "name": "",
          "type": "bool"
        }
      ],
      "stateMutability": "view",
      "type": "function"
    },
    {
      "inputs": [
        {
          "internalType": "uint256",
          "name": "tokenId",
          "type": "uint256"
        }
      ],
      "name": "swapTokentoMarketPlace",
      "outputs": [],
      "stateMutability": "payable",
      "type": "function"
    },
    {
      "inputs": [],
      "name": "symbol",
      "outputs": [
        {
          "internalType": "string",
          "name": "",
          "type": "string"
        }
      ],
      "stateMutability": "view",
      "type": "function"
    },
    {
      "inputs": [
        {
          "internalType": "uint256",
          "name": "tokenId",
          "type": "uint256"
        }
      ],
      "name": "tokenURI",
      "outputs": [
        {
          "internalType": "string",
          "name": "",
          "type": "string"
        }
      ],
      "stateMutability": "view",
      "type": "function"
    },
    {
      "inputs": [
        {
          "internalType": "address",
          "name": "from",
          "type": "address"
        },
        {
          "internalType": "address",
          "name": "to",
          "type": "address"
        },
        {
          "internalType": "uint256",
          "name": "tokenId",
          "type": "uint256"
        }
      ],
      "name": "transferFrom",
      "outputs": [],
      "stateMutability": "nonpayable",
      "type": "function"
    },
    {
      "inputs": [
        {
          "internalType": "uint256",
          "name": "_listingPrice",
          "type": "uint256"
        }
      ],
      "name": "updateListingPrice",
      "outputs": [],
      "stateMutability": "payable",
      "type": "function"
    },
    {
      "inputs": [
        {
          "internalType": "uint256",
          "name": "_tokenId",
          "type": "uint256"
        },
        {
          "internalType": "uint256",
          "name": "_requestedid",
          "type": "uint256"
        }
      ],
      "name": "withdraw",
      "outputs": [
        {
          "internalType": "bool",
          "name": "",
          "type": "bool"
        }
      ],
      "stateMutability": "payable",
      "type": "function"
    }
  ],
  "bytecode": "0x60806040526603297345d9a0006009556000600c556602738d24e52000600e553480156200002c57600080fd5b506040518060400160405280601081526020017f4d657461766572736520546f6b656e73000000000000000000000000000000008152506040518060400160405280600481526020017f4d455454000000000000000000000000000000000000000000000000000000008152508160009081620000aa919062000380565b508060019081620000bc919062000380565b50505033600a60006101000a81548173ffffffffffffffffffffffffffffffffffffffff021916908373ffffffffffffffffffffffffffffffffffffffff16021790555062000467565b600081519050919050565b7f4e487b7100000000000000000000000000000000000000000000000000000000600052604160045260246000fd5b7f4e487b7100000000000000000000000000000000000000000000000000000000600052602260045260246000fd5b600060028204905060018216806200018857607f821691505b6020821081036200019e576200019d62000140565b5b50919050565b60008190508160005260206000209050919050565b60006020601f8301049050919050565b600082821b905092915050565b600060088302620002087fffffffffffffffffffffffffffffffffffffffffffffffffffffffffffffffff82620001c9565b620002148683620001c9565b95508019841693508086168417925050509392505050565b6000819050919050565b6000819050919050565b6000620002616200025b62000255846200022c565b62000236565b6200022c565b9050919050565b6000819050919050565b6200027d8362000240565b620002956200028c8262000268565b848454620001d6565b825550505050565b600090565b620002ac6200029d565b620002b981848462000272565b505050565b5b81811015620002e157620002d5600082620002a2565b600181019050620002bf565b5050565b601f8211156200033057620002fa81620001a4565b6200030584620001b9565b8101602085101562000315578190505b6200032d6200032485620001b9565b830182620002be565b50505b505050565b600082821c905092915050565b6000620003556000198460080262000335565b1980831691505092915050565b600062000370838362000342565b9150826002028217905092915050565b6200038b8262000106565b67ffffffffffffffff811115620003a757620003a662000111565b5b620003b382546200016f565b620003c0828285620002e5565b600060209050601f831160018114620003f85760008415620003e3578287015190505b620003ef858262000362565b8655506200045f565b601f1984166200040886620001a4565b60005b8281101562000432578489015182556001820191506020850194506020810190506200040b565b868310156200045257848901516200044e601f89168262000342565b8355505b6001600288020188555050505b505050505050565b615cfa80620004776000396000f3fe6080604052600436106101f95760003560e01c806370a082311161010d578063ae677aa3116100a0578063e219fc751161006f578063e219fc751461074a578063e3b1d3d314610766578063e61a70c01461078f578063e985e9c5146107d1578063eb707a031461080e576101f9565b8063ae677aa3146106ac578063b88d4fde146106c8578063be9af536146106f1578063c87b56dd1461070d576101f9565b806395d89b41116100dc57806395d89b4114610611578063a22cb4651461063c578063aa46a40014610665578063ac4a46e314610690576101f9565b806370a082311461054957806372b3b620146105865780637b8d4744146105b657806387506a0d146105e6576101f9565b806323b872dd11610190578063441a3e701161015f578063441a3e701461044457806345f8fa8014610474578063474da79a1461049f5780634e4b5fa1146104e15780636352211e1461050c576101f9565b806323b872dd14610378578063278ecde1146103a157806334f2603a146103de57806342842e0e1461041b576101f9565b80630f08efe0116101cc5780630f08efe0146102cc57806312e85585146102f75780631faf6f4f14610322578063202e37401461034d576101f9565b806301ffc9a7146101fe57806306fdde031461023b578063081812fc14610266578063095ea7b3146102a3575b600080fd5b34801561020a57600080fd5b50610225600480360381019061022091906140c1565b61082a565b6040516102329190614109565b60405180910390f35b34801561024757600080fd5b5061025061090c565b60405161025d91906141b4565b60405180910390f35b34801561027257600080fd5b5061028d6004803603810190610288919061420c565b61099e565b60405161029a919061427a565b60405180910390f35b3480156102af57600080fd5b506102ca60048036038101906102c591906142c1565b6109e4565b005b3480156102d857600080fd5b506102e1610afb565b6040516102ee919061446a565b60405180910390f35b34801561030357600080fd5b5061030c610db8565b604051610319919061449b565b60405180910390f35b34801561032e57600080fd5b50610337610dc2565b60405161034491906145ef565b60405180910390f35b34801561035957600080fd5b50610362611101565b60405161036f919061446a565b60405180910390f35b34801561038457600080fd5b5061039f600480360381019061039a9190614611565b611408565b005b3480156103ad57600080fd5b506103c860048036038101906103c3919061420c565b611468565b6040516103d59190614109565b60405180910390f35b3480156103ea57600080fd5b5061040560048036038101906104009190614664565b611552565b6040516104129190614109565b60405180910390f35b34801561042757600080fd5b50610442600480360381019061043d9190614611565b6116be565b005b61045e60048036038101906104599190614664565b6116de565b60405161046b9190614109565b60405180910390f35b34801561048057600080fd5b506104896119d4565b604051610496919061446a565b60405180910390f35b3480156104ab57600080fd5b506104c660048036038101906104c1919061420c565b611cdb565b6040516104d8969594939291906146a4565b60405180910390f35b3480156104ed57600080fd5b506104f6611d71565b60405161050391906145ef565b60405180910390f35b34801561051857600080fd5b50610533600480360381019061052e919061420c565b6120b0565b604051610540919061427a565b60405180910390f35b34801561055557600080fd5b50610570600480360381019061056b9190614705565b612161565b60405161057d919061449b565b60405180910390f35b6105a0600480360381019061059b9190614867565b612218565b6040516105ad919061449b565b60405180910390f35b6105d060048036038101906105cb91906148c3565b61225a565b6040516105dd919061449b565b60405180910390f35b3480156105f257600080fd5b506105fb61244c565b604051610608919061449b565b60405180910390f35b34801561061d57600080fd5b50610626612458565b60405161063391906141b4565b60405180910390f35b34801561064857600080fd5b50610663600480360381019061065e9190614942565b6124ea565b005b34801561067157600080fd5b5061067a612500565b604051610687919061449b565b60405180910390f35b6106aa60048036038101906106a5919061420c565b61250c565b005b6106c660048036038101906106c1919061420c565b6126e5565b005b3480156106d457600080fd5b506106ef60048036038101906106ea9190614a23565b61280f565b005b61070b6004803603810190610706919061420c565b612871565b005b34801561071957600080fd5b50610734600480360381019061072f919061420c565b612ab3565b60405161074191906141b4565b60405180910390f35b610764600480360381019061075f9190614664565b612bc5565b005b34801561077257600080fd5b5061078d6004803603810190610788919061420c565b612dba565b005b34801561079b57600080fd5b506107b660048036038101906107b1919061420c565b612dc4565b6040516107c896959493929190614ab5565b60405180910390f35b3480156107dd57600080fd5b506107f860048036038101906107f39190614b16565b612e5a565b6040516108059190614109565b60405180910390f35b61082860048036038101906108239190614705565b612eee565b005b60007f80ac58cd000000000000000000000000000000000000000000000000000000007bffffffffffffffffffffffffffffffffffffffffffffffffffffffff1916827bffffffffffffffffffffffffffffffffffffffffffffffffffffffff191614806108f557507f5b5e139f000000000000000000000000000000000000000000000000000000007bffffffffffffffffffffffffffffffffffffffffffffffffffffffff1916827bffffffffffffffffffffffffffffffffffffffffffffffffffffffff1916145b80610905575061090482612f76565b5b9050919050565b60606000805461091b90614b85565b80601f016020809104026020016040519081016040528092919081815260200182805461094790614b85565b80156109945780601f1061096957610100808354040283529160200191610994565b820191906000526020600020905b81548152906001019060200180831161097757829003601f168201915b5050505050905090565b60006109a982612fe0565b6004600083815260200190815260200160002060009054906101000a900473ffffffffffffffffffffffffffffffffffffffff169050919050565b60006109ef826120b0565b90508073ffffffffffffffffffffffffffffffffffffffff168373ffffffffffffffffffffffffffffffffffffffff1603610a5f576040517f08c379a0000000000000000000000000000000000000000000000000000000008152600401610a5690614c28565b60405180910390fd5b8073ffffffffffffffffffffffffffffffffffffffff16610a7e61302b565b73ffffffffffffffffffffffffffffffffffffffff161480610aad5750610aac81610aa761302b565b612e5a565b5b610aec576040517f08c379a0000000000000000000000000000000000000000000000000000000008152600401610ae390614cba565b60405180910390fd5b610af68383613033565b505050565b60606000610b0960076130ec565b90506000610b1760086130ec565b610b2160076130ec565b610b2b9190614d09565b90506000808267ffffffffffffffff811115610b4a57610b4961473c565b5b604051908082528060200260200182016040528015610b8357816020015b610b70613f89565b815260200190600190039081610b685790505b50905060005b84811015610dad573073ffffffffffffffffffffffffffffffffffffffff16600b6000600184610bb99190614d3d565b815260200190815260200160002060020160009054906101000a900473ffffffffffffffffffffffffffffffffffffffff1673ffffffffffffffffffffffffffffffffffffffff16148015610c3b5750600b6000600183610c1a9190614d3d565b815260200190815260200160002060040160009054906101000a900460ff16155b15610d9a576000600182610c4f9190614d3d565b90506000600b60008381526020019081526020016000209050806040518060c0016040529081600082015481526020016001820160009054906101000a900473ffffffffffffffffffffffffffffffffffffffff1673ffffffffffffffffffffffffffffffffffffffff1673ffffffffffffffffffffffffffffffffffffffff1681526020016002820160009054906101000a900473ffffffffffffffffffffffffffffffffffffffff1673ffffffffffffffffffffffffffffffffffffffff1673ffffffffffffffffffffffffffffffffffffffff168152602001600382015481526020016004820160009054906101000a900460ff161515151581526020016004820160019054906101000a900460ff161515151581525050848681518110610d7d57610d7c614d71565b5b6020026020010181905250600185610d959190614d3d565b945050505b8080610da590614da0565b915050610b89565b508094505050505090565b6000600954905090565b606060008060005b600c54811015610e60573373ffffffffffffffffffffffffffffffffffffffff16600f600083815260200190815260200160002060000160009054906101000a900473ffffffffffffffffffffffffffffffffffffffff1673ffffffffffffffffffffffffffffffffffffffff1603610e4d57600183610e4a9190614d3d565b92505b8080610e5890614da0565b915050610dca565b5060008267ffffffffffffffff811115610e7d57610e7c61473c565b5b604051908082528060200260200182016040528015610eb657816020015b610ea3613fef565b815260200190600190039081610e9b5790505b50905060005b600c548110156110f7573373ffffffffffffffffffffffffffffffffffffffff16600f600083815260200190815260200160002060000160009054906101000a900473ffffffffffffffffffffffffffffffffffffffff1673ffffffffffffffffffffffffffffffffffffffff16148015610f5e575060001515600f600083815260200190815260200160002060040160019054906101000a900460ff161515145b8015610f91575060001515600f600083815260200190815260200160002060040160009054906101000a900460ff161515145b156110e45760008190506000600f60008381526020019081526020016000209050806040518060c00160405290816000820160009054906101000a900473ffffffffffffffffffffffffffffffffffffffff1673ffffffffffffffffffffffffffffffffffffffff1673ffffffffffffffffffffffffffffffffffffffff1681526020016001820160009054906101000a900473ffffffffffffffffffffffffffffffffffffffff1673ffffffffffffffffffffffffffffffffffffffff1673ffffffffffffffffffffffffffffffffffffffff16815260200160028201548152602001600382015481526020016004820160009054906101000a900460ff161515151581526020016004820160019054906101000a900460ff1615151515815250508486815181106110c7576110c6614d71565b5b60200260200101819052506001856110df9190614d3d565b945050505b80806110ef90614da0565b915050610ebc565b5080935050505090565b6060600061110f60076130ec565b905060008060005b838110156111b7573373ffffffffffffffffffffffffffffffffffffffff16600b60006001846111479190614d3d565b815260200190815260200160002060020160009054906101000a900473ffffffffffffffffffffffffffffffffffffffff1673ffffffffffffffffffffffffffffffffffffffff16036111a4576001836111a19190614d3d565b92505b80806111af90614da0565b915050611117565b5060008267ffffffffffffffff8111156111d4576111d361473c565b5b60405190808252806020026020018201604052801561120d57816020015b6111fa613f89565b8152602001906001900390816111f25790505b50905060005b848110156113fd573373ffffffffffffffffffffffffffffffffffffffff16600b60006001846112439190614d3d565b815260200190815260200160002060020160009054906101000a900473ffffffffffffffffffffffffffffffffffffffff1673ffffffffffffffffffffffffffffffffffffffff16036113ea57600060018261129f9190614d3d565b90506000600b60008381526020019081526020016000209050806040518060c0016040529081600082015481526020016001820160009054906101000a900473ffffffffffffffffffffffffffffffffffffffff1673ffffffffffffffffffffffffffffffffffffffff1673ffffffffffffffffffffffffffffffffffffffff1681526020016002820160009054906101000a900473ffffffffffffffffffffffffffffffffffffffff1673ffffffffffffffffffffffffffffffffffffffff1673ffffffffffffffffffffffffffffffffffffffff168152602001600382015481526020016004820160009054906101000a900460ff161515151581526020016004820160019054906101000a900460ff1615151515815250508486815181106113cd576113cc614d71565b5b60200260200101819052506001856113e59190614d3d565b945050505b80806113f590614da0565b915050611213565b508094505050505090565b61141961141361302b565b826130fa565b611458576040517f08c379a000000000000000000000000000000000000000000000000000000000815260040161144f90614e5a565b60405180910390fd5b61146383838361318f565b505050565b600081611474816133f5565b6114b3576040517f08c379a00000000000000000000000000000000000000000000000000000000081526004016114aa90614ec6565b60405180910390fd5b6000600f6000858152602001908152602001600020905060018160040160016101000a81548160ff02191690831515021790555061151a308260000160009054906101000a900473ffffffffffffffffffffffffffffffffffffffff16836002015461318f565b837f019f57bc1cf49f7d31b6a53f15255ae62cec31145c6727f0be6d246c101f373d60405160405180910390a2600192505050919050565b60008060005b600c5481116116215784600f60008381526020019081526020016000206002015414801561159b575083600f600083815260200190815260200160002060030154145b80156115ce575060001515600f600083815260200190815260200160002060040160009054906101000a900460ff161515145b8015611601575060001515600f600083815260200190815260200160002060040160019054906101000a900460ff161515145b1561160e57809150611621565b808061161990614da0565b915050611558565b506000600f60008381526020019081526020016000209050611668308260000160009054906101000a900473ffffffffffffffffffffffffffffffffffffffff168761318f565b60018160040160016101000a81548160ff021916908315150217905550817f019f57bc1cf49f7d31b6a53f15255ae62cec31145c6727f0be6d246c101f373d60405160405180910390a260019250505092915050565b6116d98383836040518060200160405280600081525061280f565b505050565b60008060005b600c5481116119c85784600f600083815260200190815260200160002060020154148015611727575083600f600083815260200190815260200160002060030154145b15611925578091506000600f6000848152602001908152602001600020905033600b600088815260200190815260200160002060020160006101000a81548173ffffffffffffffffffffffffffffffffffffffff021916908373ffffffffffffffffffffffffffffffffffffffff1602179055508060000160009054906101000a900473ffffffffffffffffffffffffffffffffffffffff16600b600087815260200190815260200160002060020160006101000a81548173ffffffffffffffffffffffffffffffffffffffff021916908373ffffffffffffffffffffffffffffffffffffffff1602179055506000600b600087815260200190815260200160002060010160006101000a81548173ffffffffffffffffffffffffffffffffffffffff021916908373ffffffffffffffffffffffffffffffffffffffff1602179055506001600b600087815260200190815260200160002060040160006101000a81548160ff0219169083151502179055506118c8308260000160009054906101000a900473ffffffffffffffffffffffffffffffffffffffff168761318f565b6118d330338861318f565b60018160040160006101000a81548160ff021916908315150217905550600c547f1f1d15a0dc959b0b4700d76fb0cb82771c84dfd766a86e6753bb5326f1308da060405160405180910390a2506119b5565b83600f600083815260200190815260200160002060030154148015611971575060001515600f600083815260200190815260200160002060040160009054906101000a900460ff161515145b80156119a4575060001515600f600083815260200190815260200160002060040160019054906101000a900460ff161515145b156119b4576119b281611468565b505b5b80806119c090614da0565b9150506116e4565b50600191505092915050565b606060006119e260076130ec565b905060008060005b83811015611a8a573373ffffffffffffffffffffffffffffffffffffffff16600b6000600184611a1a9190614d3d565b815260200190815260200160002060010160009054906101000a900473ffffffffffffffffffffffffffffffffffffffff1673ffffffffffffffffffffffffffffffffffffffff1603611a7757600183611a749190614d3d565b92505b8080611a8290614da0565b9150506119ea565b5060008267ffffffffffffffff811115611aa757611aa661473c565b5b604051908082528060200260200182016040528015611ae057816020015b611acd613f89565b815260200190600190039081611ac55790505b50905060005b84811015611cd0573373ffffffffffffffffffffffffffffffffffffffff16600b6000600184611b169190614d3d565b815260200190815260200160002060010160009054906101000a900473ffffffffffffffffffffffffffffffffffffffff1673ffffffffffffffffffffffffffffffffffffffff1603611cbd576000600182611b729190614d3d565b90506000600b60008381526020019081526020016000209050806040518060c0016040529081600082015481526020016001820160009054906101000a900473ffffffffffffffffffffffffffffffffffffffff1673ffffffffffffffffffffffffffffffffffffffff1673ffffffffffffffffffffffffffffffffffffffff1681526020016002820160009054906101000a900473ffffffffffffffffffffffffffffffffffffffff1673ffffffffffffffffffffffffffffffffffffffff1673ffffffffffffffffffffffffffffffffffffffff168152602001600382015481526020016004820160009054906101000a900460ff161515151581526020016004820160019054906101000a900460ff161515151581525050848681518110611ca057611c9f614d71565b5b6020026020010181905250600185611cb89190614d3d565b945050505b8080611cc890614da0565b915050611ae6565b508094505050505090565b600f6020528060005260406000206000915090508060000160009054906101000a900473ffffffffffffffffffffffffffffffffffffffff16908060010160009054906101000a900473ffffffffffffffffffffffffffffffffffffffff16908060020154908060030154908060040160009054906101000a900460ff16908060040160019054906101000a900460ff16905086565b606060008060005b600c54811015611e0f573373ffffffffffffffffffffffffffffffffffffffff16600f600083815260200190815260200160002060010160009054906101000a900473ffffffffffffffffffffffffffffffffffffffff1673ffffffffffffffffffffffffffffffffffffffff1603611dfc57600183611df99190614d3d565b92505b8080611e0790614da0565b915050611d79565b5060008267ffffffffffffffff811115611e2c57611e2b61473c565b5b604051908082528060200260200182016040528015611e6557816020015b611e52613fef565b815260200190600190039081611e4a5790505b50905060005b600c548110156120a6573373ffffffffffffffffffffffffffffffffffffffff16600f600083815260200190815260200160002060010160009054906101000a900473ffffffffffffffffffffffffffffffffffffffff1673ffffffffffffffffffffffffffffffffffffffff16148015611f0d575060001515600f600083815260200190815260200160002060040160019054906101000a900460ff161515145b8015611f40575060001515600f600083815260200190815260200160002060040160009054906101000a900460ff161515145b156120935760008190506000600f60008381526020019081526020016000209050806040518060c00160405290816000820160009054906101000a900473ffffffffffffffffffffffffffffffffffffffff1673ffffffffffffffffffffffffffffffffffffffff1673ffffffffffffffffffffffffffffffffffffffff1681526020016001820160009054906101000a900473ffffffffffffffffffffffffffffffffffffffff1673ffffffffffffffffffffffffffffffffffffffff1673ffffffffffffffffffffffffffffffffffffffff16815260200160028201548152602001600382015481526020016004820160009054906101000a900460ff161515151581526020016004820160019054906101000a900460ff16151515158152505084868151811061207657612075614d71565b5b602002602001018190525060018561208e9190614d3d565b945050505b808061209e90614da0565b915050611e6b565b5080935050505090565b6000806002600084815260200190815260200160002060009054906101000a900473ffffffffffffffffffffffffffffffffffffffff169050600073ffffffffffffffffffffffffffffffffffffffff168173ffffffffffffffffffffffffffffffffffffffff1603612158576040517f08c379a000000000000000000000000000000000000000000000000000000000815260040161214f90614f32565b60405180910390fd5b80915050919050565b60008073ffffffffffffffffffffffffffffffffffffffff168273ffffffffffffffffffffffffffffffffffffffff16036121d1576040517f08c379a00000000000000000000000000000000000000000000000000000000081526004016121c890614fc4565b60405180910390fd5b600360008373ffffffffffffffffffffffffffffffffffffffff1673ffffffffffffffffffffffffffffffffffffffff168152602001908152602001600020549050919050565b60006122246007613464565b600061223060076130ec565b905061223c338261347a565b6122468185613653565b61225081846136c0565b8091505092915050565b6000600c54905061226c33308561318f565b6040518060c001604052803373ffffffffffffffffffffffffffffffffffffffff1681526020018573ffffffffffffffffffffffffffffffffffffffff16815260200184815260200183815260200160001515815260200160001515815250600f6000600c54815260200190815260200160002060008201518160000160006101000a81548173ffffffffffffffffffffffffffffffffffffffff021916908373ffffffffffffffffffffffffffffffffffffffff16021790555060208201518160010160006101000a81548173ffffffffffffffffffffffffffffffffffffffff021916908373ffffffffffffffffffffffffffffffffffffffff160217905550604082015181600201556060820151816003015560808201518160040160006101000a81548160ff02191690831515021790555060a08201518160040160016101000a81548160ff021916908315150217905550905050600c60008154809291906123d890614da0565b91905055508373ffffffffffffffffffffffffffffffffffffffff163373ffffffffffffffffffffffffffffffffffffffff16827f4c94d638a09284d2879527c2484fd25453a354bc650263d20c0dceb9f531a592868660405161243d929190614fe4565b60405180910390a49392505050565b60088060000154905081565b60606001805461246790614b85565b80601f016020809104026020016040519081016040528092919081815260200182805461249390614b85565b80156124e05780601f106124b5576101008083540402835291602001916124e0565b820191906000526020600020905b8154815290600101906020018083116124c357829003601f168201915b5050505050905090565b6124fc6124f561302b565b83836138ee565b5050565b60078060000154905081565b3373ffffffffffffffffffffffffffffffffffffffff16600b600083815260200190815260200160002060020160009054906101000a900473ffffffffffffffffffffffffffffffffffffffff1673ffffffffffffffffffffffffffffffffffffffff16146125b0576040517f08c379a00000000000000000000000000000000000000000000000000000000081526004016125a79061507f565b60405180910390fd5b60095434146125f4576040517f08c379a00000000000000000000000000000000000000000000000000000000081526004016125eb90615111565b60405180910390fd5b6000600b600083815260200190815260200160002060040160006101000a81548160ff02191690831515021790555033600b600083815260200190815260200160002060010160006101000a81548173ffffffffffffffffffffffffffffffffffffffff021916908373ffffffffffffffffffffffffffffffffffffffff16021790555030600b600083815260200190815260200160002060020160006101000a81548173ffffffffffffffffffffffffffffffffffffffff021916908373ffffffffffffffffffffffffffffffffffffffff1602179055506126d76008613a5a565b6126e233308361318f565b50565b600a60009054906101000a900473ffffffffffffffffffffffffffffffffffffffff1673ffffffffffffffffffffffffffffffffffffffff163373ffffffffffffffffffffffffffffffffffffffff1614612775576040517f08c379a000000000000000000000000000000000000000000000000000000000815260040161276c906151a3565b60405180910390fd5b3373ffffffffffffffffffffffffffffffffffffffff16600a60009054906101000a900473ffffffffffffffffffffffffffffffffffffffff1673ffffffffffffffffffffffffffffffffffffffff1614612805576040517f08c379a00000000000000000000000000000000000000000000000000000000081526004016127fc90615235565b60405180910390fd5b8060098190555050565b61282061281a61302b565b836130fa565b61285f576040517f08c379a000000000000000000000000000000000000000000000000000000000815260040161285690614e5a565b60405180910390fd5b61286b84848484613ab6565b50505050565b6000600b60008381526020019081526020016000206003015490508034146128ce576040517f08c379a00000000000000000000000000000000000000000000000000000000081526004016128c5906152c7565b60405180910390fd5b33600b600084815260200190815260200160002060020160006101000a81548173ffffffffffffffffffffffffffffffffffffffff021916908373ffffffffffffffffffffffffffffffffffffffff1602179055506001600b600084815260200190815260200160002060040160006101000a81548160ff0219169083151502179055506000600b600084815260200190815260200160002060010160006101000a81548173ffffffffffffffffffffffffffffffffffffffff021916908373ffffffffffffffffffffffffffffffffffffffff1602179055506129b26008613464565b6129bd30338461318f565b6129c730836109e4565b600a60009054906101000a900473ffffffffffffffffffffffffffffffffffffffff1673ffffffffffffffffffffffffffffffffffffffff166108fc6009549081150290604051600060405180830381858888f19350505050158015612a31573d6000803e3d6000fd5b50600b600083815260200190815260200160002060010160009054906101000a900473ffffffffffffffffffffffffffffffffffffffff1673ffffffffffffffffffffffffffffffffffffffff166108fc349081150290604051600060405180830381858888f19350505050158015612aae573d6000803e3d6000fd5b505050565b6060612abe82612fe0565b6000600660008481526020019081526020016000208054612ade90614b85565b80601f0160208091040260200160405190810160405280929190818152602001828054612b0a90614b85565b8015612b575780601f10612b2c57610100808354040283529160200191612b57565b820191906000526020600020905b815481529060010190602001808311612b3a57829003601f168201915b505050505090506000612b68613b12565b90506000815103612b7d578192505050612bc0565b600082511115612bb2578082604051602001612b9a929190615323565b60405160208183030381529060405292505050612bc0565b612bbb84613b29565b925050505b919050565b3373ffffffffffffffffffffffffffffffffffffffff16600b600084815260200190815260200160002060020160009054906101000a900473ffffffffffffffffffffffffffffffffffffffff1673ffffffffffffffffffffffffffffffffffffffff1614612c69576040517f08c379a0000000000000000000000000000000000000000000000000000000008152600401612c609061507f565b60405180910390fd5b6009543414612cad576040517f08c379a0000000000000000000000000000000000000000000000000000000008152600401612ca490615111565b60405180910390fd5b6000600b600084815260200190815260200160002060040160006101000a81548160ff02191690831515021790555080600b60008481526020019081526020016000206003018190555033600b600084815260200190815260200160002060010160006101000a81548173ffffffffffffffffffffffffffffffffffffffff021916908373ffffffffffffffffffffffffffffffffffffffff16021790555030600b600084815260200190815260200160002060020160006101000a81548173ffffffffffffffffffffffffffffffffffffffff021916908373ffffffffffffffffffffffffffffffffffffffff160217905550612dab6008613a5a565b612db633308461318f565b5050565b80600d8190555050565b600b6020528060005260406000206000915090508060000154908060010160009054906101000a900473ffffffffffffffffffffffffffffffffffffffff16908060020160009054906101000a900473ffffffffffffffffffffffffffffffffffffffff16908060030154908060040160009054906101000a900460ff16908060040160019054906101000a900460ff16905086565b6000600560008473ffffffffffffffffffffffffffffffffffffffff1673ffffffffffffffffffffffffffffffffffffffff16815260200190815260200160002060008373ffffffffffffffffffffffffffffffffffffffff1673ffffffffffffffffffffffffffffffffffffffff16815260200190815260200160002060009054906101000a900460ff16905092915050565b600d54341015612efd57600080fd5b612f0681613b91565b73ffffffffffffffffffffffffffffffffffffffff163373ffffffffffffffffffffffffffffffffffffffff1614612f73576040517f08c379a0000000000000000000000000000000000000000000000000000000008152600401612f6a906153b9565b60405180910390fd5b50565b60007f01ffc9a7000000000000000000000000000000000000000000000000000000007bffffffffffffffffffffffffffffffffffffffffffffffffffffffff1916827bffffffffffffffffffffffffffffffffffffffffffffffffffffffff1916149050919050565b612fe981613c09565b613028576040517f08c379a000000000000000000000000000000000000000000000000000000000815260040161301f90614f32565b60405180910390fd5b50565b600033905090565b816004600083815260200190815260200160002060006101000a81548173ffffffffffffffffffffffffffffffffffffffff021916908373ffffffffffffffffffffffffffffffffffffffff160217905550808273ffffffffffffffffffffffffffffffffffffffff166130a6836120b0565b73ffffffffffffffffffffffffffffffffffffffff167f8c5be1e5ebec7d5bd14f71427d1e84f3dd0314c0f7b2291e5b200ac8c7c3b92560405160405180910390a45050565b600081600001549050919050565b600080613106836120b0565b90508073ffffffffffffffffffffffffffffffffffffffff168473ffffffffffffffffffffffffffffffffffffffff16148061314857506131478185612e5a565b5b8061318657508373ffffffffffffffffffffffffffffffffffffffff1661316e8461099e565b73ffffffffffffffffffffffffffffffffffffffff16145b91505092915050565b8273ffffffffffffffffffffffffffffffffffffffff166131af826120b0565b73ffffffffffffffffffffffffffffffffffffffff1614613205576040517f08c379a00000000000000000000000000000000000000000000000000000000081526004016131fc9061544b565b60405180910390fd5b600073ffffffffffffffffffffffffffffffffffffffff168273ffffffffffffffffffffffffffffffffffffffff1603613274576040517f08c379a000000000000000000000000000000000000000000000000000000000815260040161326b906154dd565b60405180910390fd5b61327f838383613c75565b61328a600082613033565b6001600360008573ffffffffffffffffffffffffffffffffffffffff1673ffffffffffffffffffffffffffffffffffffffff16815260200190815260200160002060008282546132da9190614d09565b925050819055506001600360008473ffffffffffffffffffffffffffffffffffffffff1673ffffffffffffffffffffffffffffffffffffffff16815260200190815260200160002060008282546133319190614d3d565b92505081905550816002600083815260200190815260200160002060006101000a81548173ffffffffffffffffffffffffffffffffffffffff021916908373ffffffffffffffffffffffffffffffffffffffff160217905550808273ffffffffffffffffffffffffffffffffffffffff168473ffffffffffffffffffffffffffffffffffffffff167fddf252ad1be2c89b69c2b068fc378daa952ba7f163c4a11628f55a4df523b3ef60405160405180910390a46133f0838383613c7a565b505050565b60008073ffffffffffffffffffffffffffffffffffffffff16600f600084815260200190815260200160002060000160009054906101000a900473ffffffffffffffffffffffffffffffffffffffff1673ffffffffffffffffffffffffffffffffffffffff1614159050919050565b6001816000016000828254019250508190555050565b600073ffffffffffffffffffffffffffffffffffffffff168273ffffffffffffffffffffffffffffffffffffffff16036134e9576040517f08c379a00000000000000000000000000000000000000000000000000000000081526004016134e090615549565b60405180910390fd5b6134f281613c09565b15613532576040517f08c379a0000000000000000000000000000000000000000000000000000000008152600401613529906155b5565b60405180910390fd5b61353e60008383613c75565b6001600360008473ffffffffffffffffffffffffffffffffffffffff1673ffffffffffffffffffffffffffffffffffffffff168152602001908152602001600020600082825461358e9190614d3d565b92505081905550816002600083815260200190815260200160002060006101000a81548173ffffffffffffffffffffffffffffffffffffffff021916908373ffffffffffffffffffffffffffffffffffffffff160217905550808273ffffffffffffffffffffffffffffffffffffffff16600073ffffffffffffffffffffffffffffffffffffffff167fddf252ad1be2c89b69c2b068fc378daa952ba7f163c4a11628f55a4df523b3ef60405160405180910390a461364f60008383613c7a565b5050565b61365c82613c09565b61369b576040517f08c379a000000000000000000000000000000000000000000000000000000000815260040161369290615647565b60405180910390fd5b806006600084815260200190815260200160002090816136bb9190615813565b505050565b60008111613703576040517f08c379a00000000000000000000000000000000000000000000000000000000081526004016136fa90615931565b60405180910390fd5b6009543414613747576040517f08c379a000000000000000000000000000000000000000000000000000000000815260040161373e90615111565b60405180910390fd5b6040518060c001604052808381526020013373ffffffffffffffffffffffffffffffffffffffff1681526020013073ffffffffffffffffffffffffffffffffffffffff16815260200182815260200160001515815260200160001515815250600b60008481526020019081526020016000206000820151816000015560208201518160010160006101000a81548173ffffffffffffffffffffffffffffffffffffffff021916908373ffffffffffffffffffffffffffffffffffffffff16021790555060408201518160020160006101000a81548173ffffffffffffffffffffffffffffffffffffffff021916908373ffffffffffffffffffffffffffffffffffffffff1602179055506060820151816003015560808201518160040160006101000a81548160ff02191690831515021790555060a08201518160040160016101000a81548160ff0219169083151502179055509050506138a933308461318f565b817f538153ed6048ec0057b06893633e5c91bd15b5456c7598a4ad59ed40e506cb8d3330846000806040516138e2959493929190615951565b60405180910390a25050565b8173ffffffffffffffffffffffffffffffffffffffff168373ffffffffffffffffffffffffffffffffffffffff160361395c576040517f08c379a0000000000000000000000000000000000000000000000000000000008152600401613953906159f0565b60405180910390fd5b80600560008573ffffffffffffffffffffffffffffffffffffffff1673ffffffffffffffffffffffffffffffffffffffff16815260200190815260200160002060008473ffffffffffffffffffffffffffffffffffffffff1673ffffffffffffffffffffffffffffffffffffffff16815260200190815260200160002060006101000a81548160ff0219169083151502179055508173ffffffffffffffffffffffffffffffffffffffff168373ffffffffffffffffffffffffffffffffffffffff167f17307eab39ab6107e8899845ad3d59bd9653f200f220920489ca2b5937696c3183604051613a4d9190614109565b60405180910390a3505050565b60008160000154905060008111613aa6576040517f08c379a0000000000000000000000000000000000000000000000000000000008152600401613a9d90615a5c565b60405180910390fd5b6001810382600001819055505050565b613ac184848461318f565b613acd84848484613c7f565b613b0c576040517f08c379a0000000000000000000000000000000000000000000000000000000008152600401613b0390615aee565b60405180910390fd5b50505050565b606060405180602001604052806000815250905090565b6060613b3482612fe0565b6000613b3e613b12565b90506000815111613b5e5760405180602001604052806000815250613b89565b80613b6884613e06565b604051602001613b79929190615323565b6040516020818303038152906040525b915050919050565b60008173ffffffffffffffffffffffffffffffffffffffff16638da5cb5b6040518163ffffffff1660e01b8152600401602060405180830381865afa158015613bde573d6000803e3d6000fd5b505050506040513d601f19601f82011682018060405250810190613c029190615b23565b9050919050565b60008073ffffffffffffffffffffffffffffffffffffffff166002600084815260200190815260200160002060009054906101000a900473ffffffffffffffffffffffffffffffffffffffff1673ffffffffffffffffffffffffffffffffffffffff1614159050919050565b505050565b505050565b6000613ca08473ffffffffffffffffffffffffffffffffffffffff16613f66565b15613df9578373ffffffffffffffffffffffffffffffffffffffff1663150b7a02613cc961302b565b8786866040518563ffffffff1660e01b8152600401613ceb9493929190615ba5565b6020604051808303816000875af1925050508015613d2757506040513d601f19601f82011682018060405250810190613d249190615c06565b60015b613da9573d8060008114613d57576040519150601f19603f3d011682016040523d82523d6000602084013e613d5c565b606091505b506000815103613da1576040517f08c379a0000000000000000000000000000000000000000000000000000000008152600401613d9890615aee565b60405180910390fd5b805181602001fd5b63150b7a0260e01b7bffffffffffffffffffffffffffffffffffffffffffffffffffffffff1916817bffffffffffffffffffffffffffffffffffffffffffffffffffffffff191614915050613dfe565b600190505b949350505050565b606060008203613e4d576040518060400160405280600181526020017f30000000000000000000000000000000000000000000000000000000000000008152509050613f61565b600082905060005b60008214613e7f578080613e6890614da0565b915050600a82613e789190615c62565b9150613e55565b60008167ffffffffffffffff811115613e9b57613e9a61473c565b5b6040519080825280601f01601f191660200182016040528015613ecd5781602001600182028036833780820191505090505b5090505b60008514613f5a57600182613ee69190614d09565b9150600a85613ef59190615c93565b6030613f019190614d3d565b60f81b818381518110613f1757613f16614d71565b5b60200101907effffffffffffffffffffffffffffffffffffffffffffffffffffffffffffff1916908160001a905350600a85613f539190615c62565b9450613ed1565b8093505050505b919050565b6000808273ffffffffffffffffffffffffffffffffffffffff163b119050919050565b6040518060c0016040528060008152602001600073ffffffffffffffffffffffffffffffffffffffff168152602001600073ffffffffffffffffffffffffffffffffffffffff168152602001600081526020016000151581526020016000151581525090565b6040518060c00160405280600073ffffffffffffffffffffffffffffffffffffffff168152602001600073ffffffffffffffffffffffffffffffffffffffff16815260200160008152602001600081526020016000151581526020016000151581525090565b6000604051905090565b600080fd5b600080fd5b60007fffffffff0000000000000000000000000000000000000000000000000000000082169050919050565b61409e81614069565b81146140a957600080fd5b50565b6000813590506140bb81614095565b92915050565b6000602082840312156140d7576140d661405f565b5b60006140e5848285016140ac565b91505092915050565b60008115159050919050565b614103816140ee565b82525050565b600060208201905061411e60008301846140fa565b92915050565b600081519050919050565b600082825260208201905092915050565b60005b8381101561415e578082015181840152602081019050614143565b60008484015250505050565b6000601f19601f8301169050919050565b600061418682614124565b614190818561412f565b93506141a0818560208601614140565b6141a98161416a565b840191505092915050565b600060208201905081810360008301526141ce818461417b565b905092915050565b6000819050919050565b6141e9816141d6565b81146141f457600080fd5b50565b600081359050614206816141e0565b92915050565b6000602082840312156142225761422161405f565b5b6000614230848285016141f7565b91505092915050565b600073ffffffffffffffffffffffffffffffffffffffff82169050919050565b600061426482614239565b9050919050565b61427481614259565b82525050565b600060208201905061428f600083018461426b565b92915050565b61429e81614259565b81146142a957600080fd5b50565b6000813590506142bb81614295565b92915050565b600080604083850312156142d8576142d761405f565b5b60006142e6858286016142ac565b92505060206142f7858286016141f7565b9150509250929050565b600081519050919050565b600082825260208201905092915050565b6000819050602082019050919050565b614336816141d6565b82525050565b600061434782614239565b9050919050565b6143578161433c565b82525050565b614366816140ee565b82525050565b60c082016000820151614382600085018261432d565b506020820151614395602085018261434e565b5060408201516143a8604085018261434e565b5060608201516143bb606085018261432d565b5060808201516143ce608085018261435d565b5060a08201516143e160a085018261435d565b50505050565b60006143f3838361436c565b60c08301905092915050565b6000602082019050919050565b600061441782614301565b614421818561430c565b935061442c8361431d565b8060005b8381101561445d57815161444488826143e7565b975061444f836143ff565b925050600181019050614430565b5085935050505092915050565b60006020820190508181036000830152614484818461440c565b905092915050565b614495816141d6565b82525050565b60006020820190506144b0600083018461448c565b92915050565b600081519050919050565b600082825260208201905092915050565b6000819050602082019050919050565b6144eb81614259565b82525050565b60c08201600082015161450760008501826144e2565b50602082015161451a60208501826144e2565b50604082015161452d604085018261432d565b506060820151614540606085018261432d565b506080820151614553608085018261435d565b5060a082015161456660a085018261435d565b50505050565b600061457883836144f1565b60c08301905092915050565b6000602082019050919050565b600061459c826144b6565b6145a681856144c1565b93506145b1836144d2565b8060005b838110156145e25781516145c9888261456c565b97506145d483614584565b9250506001810190506145b5565b5085935050505092915050565b600060208201905081810360008301526146098184614591565b905092915050565b60008060006060848603121561462a5761462961405f565b5b6000614638868287016142ac565b9350506020614649868287016142ac565b925050604061465a868287016141f7565b9150509250925092565b6000806040838503121561467b5761467a61405f565b5b6000614689858286016141f7565b925050602061469a858286016141f7565b9150509250929050565b600060c0820190506146b9600083018961426b565b6146c6602083018861426b565b6146d3604083018761448c565b6146e0606083018661448c565b6146ed60808301856140fa565b6146fa60a08301846140fa565b979650505050505050565b60006020828403121561471b5761471a61405f565b5b6000614729848285016142ac565b91505092915050565b600080fd5b600080fd5b7f4e487b7100000000000000000000000000000000000000000000000000000000600052604160045260246000fd5b6147748261416a565b810181811067ffffffffffffffff821117156147935761479261473c565b5b80604052505050565b60006147a6614055565b90506147b2828261476b565b919050565b600067ffffffffffffffff8211156147d2576147d161473c565b5b6147db8261416a565b9050602081019050919050565b82818337600083830152505050565b600061480a614805846147b7565b61479c565b90508281526020810184848401111561482657614825614737565b5b6148318482856147e8565b509392505050565b600082601f83011261484e5761484d614732565b5b813561485e8482602086016147f7565b91505092915050565b6000806040838503121561487e5761487d61405f565b5b600083013567ffffffffffffffff81111561489c5761489b614064565b5b6148a885828601614839565b92505060206148b9858286016141f7565b9150509250929050565b6000806000606084860312156148dc576148db61405f565b5b60006148ea868287016142ac565b93505060206148fb868287016141f7565b925050604061490c868287016141f7565b9150509250925092565b61491f816140ee565b811461492a57600080fd5b50565b60008135905061493c81614916565b92915050565b600080604083850312156149595761495861405f565b5b6000614967858286016142ac565b92505060206149788582860161492d565b9150509250929050565b600067ffffffffffffffff82111561499d5761499c61473c565b5b6149a68261416a565b9050602081019050919050565b60006149c66149c184614982565b61479c565b9050828152602081018484840111156149e2576149e1614737565b5b6149ed8482856147e8565b509392505050565b600082601f830112614a0a57614a09614732565b5b8135614a1a8482602086016149b3565b91505092915050565b60008060008060808587031215614a3d57614a3c61405f565b5b6000614a4b878288016142ac565b9450506020614a5c878288016142ac565b9350506040614a6d878288016141f7565b925050606085013567ffffffffffffffff811115614a8e57614a8d614064565b5b614a9a878288016149f5565b91505092959194509250565b614aaf8161433c565b82525050565b600060c082019050614aca600083018961448c565b614ad76020830188614aa6565b614ae46040830187614aa6565b614af1606083018661448c565b614afe60808301856140fa565b614b0b60a08301846140fa565b979650505050505050565b60008060408385031215614b2d57614b2c61405f565b5b6000614b3b858286016142ac565b9250506020614b4c858286016142ac565b9150509250929050565b7f4e487b7100000000000000000000000000000000000000000000000000000000600052602260045260246000fd5b60006002820490506001821680614b9d57607f821691505b602082108103614bb057614baf614b56565b5b50919050565b7f4552433732313a20617070726f76616c20746f2063757272656e74206f776e6560008201527f7200000000000000000000000000000000000000000000000000000000000000602082015250565b6000614c1260218361412f565b9150614c1d82614bb6565b604082019050919050565b60006020820190508181036000830152614c4181614c05565b9050919050565b7f4552433732313a20617070726f76652063616c6c6572206973206e6f7420746f60008201527f6b656e206f776e6572206e6f7220617070726f76656420666f7220616c6c0000602082015250565b6000614ca4603e8361412f565b9150614caf82614c48565b604082019050919050565b60006020820190508181036000830152614cd381614c97565b9050919050565b7f4e487b7100000000000000000000000000000000000000000000000000000000600052601160045260246000fd5b6000614d14826141d6565b9150614d1f836141d6565b9250828203905081811115614d3757614d36614cda565b5b92915050565b6000614d48826141d6565b9150614d53836141d6565b9250828201905080821115614d6b57614d6a614cda565b5b92915050565b7f4e487b7100000000000000000000000000000000000000000000000000000000600052603260045260246000fd5b6000614dab826141d6565b91507fffffffffffffffffffffffffffffffffffffffffffffffffffffffffffffffff8203614ddd57614ddc614cda565b5b600182019050919050565b7f4552433732313a2063616c6c6572206973206e6f7420746f6b656e206f776e6560008201527f72206e6f7220617070726f766564000000000000000000000000000000000000602082015250565b6000614e44602e8361412f565b9150614e4f82614de8565b604082019050919050565b60006020820190508181036000830152614e7381614e37565b9050919050565b7f636f6e7472616374496420646f6573206e6f7420657869737400000000000000600082015250565b6000614eb060198361412f565b9150614ebb82614e7a565b602082019050919050565b60006020820190508181036000830152614edf81614ea3565b9050919050565b7f4552433732313a20696e76616c696420746f6b656e2049440000000000000000600082015250565b6000614f1c60188361412f565b9150614f2782614ee6565b602082019050919050565b60006020820190508181036000830152614f4b81614f0f565b9050919050565b7f4552433732313a2061646472657373207a65726f206973206e6f74206120766160008201527f6c6964206f776e65720000000000000000000000000000000000000000000000602082015250565b6000614fae60298361412f565b9150614fb982614f52565b604082019050919050565b60006020820190508181036000830152614fdd81614fa1565b9050919050565b6000604082019050614ff9600083018561448c565b615006602083018461448c565b9392505050565b7f4f6e6c79206974656d206f776e65722063616e20706572666f726d207468697360008201527f206f7065726174696f6e00000000000000000000000000000000000000000000602082015250565b6000615069602a8361412f565b91506150748261500d565b604082019050919050565b600060208201905081810360008301526150988161505c565b9050919050565b7f5072696365206d75737420626520657175616c20746f206c697374696e67207060008201527f7269636500000000000000000000000000000000000000000000000000000000602082015250565b60006150fb60248361412f565b91506151068261509f565b604082019050919050565b6000602082019050818103600083015261512a816150ee565b9050919050565b7f6f6e6c79206f776e6572206f6620746865206d61726b6574706c61636520636160008201527f6e206368616e676520746865206c697374696e67207072696365000000000000602082015250565b600061518d603a8361412f565b915061519882615131565b604082019050919050565b600060208201905081810360008301526151bc81615180565b9050919050565b7f4f6e6c79206d61726b6574706c616365206f776e65722063616e20757064617460008201527f65206c697374696e672070726963652e00000000000000000000000000000000602082015250565b600061521f60308361412f565b915061522a826151c3565b604082019050919050565b6000602082019050818103600083015261524e81615212565b9050919050565b7f506c65617365207375626d6974207468652061736b696e67207072696365206960008201527f6e206f7264657220746f20636f6d706c65746520746865207075726368617365602082015250565b60006152b160408361412f565b91506152bc82615255565b604082019050919050565b600060208201905081810360008301526152e0816152a4565b9050919050565b600081905092915050565b60006152fd82614124565b61530781856152e7565b9350615317818560208601614140565b80840191505092915050565b600061532f82856152f2565b915061533b82846152f2565b91508190509392505050565b7f796f7520617265206e6f7420746865204f776e6572206f66207468697320636f60008201527f6f6c65637469626c650000000000000000000000000000000000000000000000602082015250565b60006153a360298361412f565b91506153ae82615347565b604082019050919050565b600060208201905081810360008301526153d281615396565b9050919050565b7f4552433732313a207472616e736665722066726f6d20696e636f72726563742060008201527f6f776e6572000000000000000000000000000000000000000000000000000000602082015250565b600061543560258361412f565b9150615440826153d9565b604082019050919050565b6000602082019050818103600083015261546481615428565b9050919050565b7f4552433732313a207472616e7366657220746f20746865207a65726f2061646460008201527f7265737300000000000000000000000000000000000000000000000000000000602082015250565b60006154c760248361412f565b91506154d28261546b565b604082019050919050565b600060208201905081810360008301526154f6816154ba565b9050919050565b7f4552433732313a206d696e7420746f20746865207a65726f2061646472657373600082015250565b600061553360208361412f565b915061553e826154fd565b602082019050919050565b6000602082019050818103600083015261556281615526565b9050919050565b7f4552433732313a20746f6b656e20616c7265616479206d696e74656400000000600082015250565b600061559f601c8361412f565b91506155aa82615569565b602082019050919050565b600060208201905081810360008301526155ce81615592565b9050919050565b7f45524337323155524953746f726167653a2055524920736574206f66206e6f6e60008201527f6578697374656e7420746f6b656e000000000000000000000000000000000000602082015250565b6000615631602e8361412f565b915061563c826155d5565b604082019050919050565b6000602082019050818103600083015261566081615624565b9050919050565b60008190508160005260206000209050919050565b60006020601f8301049050919050565b600082821b905092915050565b6000600883026156c97fffffffffffffffffffffffffffffffffffffffffffffffffffffffffffffffff8261568c565b6156d3868361568c565b95508019841693508086168417925050509392505050565b6000819050919050565b600061571061570b615706846141d6565b6156eb565b6141d6565b9050919050565b6000819050919050565b61572a836156f5565b61573e61573682615717565b848454615699565b825550505050565b600090565b615753615746565b61575e818484615721565b505050565b5b818110156157825761577760008261574b565b600181019050615764565b5050565b601f8211156157c75761579881615667565b6157a18461567c565b810160208510156157b0578190505b6157c46157bc8561567c565b830182615763565b50505b505050565b600082821c905092915050565b60006157ea600019846008026157cc565b1980831691505092915050565b600061580383836157d9565b9150826002028217905092915050565b61581c82614124565b67ffffffffffffffff8111156158355761583461473c565b5b61583f8254614b85565b61584a828285615786565b600060209050601f83116001811461587d576000841561586b578287015190505b61587585826157f7565b8655506158dd565b601f19841661588b86615667565b60005b828110156158b35784890151825560018201915060208501945060208101905061588e565b868310156158d057848901516158cc601f8916826157d9565b8355505b6001600288020188555050505b505050505050565b7f5072696365206d757374206265206174206c6561737420312077656900000000600082015250565b600061591b601c8361412f565b9150615926826158e5565b602082019050919050565b6000602082019050818103600083015261594a8161590e565b9050919050565b600060a082019050615966600083018861426b565b615973602083018761426b565b615980604083018661448c565b61598d60608301856140fa565b61599a60808301846140fa565b9695505050505050565b7f4552433732313a20617070726f766520746f2063616c6c657200000000000000600082015250565b60006159da60198361412f565b91506159e5826159a4565b602082019050919050565b60006020820190508181036000830152615a09816159cd565b9050919050565b7f436f756e7465723a2064656372656d656e74206f766572666c6f770000000000600082015250565b6000615a46601b8361412f565b9150615a5182615a10565b602082019050919050565b60006020820190508181036000830152615a7581615a39565b9050919050565b7f4552433732313a207472616e7366657220746f206e6f6e20455243373231526560008201527f63656976657220696d706c656d656e7465720000000000000000000000000000602082015250565b6000615ad860328361412f565b9150615ae382615a7c565b604082019050919050565b60006020820190508181036000830152615b0781615acb565b9050919050565b600081519050615b1d81614295565b92915050565b600060208284031215615b3957615b3861405f565b5b6000615b4784828501615b0e565b91505092915050565b600081519050919050565b600082825260208201905092915050565b6000615b7782615b50565b615b818185615b5b565b9350615b91818560208601614140565b615b9a8161416a565b840191505092915050565b6000608082019050615bba600083018761426b565b615bc7602083018661426b565b615bd4604083018561448c565b8181036060830152615be68184615b6c565b905095945050505050565b600081519050615c0081614095565b92915050565b600060208284031215615c1c57615c1b61405f565b5b6000615c2a84828501615bf1565b91505092915050565b7f4e487b7100000000000000000000000000000000000000000000000000000000600052601260045260246000fd5b6000615c6d826141d6565b9150615c78836141d6565b925082615c8857615c87615c33565b5b828204905092915050565b6000615c9e826141d6565b9150615ca9836141d6565b925082615cb957615cb8615c33565b5b82820690509291505056fea26469706673582212206836b76f07174c22cd23a267af6feed2c961a48743361214a55a89f1928f3c9d64736f6c63430008110033",
  "linkReferences": {},
  "deployedLinkReferences": {}
}