{
  "_format": "hh-sol-artifact-1",
  "contractName": "NFTMarketplace",
  "sourceName": "contracts/NFTMarketplace.sol",
  "abi": [
    {
      "inputs": [],
      "stateMutability": "nonpayable",
      "type": "constructor"
    },
    {
      "anonymous": false,
      "inputs": [
        {
          "indexed": true,
          "internalType": "address",
          "name": "owner",
          "type": "address"
        },
        {
          "indexed": true,
          "internalType": "address",
          "name": "approved",
          "type": "address"
        },
        {
          "indexed": true,
          "internalType": "uint256",
          "name": "tokenId",
          "type": "uint256"
        }
      ],
      "name": "Approval",
      "type": "event"
    },
    {
      "anonymous": false,
      "inputs": [
        {
          "indexed": true,
          "internalType": "address",
          "name": "owner",
          "type": "address"
        },
        {
          "indexed": true,
          "internalType": "address",
          "name": "operator",
          "type": "address"
        },
        {
          "indexed": false,
          "internalType": "bool",
          "name": "approved",
          "type": "bool"
        }
      ],
      "name": "ApprovalForAll",
      "type": "event"
    },
    {
      "anonymous": false,
      "inputs": [
        {
          "indexed": true,
          "internalType": "uint256",
          "name": "contractId",
          "type": "uint256"
        },
        {
          "indexed": true,
          "internalType": "address",
          "name": "sender",
          "type": "address"
        },
        {
          "indexed": true,
          "internalType": "address",
          "name": "receiver",
          "type": "address"
        },
        {
          "indexed": false,
          "internalType": "uint256",
          "name": "tokenId",
          "type": "uint256"
        },
        {
          "indexed": false,
          "internalType": "string",
          "name": "hashlock",
          "type": "string"
        },
        {
          "indexed": false,
          "internalType": "uint256",
          "name": "requestedid",
          "type": "uint256"
        }
      ],
      "name": "HTLCERC721New",
      "type": "event"
    },
    {
      "anonymous": false,
      "inputs": [
        {
          "indexed": true,
          "internalType": "uint256",
          "name": "contractId",
          "type": "uint256"
        }
      ],
      "name": "HTLCERC721Refund",
      "type": "event"
    },
    {
      "anonymous": false,
      "inputs": [
        {
          "indexed": true,
          "internalType": "uint256",
          "name": "contractId",
          "type": "uint256"
        }
      ],
      "name": "HTLCERC721Withdraw",
      "type": "event"
    },
    {
      "anonymous": false,
      "inputs": [
        {
          "indexed": true,
          "internalType": "uint256",
          "name": "tokenId",
          "type": "uint256"
        },
        {
          "indexed": false,
          "internalType": "address",
          "name": "seller",
          "type": "address"
        },
        {
          "indexed": false,
          "internalType": "address",
          "name": "owner",
          "type": "address"
        },
        {
          "indexed": false,
          "internalType": "uint256",
          "name": "price",
          "type": "uint256"
        },
        {
          "indexed": false,
          "internalType": "bool",
          "name": "sold",
          "type": "bool"
        },
        {
          "indexed": false,
          "internalType": "bool",
          "name": "isSwap",
          "type": "bool"
        }
      ],
      "name": "MarketItemCreated",
      "type": "event"
    },
    {
      "anonymous": false,
      "inputs": [
        {
          "indexed": true,
          "internalType": "address",
          "name": "from",
          "type": "address"
        },
        {
          "indexed": true,
          "internalType": "address",
          "name": "to",
          "type": "address"
        },
        {
          "indexed": true,
          "internalType": "uint256",
          "name": "tokenId",
          "type": "uint256"
        }
      ],
      "name": "Transfer",
      "type": "event"
    },
    {
      "inputs": [],
      "name": "AllTrades",
      "outputs": [
        {
          "internalType": "uint256",
          "name": "",
          "type": "uint256"
        }
      ],
      "stateMutability": "view",
      "type": "function"
    },
    {
      "inputs": [
        {
          "internalType": "address",
          "name": "_Address",
          "type": "address"
        }
      ],
      "name": "MyTrades",
      "outputs": [
        {
          "internalType": "uint256[]",
          "name": "",
          "type": "uint256[]"
        }
      ],
      "stateMutability": "view",
      "type": "function"
    },
    {
      "inputs": [
        {
          "internalType": "uint256",
          "name": "_Amount",
          "type": "uint256"
        }
      ],
      "name": "SetverificationFees",
      "outputs": [],
      "stateMutability": "nonpayable",
      "type": "function"
    },
    {
      "inputs": [
        {
          "internalType": "address",
          "name": "_collectibleAddress",
          "type": "address"
        }
      ],
      "name": "SubmitContract",
      "outputs": [],
      "stateMutability": "payable",
      "type": "function"
    },
    {
      "inputs": [],
      "name": "_itemsSold",
      "outputs": [
        {
          "internalType": "uint256",
          "name": "_value",
          "type": "uint256"
        }
      ],
      "stateMutability": "view",
      "type": "function"
    },
    {
      "inputs": [],
      "name": "_tokenIds",
      "outputs": [
        {
          "internalType": "uint256",
          "name": "_value",
          "type": "uint256"
        }
      ],
      "stateMutability": "view",
      "type": "function"
    },
    {
      "inputs": [
        {
          "internalType": "address",
          "name": "to",
          "type": "address"
        },
        {
          "internalType": "uint256",
          "name": "tokenId",
          "type": "uint256"
        }
      ],
      "name": "approve",
      "outputs": [],
      "stateMutability": "nonpayable",
      "type": "function"
    },
    {
      "inputs": [
        {
          "internalType": "address",
          "name": "owner",
          "type": "address"
        }
      ],
      "name": "balanceOf",
      "outputs": [
        {
          "internalType": "uint256",
          "name": "",
          "type": "uint256"
        }
      ],
      "stateMutability": "view",
      "type": "function"
    },
    {
      "inputs": [
        {
          "internalType": "uint256",
          "name": "",
          "type": "uint256"
        }
      ],
      "name": "contracts",
      "outputs": [
        {
          "internalType": "address",
          "name": "Sender",
          "type": "address"
        },
        {
          "internalType": "address",
          "name": "receiver",
          "type": "address"
        },
        {
          "internalType": "uint256",
          "name": "tokenId",
          "type": "uint256"
        },
        {
          "internalType": "string",
          "name": "hashlock",
          "type": "string"
        },
        {
          "internalType": "uint256",
          "name": "requestedid",
          "type": "uint256"
        },
        {
          "internalType": "bool",
          "name": "withdrawn",
          "type": "bool"
        },
        {
          "internalType": "bool",
          "name": "refunded",
          "type": "bool"
        },
        {
          "internalType": "string",
          "name": "preimage",
          "type": "string"
        }
      ],
      "stateMutability": "view",
      "type": "function"
    },
    {
      "inputs": [
        {
          "internalType": "uint256",
          "name": "tokenId",
          "type": "uint256"
        }
      ],
      "name": "createMarketSale",
      "outputs": [],
      "stateMutability": "payable",
      "type": "function"
    },
    {
      "inputs": [
        {
          "internalType": "string",
          "name": "tokenURI",
          "type": "string"
        },
        {
          "internalType": "uint256",
          "name": "price",
          "type": "uint256"
        }
      ],
      "name": "createToken",
      "outputs": [
        {
          "internalType": "uint256",
          "name": "",
          "type": "uint256"
        }
      ],
      "stateMutability": "payable",
      "type": "function"
    },
    {
      "inputs": [],
      "name": "fetchItemsListed",
      "outputs": [
        {
          "components": [
            {
              "internalType": "uint256",
              "name": "tokenId",
              "type": "uint256"
            },
            {
              "internalType": "address payable",
              "name": "seller",
              "type": "address"
            },
            {
              "internalType": "address payable",
              "name": "owner",
              "type": "address"
            },
            {
              "internalType": "uint256",
              "name": "price",
              "type": "uint256"
            },
            {
              "internalType": "bool",
              "name": "sold",
              "type": "bool"
            },
            {
              "internalType": "bool",
              "name": "isSwap",
              "type": "bool"
            }
          ],
          "internalType": "struct NFTMarketplace.MarketItem[]",
          "name": "",
          "type": "tuple[]"
        }
      ],
      "stateMutability": "view",
      "type": "function"
    },
    {
      "inputs": [],
      "name": "fetchMarketItems",
      "outputs": [
        {
          "components": [
            {
              "internalType": "uint256",
              "name": "tokenId",
              "type": "uint256"
            },
            {
              "internalType": "address payable",
              "name": "seller",
              "type": "address"
            },
            {
              "internalType": "address payable",
              "name": "owner",
              "type": "address"
            },
            {
              "internalType": "uint256",
              "name": "price",
              "type": "uint256"
            },
            {
              "internalType": "bool",
              "name": "sold",
              "type": "bool"
            },
            {
              "internalType": "bool",
              "name": "isSwap",
              "type": "bool"
            }
          ],
          "internalType": "struct NFTMarketplace.MarketItem[]",
          "name": "",
          "type": "tuple[]"
        }
      ],
      "stateMutability": "view",
      "type": "function"
    },
    {
      "inputs": [],
      "name": "fetchMyNFTs",
      "outputs": [
        {
          "components": [
            {
              "internalType": "uint256",
              "name": "tokenId",
              "type": "uint256"
            },
            {
              "internalType": "address payable",
              "name": "seller",
              "type": "address"
            },
            {
              "internalType": "address payable",
              "name": "owner",
              "type": "address"
            },
            {
              "internalType": "uint256",
              "name": "price",
              "type": "uint256"
            },
            {
              "internalType": "bool",
              "name": "sold",
              "type": "bool"
            },
            {
              "internalType": "bool",
              "name": "isSwap",
              "type": "bool"
            }
          ],
          "internalType": "struct NFTMarketplace.MarketItem[]",
          "name": "",
          "type": "tuple[]"
        }
      ],
      "stateMutability": "view",
      "type": "function"
    },
    {
      "inputs": [
        {
          "internalType": "uint256",
          "name": "tokenId",
          "type": "uint256"
        }
      ],
      "name": "getApproved",
      "outputs": [
        {
          "internalType": "address",
          "name": "",
          "type": "address"
        }
      ],
      "stateMutability": "view",
      "type": "function"
    },
    {
      "inputs": [
        {
          "internalType": "uint256",
          "name": "_contractId",
          "type": "uint256"
        }
      ],
      "name": "getContract",
      "outputs": [
        {
          "internalType": "address",
          "name": "sender",
          "type": "address"
        },
        {
          "internalType": "address",
          "name": "receiver",
          "type": "address"
        },
        {
          "internalType": "uint256",
          "name": "tokenId",
          "type": "uint256"
        },
        {
          "internalType": "uint256",
          "name": "requestedId",
          "type": "uint256"
        },
        {
          "internalType": "string",
          "name": "hashlock",
          "type": "string"
        },
        {
          "internalType": "bool",
          "name": "withdrawn",
          "type": "bool"
        },
        {
          "internalType": "bool",
          "name": "refunded",
          "type": "bool"
        },
        {
          "internalType": "string",
          "name": "preimage",
          "type": "string"
        }
      ],
      "stateMutability": "view",
      "type": "function"
    },
    {
      "inputs": [],
      "name": "getListingPrice",
      "outputs": [
        {
          "internalType": "uint256",
          "name": "",
          "type": "uint256"
        }
      ],
      "stateMutability": "view",
      "type": "function"
    },
    {
      "inputs": [
        {
          "internalType": "uint256",
          "name": "",
          "type": "uint256"
        }
      ],
      "name": "idToMarketItem",
      "outputs": [
        {
          "internalType": "uint256",
          "name": "tokenId",
          "type": "uint256"
        },
        {
          "internalType": "address payable",
          "name": "seller",
          "type": "address"
        },
        {
          "internalType": "address payable",
          "name": "owner",
          "type": "address"
        },
        {
          "internalType": "uint256",
          "name": "price",
          "type": "uint256"
        },
        {
          "internalType": "bool",
          "name": "sold",
          "type": "bool"
        },
        {
          "internalType": "bool",
          "name": "isSwap",
          "type": "bool"
        }
      ],
      "stateMutability": "view",
      "type": "function"
    },
    {
      "inputs": [
        {
          "internalType": "address",
          "name": "owner",
          "type": "address"
        },
        {
          "internalType": "address",
          "name": "operator",
          "type": "address"
        }
      ],
      "name": "isApprovedForAll",
      "outputs": [
        {
          "internalType": "bool",
          "name": "",
          "type": "bool"
        }
      ],
      "stateMutability": "view",
      "type": "function"
    },
    {
      "inputs": [],
      "name": "name",
      "outputs": [
        {
          "internalType": "string",
          "name": "",
          "type": "string"
        }
      ],
      "stateMutability": "view",
      "type": "function"
    },
    {
      "inputs": [
        {
          "internalType": "address",
          "name": "_receiver",
          "type": "address"
        },
        {
          "internalType": "string",
          "name": "_hashlock",
          "type": "string"
        },
        {
          "internalType": "uint256",
          "name": "_tokenId",
          "type": "uint256"
        },
        {
          "internalType": "uint256",
          "name": "_requestedid",
          "type": "uint256"
        }
      ],
      "name": "newContract",
      "outputs": [
        {
          "internalType": "uint256",
          "name": "_contractId",
          "type": "uint256"
        }
      ],
      "stateMutability": "payable",
      "type": "function"
    },
    {
      "inputs": [
        {
          "internalType": "uint256",
          "name": "tokenId",
          "type": "uint256"
        }
      ],
      "name": "ownerOf",
      "outputs": [
        {
          "internalType": "address",
          "name": "",
          "type": "address"
        }
      ],
      "stateMutability": "view",
      "type": "function"
    },
    {
      "inputs": [
        {
          "internalType": "uint256",
          "name": "_contractId",
          "type": "uint256"
        }
      ],
      "name": "refund",
      "outputs": [
        {
          "internalType": "bool",
          "name": "",
          "type": "bool"
        }
      ],
      "stateMutability": "nonpayable",
      "type": "function"
    },
    {
      "inputs": [
        {
          "internalType": "uint256",
          "name": "tokenId",
          "type": "uint256"
        },
        {
          "internalType": "uint256",
          "name": "price",
          "type": "uint256"
        }
      ],
      "name": "resellToken",
      "outputs": [],
      "stateMutability": "payable",
      "type": "function"
    },
    {
      "inputs": [
        {
          "internalType": "address",
          "name": "from",
          "type": "address"
        },
        {
          "internalType": "address",
          "name": "to",
          "type": "address"
        },
        {
          "internalType": "uint256",
          "name": "tokenId",
          "type": "uint256"
        }
      ],
      "name": "safeTransferFrom",
      "outputs": [],
      "stateMutability": "nonpayable",
      "type": "function"
    },
    {
      "inputs": [
        {
          "internalType": "address",
          "name": "from",
          "type": "address"
        },
        {
          "internalType": "address",
          "name": "to",
          "type": "address"
        },
        {
          "internalType": "uint256",
          "name": "tokenId",
          "type": "uint256"
        },
        {
          "internalType": "bytes",
          "name": "data",
          "type": "bytes"
        }
      ],
      "name": "safeTransferFrom",
      "outputs": [],
      "stateMutability": "nonpayable",
      "type": "function"
    },
    {
      "inputs": [
        {
          "internalType": "address",
          "name": "operator",
          "type": "address"
        },
        {
          "internalType": "bool",
          "name": "approved",
          "type": "bool"
        }
      ],
      "name": "setApprovalForAll",
      "outputs": [],
      "stateMutability": "nonpayable",
      "type": "function"
    },
    {
      "inputs": [
        {
          "internalType": "bytes4",
          "name": "interfaceId",
          "type": "bytes4"
        }
      ],
      "name": "supportsInterface",
      "outputs": [
        {
          "internalType": "bool",
          "name": "",
          "type": "bool"
        }
      ],
      "stateMutability": "view",
      "type": "function"
    },
    {
      "inputs": [
        {
          "internalType": "uint256",
          "name": "tokenId",
          "type": "uint256"
        }
      ],
      "name": "swapTokentoMarketPlace",
      "outputs": [],
      "stateMutability": "payable",
      "type": "function"
    },
    {
      "inputs": [],
      "name": "symbol",
      "outputs": [
        {
          "internalType": "string",
          "name": "",
          "type": "string"
        }
      ],
      "stateMutability": "view",
      "type": "function"
    },
    {
      "inputs": [
        {
          "internalType": "uint256",
          "name": "tokenId",
          "type": "uint256"
        }
      ],
      "name": "tokenURI",
      "outputs": [
        {
          "internalType": "string",
          "name": "",
          "type": "string"
        }
      ],
      "stateMutability": "view",
      "type": "function"
    },
    {
      "inputs": [
        {
          "internalType": "address",
          "name": "from",
          "type": "address"
        },
        {
          "internalType": "address",
          "name": "to",
          "type": "address"
        },
        {
          "internalType": "uint256",
          "name": "tokenId",
          "type": "uint256"
        }
      ],
      "name": "transferFrom",
      "outputs": [],
      "stateMutability": "nonpayable",
      "type": "function"
    },
    {
      "inputs": [
        {
          "internalType": "uint256",
          "name": "_listingPrice",
          "type": "uint256"
        }
      ],
      "name": "updateListingPrice",
      "outputs": [],
      "stateMutability": "payable",
      "type": "function"
    },
    {
      "inputs": [
        {
          "internalType": "uint256",
          "name": "_tokenId",
          "type": "uint256"
        },
        {
          "internalType": "uint256",
          "name": "_requestedid",
          "type": "uint256"
        }
      ],
      "name": "withdraw",
      "outputs": [
        {
          "internalType": "bool",
          "name": "",
          "type": "bool"
        }
      ],
      "stateMutability": "payable",
      "type": "function"
    }
  ],
  "bytecode": "0x60806040526603297345d9a0006009556000600c556602738d24e52000600e553480156200002c57600080fd5b506040518060400160405280601081526020017f4d657461766572736520546f6b656e73000000000000000000000000000000008152506040518060400160405280600481526020017f4d455454000000000000000000000000000000000000000000000000000000008152508160009081620000aa919062000380565b508060019081620000bc919062000380565b50505033600a60006101000a81548173ffffffffffffffffffffffffffffffffffffffff021916908373ffffffffffffffffffffffffffffffffffffffff16021790555062000467565b600081519050919050565b7f4e487b7100000000000000000000000000000000000000000000000000000000600052604160045260246000fd5b7f4e487b7100000000000000000000000000000000000000000000000000000000600052602260045260246000fd5b600060028204905060018216806200018857607f821691505b6020821081036200019e576200019d62000140565b5b50919050565b60008190508160005260206000209050919050565b60006020601f8301049050919050565b600082821b905092915050565b600060088302620002087fffffffffffffffffffffffffffffffffffffffffffffffffffffffffffffffff82620001c9565b620002148683620001c9565b95508019841693508086168417925050509392505050565b6000819050919050565b6000819050919050565b6000620002616200025b62000255846200022c565b62000236565b6200022c565b9050919050565b6000819050919050565b6200027d8362000240565b620002956200028c8262000268565b848454620001d6565b825550505050565b600090565b620002ac6200029d565b620002b981848462000272565b505050565b5b81811015620002e157620002d5600082620002a2565b600181019050620002bf565b5050565b601f8211156200033057620002fa81620001a4565b6200030584620001b9565b8101602085101562000315578190505b6200032d6200032485620001b9565b830182620002be565b50505b505050565b600082821c905092915050565b6000620003556000198460080262000335565b1980831691505092915050565b600062000370838362000342565b9150826002028217905092915050565b6200038b8262000106565b67ffffffffffffffff811115620003a757620003a662000111565b5b620003b382546200016f565b620003c0828285620002e5565b600060209050601f831160018114620003f85760008415620003e3578287015190505b620003ef858262000362565b8655506200045f565b601f1984166200040886620001a4565b60005b8281101562000432578489015182556001820191506020850194506020810190506200040b565b868310156200045257848901516200044e601f89168262000342565b8355505b6001600288020188555050505b505050505050565b615ea980620004776000396000f3fe6080604052600436106101f95760003560e01c80636ebc8c861161010d578063ae677aa3116100a0578063e219fc751161006f578063e219fc7514610765578063e3b1d3d314610781578063e61a70c0146107aa578063e985e9c5146107ec578063eb707a0314610829576101f9565b8063ae677aa3146106c7578063b88d4fde146106e3578063be9af5361461070c578063c87b56dd14610728576101f9565b806395d89b41116100dc57806395d89b411461062c578063a22cb46514610657578063aa46a40014610680578063ac4a46e3146106ab576101f9565b80636ebc8c861461055057806370a082311461059457806372b3b620146105d157806387506a0d14610601576101f9565b806323b872dd11610190578063441a3e701161015f578063441a3e701461044957806345f8fa8014610479578063474da79a146104a45780636352211e146104e85780636b56211f14610525576101f9565b806323b872dd1461038a578063267298ae146103b3578063278ecde1146103e357806342842e0e14610420576101f9565b80630a1e0f31116101cc5780630a1e0f31146102cc5780630f08efe01461030957806312e8558514610334578063202e37401461035f576101f9565b806301ffc9a7146101fe57806306fdde031461023b578063081812fc14610266578063095ea7b3146102a3575b600080fd5b34801561020a57600080fd5b50610225600480360381019061022091906140ba565b610845565b6040516102329190614102565b60405180910390f35b34801561024757600080fd5b50610250610927565b60405161025d91906141ad565b60405180910390f35b34801561027257600080fd5b5061028d60048036038101906102889190614205565b6109b9565b60405161029a9190614273565b60405180910390f35b3480156102af57600080fd5b506102ca60048036038101906102c591906142ba565b6109ff565b005b3480156102d857600080fd5b506102f360048036038101906102ee91906142fa565b610b16565b60405161030091906143e5565b60405180910390f35b34801561031557600080fd5b5061031e610bad565b60405161032b9190614561565b60405180910390f35b34801561034057600080fd5b50610349610e6a565b6040516103569190614592565b60405180910390f35b34801561036b57600080fd5b50610374610e74565b6040516103819190614561565b60405180910390f35b34801561039657600080fd5b506103b160048036038101906103ac91906145ad565b61117b565b005b6103cd60048036038101906103c89190614735565b6111db565b6040516103da9190614592565b60405180910390f35b3480156103ef57600080fd5b5061040a60048036038101906104059190614205565b611478565b6040516104179190614102565b60405180910390f35b34801561042c57600080fd5b50610447600480360381019061044291906145ad565b6116dc565b005b610463600480360381019061045e91906147b8565b6116fc565b6040516104709190614102565b60405180910390f35b34801561048557600080fd5b5061048e611a11565b60405161049b9190614561565b60405180910390f35b3480156104b057600080fd5b506104cb60048036038101906104c69190614205565b611d18565b6040516104df9897969594939291906147f8565b60405180910390f35b3480156104f457600080fd5b5061050f600480360381019061050a9190614205565b611eca565b60405161051c9190614273565b60405180910390f35b34801561053157600080fd5b5061053a611f7b565b6040516105479190614592565b60405180910390f35b34801561055c57600080fd5b5061057760048036038101906105729190614205565b611f91565b60405161058b989796959493929190614884565b60405180910390f35b3480156105a057600080fd5b506105bb60048036038101906105b691906142fa565b6121be565b6040516105c89190614592565b60405180910390f35b6105eb60048036038101906105e69190614910565b612275565b6040516105f89190614592565b60405180910390f35b34801561060d57600080fd5b506106166122b7565b6040516106239190614592565b60405180910390f35b34801561063857600080fd5b506106416122c3565b60405161064e91906141ad565b60405180910390f35b34801561066357600080fd5b5061067e60048036038101906106799190614998565b612355565b005b34801561068c57600080fd5b5061069561236b565b6040516106a29190614592565b60405180910390f35b6106c560048036038101906106c09190614205565b612377565b005b6106e160048036038101906106dc9190614205565b612550565b005b3480156106ef57600080fd5b5061070a60048036038101906107059190614a79565b61267a565b005b61072660048036038101906107219190614205565b6126dc565b005b34801561073457600080fd5b5061074f600480360381019061074a9190614205565b61291e565b60405161075c91906141ad565b60405180910390f35b61077f600480360381019061077a91906147b8565b612a30565b005b34801561078d57600080fd5b506107a860048036038101906107a39190614205565b612c25565b005b3480156107b657600080fd5b506107d160048036038101906107cc9190614205565b612c2f565b6040516107e396959493929190614b0b565b60405180910390f35b3480156107f857600080fd5b50610813600480360381019061080e9190614b6c565b612cc5565b6040516108209190614102565b60405180910390f35b610843600480360381019061083e91906142fa565b612d59565b005b60007f80ac58cd000000000000000000000000000000000000000000000000000000007bffffffffffffffffffffffffffffffffffffffffffffffffffffffff1916827bffffffffffffffffffffffffffffffffffffffffffffffffffffffff1916148061091057507f5b5e139f000000000000000000000000000000000000000000000000000000007bffffffffffffffffffffffffffffffffffffffffffffffffffffffff1916827bffffffffffffffffffffffffffffffffffffffffffffffffffffffff1916145b80610920575061091f82612de1565b5b9050919050565b60606000805461093690614bdb565b80601f016020809104026020016040519081016040528092919081815260200182805461096290614bdb565b80156109af5780601f10610984576101008083540402835291602001916109af565b820191906000526020600020905b81548152906001019060200180831161099257829003601f168201915b5050505050905090565b60006109c482612e4b565b6004600083815260200190815260200160002060009054906101000a900473ffffffffffffffffffffffffffffffffffffffff169050919050565b6000610a0a82611eca565b90508073ffffffffffffffffffffffffffffffffffffffff168373ffffffffffffffffffffffffffffffffffffffff1603610a7a576040517f08c379a0000000000000000000000000000000000000000000000000000000008152600401610a7190614c7e565b60405180910390fd5b8073ffffffffffffffffffffffffffffffffffffffff16610a99612e96565b73ffffffffffffffffffffffffffffffffffffffff161480610ac85750610ac781610ac2612e96565b612cc5565b5b610b07576040517f08c379a0000000000000000000000000000000000000000000000000000000008152600401610afe90614d10565b60405180910390fd5b610b118383612e9e565b505050565b6060601060008373ffffffffffffffffffffffffffffffffffffffff1673ffffffffffffffffffffffffffffffffffffffff168152602001908152602001600020805480602002602001604051908101604052809291908181526020018280548015610ba157602002820191906000526020600020905b815481526020019060010190808311610b8d575b50505050509050919050565b60606000610bbb6007612f57565b90506000610bc96008612f57565b610bd36007612f57565b610bdd9190614d5f565b90506000808267ffffffffffffffff811115610bfc57610bfb61460a565b5b604051908082528060200260200182016040528015610c3557816020015b610c22613fe8565b815260200190600190039081610c1a5790505b50905060005b84811015610e5f573073ffffffffffffffffffffffffffffffffffffffff16600b6000600184610c6b9190614d93565b815260200190815260200160002060020160009054906101000a900473ffffffffffffffffffffffffffffffffffffffff1673ffffffffffffffffffffffffffffffffffffffff16148015610ced5750600b6000600183610ccc9190614d93565b815260200190815260200160002060040160009054906101000a900460ff16155b15610e4c576000600182610d019190614d93565b90506000600b60008381526020019081526020016000209050806040518060c0016040529081600082015481526020016001820160009054906101000a900473ffffffffffffffffffffffffffffffffffffffff1673ffffffffffffffffffffffffffffffffffffffff1673ffffffffffffffffffffffffffffffffffffffff1681526020016002820160009054906101000a900473ffffffffffffffffffffffffffffffffffffffff1673ffffffffffffffffffffffffffffffffffffffff1673ffffffffffffffffffffffffffffffffffffffff168152602001600382015481526020016004820160009054906101000a900460ff161515151581526020016004820160019054906101000a900460ff161515151581525050848681518110610e2f57610e2e614dc7565b5b6020026020010181905250600185610e479190614d93565b945050505b8080610e5790614df6565b915050610c3b565b508094505050505090565b6000600954905090565b60606000610e826007612f57565b905060008060005b83811015610f2a573373ffffffffffffffffffffffffffffffffffffffff16600b6000600184610eba9190614d93565b815260200190815260200160002060020160009054906101000a900473ffffffffffffffffffffffffffffffffffffffff1673ffffffffffffffffffffffffffffffffffffffff1603610f1757600183610f149190614d93565b92505b8080610f2290614df6565b915050610e8a565b5060008267ffffffffffffffff811115610f4757610f4661460a565b5b604051908082528060200260200182016040528015610f8057816020015b610f6d613fe8565b815260200190600190039081610f655790505b50905060005b84811015611170573373ffffffffffffffffffffffffffffffffffffffff16600b6000600184610fb69190614d93565b815260200190815260200160002060020160009054906101000a900473ffffffffffffffffffffffffffffffffffffffff1673ffffffffffffffffffffffffffffffffffffffff160361115d5760006001826110129190614d93565b90506000600b60008381526020019081526020016000209050806040518060c0016040529081600082015481526020016001820160009054906101000a900473ffffffffffffffffffffffffffffffffffffffff1673ffffffffffffffffffffffffffffffffffffffff1673ffffffffffffffffffffffffffffffffffffffff1681526020016002820160009054906101000a900473ffffffffffffffffffffffffffffffffffffffff1673ffffffffffffffffffffffffffffffffffffffff1673ffffffffffffffffffffffffffffffffffffffff168152602001600382015481526020016004820160009054906101000a900460ff161515151581526020016004820160019054906101000a900460ff1615151515815250508486815181106111405761113f614dc7565b5b60200260200101819052506001856111589190614d93565b945050505b808061116890614df6565b915050610f86565b508094505050505090565b61118c611186612e96565b82612f65565b6111cb576040517f08c379a00000000000000000000000000000000000000000000000000000000081526004016111c290614eb0565b60405180910390fd5b6111d6838383612ffa565b505050565b6000600c5490506111ed333085612ffa565b6111f681613260565b6040518061010001604052803373ffffffffffffffffffffffffffffffffffffffff1681526020018673ffffffffffffffffffffffffffffffffffffffff16815260200184815260200185815260200183815260200160001515815260200160001515815260200185815250600f6000600c54815260200190815260200160002060008201518160000160006101000a81548173ffffffffffffffffffffffffffffffffffffffff021916908373ffffffffffffffffffffffffffffffffffffffff16021790555060208201518160010160006101000a81548173ffffffffffffffffffffffffffffffffffffffff021916908373ffffffffffffffffffffffffffffffffffffffff160217905550604082015181600201556060820151816003019081611324919061507c565b506080820151816004015560a08201518160050160006101000a81548160ff02191690831515021790555060c08201518160050160016101000a81548160ff02191690831515021790555060e0820151816006019081611384919061507c565b50905050600c600081548092919061139b90614df6565b9190505550601060003373ffffffffffffffffffffffffffffffffffffffff1673ffffffffffffffffffffffffffffffffffffffff1681526020019081526020016000208190806001815401808255809150506001900390600052602060002001600090919091909150558473ffffffffffffffffffffffffffffffffffffffff163373ffffffffffffffffffffffffffffffffffffffff16827ff02095b678ace2aeca14926ed59473de15ecad8c0f5a6eff75a7f96e85d168368688876040516114689392919061514e565b60405180910390a4949350505050565b600081611484816132f9565b6114c3576040517f08c379a00000000000000000000000000000000000000000000000000000000081526004016114ba906151d8565b60405180910390fd5b823373ffffffffffffffffffffffffffffffffffffffff16600f600083815260200190815260200160002060000160009054906101000a900473ffffffffffffffffffffffffffffffffffffffff1673ffffffffffffffffffffffffffffffffffffffff1614611568576040517f08c379a000000000000000000000000000000000000000000000000000000000815260040161155f90615244565b60405180910390fd5b60001515600f600083815260200190815260200160002060050160019054906101000a900460ff161515146115d2576040517f08c379a00000000000000000000000000000000000000000000000000000000081526004016115c9906152b0565b60405180910390fd5b60001515600f600083815260200190815260200160002060050160009054906101000a900460ff1615151461163c576040517f08c379a00000000000000000000000000000000000000000000000000000000081526004016116339061531c565b60405180910390fd5b6000600f6000868152602001908152602001600020905060018160050160016101000a81548160ff0219169083151502179055506116a3308260000160009054906101000a900473ffffffffffffffffffffffffffffffffffffffff168360020154612ffa565b847f019f57bc1cf49f7d31b6a53f15255ae62cec31145c6727f0be6d246c101f373d60405160405180910390a260019350505050919050565b6116f78383836040518060200160405280600081525061267a565b505050565b60008060005b81811161175f5784600f600083815260200190815260200160002060020154148015611743575083600f600083815260200190815260200160002060040154145b1561174c578091505b808061175790614df6565b915050611702565b506000600f600083815260200190815260200160002090506117b6600b600086815260200190815260200160002060020160009054906101000a900473ffffffffffffffffffffffffffffffffffffffff16613368565b6117f5600b600086815260200190815260200160002060010160009054906101000a900473ffffffffffffffffffffffffffffffffffffffff16613368565b611821600b600086815260200190815260200160002060040160009054906101000a900460ff16613401565b33600b600087815260200190815260200160002060020160006101000a81548173ffffffffffffffffffffffffffffffffffffffff021916908373ffffffffffffffffffffffffffffffffffffffff1602179055508060000160009054906101000a900473ffffffffffffffffffffffffffffffffffffffff16600b600086815260200190815260200160002060020160006101000a81548173ffffffffffffffffffffffffffffffffffffffff021916908373ffffffffffffffffffffffffffffffffffffffff1602179055506000600b600086815260200190815260200160002060010160006101000a81548173ffffffffffffffffffffffffffffffffffffffff021916908373ffffffffffffffffffffffffffffffffffffffff1602179055506001600b600086815260200190815260200160002060040160006101000a81548160ff02191690831515021790555061197f303386612ffa565b6119ae338260000160009054906101000a900473ffffffffffffffffffffffffffffffffffffffff1686612ffa565b6119b9303387612ffa565b60018160050160006101000a81548160ff021916908315150217905550600c547f1f1d15a0dc959b0b4700d76fb0cb82771c84dfd766a86e6753bb5326f1308da060405160405180910390a260019250505092915050565b60606000611a1f6007612f57565b905060008060005b83811015611ac7573373ffffffffffffffffffffffffffffffffffffffff16600b6000600184611a579190614d93565b815260200190815260200160002060010160009054906101000a900473ffffffffffffffffffffffffffffffffffffffff1673ffffffffffffffffffffffffffffffffffffffff1603611ab457600183611ab19190614d93565b92505b8080611abf90614df6565b915050611a27565b5060008267ffffffffffffffff811115611ae457611ae361460a565b5b604051908082528060200260200182016040528015611b1d57816020015b611b0a613fe8565b815260200190600190039081611b025790505b50905060005b84811015611d0d573373ffffffffffffffffffffffffffffffffffffffff16600b6000600184611b539190614d93565b815260200190815260200160002060010160009054906101000a900473ffffffffffffffffffffffffffffffffffffffff1673ffffffffffffffffffffffffffffffffffffffff1603611cfa576000600182611baf9190614d93565b90506000600b60008381526020019081526020016000209050806040518060c0016040529081600082015481526020016001820160009054906101000a900473ffffffffffffffffffffffffffffffffffffffff1673ffffffffffffffffffffffffffffffffffffffff1673ffffffffffffffffffffffffffffffffffffffff1681526020016002820160009054906101000a900473ffffffffffffffffffffffffffffffffffffffff1673ffffffffffffffffffffffffffffffffffffffff1673ffffffffffffffffffffffffffffffffffffffff168152602001600382015481526020016004820160009054906101000a900460ff161515151581526020016004820160019054906101000a900460ff161515151581525050848681518110611cdd57611cdc614dc7565b5b6020026020010181905250600185611cf59190614d93565b945050505b8080611d0590614df6565b915050611b23565b508094505050505090565b600f6020528060005260406000206000915090508060000160009054906101000a900473ffffffffffffffffffffffffffffffffffffffff16908060010160009054906101000a900473ffffffffffffffffffffffffffffffffffffffff1690806002015490806003018054611d8d90614bdb565b80601f0160208091040260200160405190810160405280929190818152602001828054611db990614bdb565b8015611e065780601f10611ddb57610100808354040283529160200191611e06565b820191906000526020600020905b815481529060010190602001808311611de957829003601f168201915b5050505050908060040154908060050160009054906101000a900460ff16908060050160019054906101000a900460ff1690806006018054611e4790614bdb565b80601f0160208091040260200160405190810160405280929190818152602001828054611e7390614bdb565b8015611ec05780601f10611e9557610100808354040283529160200191611ec0565b820191906000526020600020905b815481529060010190602001808311611ea357829003601f168201915b5050505050905088565b6000806002600084815260200190815260200160002060009054906101000a900473ffffffffffffffffffffffffffffffffffffffff169050600073ffffffffffffffffffffffffffffffffffffffff168173ffffffffffffffffffffffffffffffffffffffff1603611f72576040517f08c379a0000000000000000000000000000000000000000000000000000000008152600401611f6990615388565b60405180910390fd5b80915050919050565b60006001600c54611f8c9190614d5f565b905090565b6000806000806060600080606060001515611fab8a6132f9565b151503611ff25760008060008060008060405180602001604052806000815250919060405180602001604052806000815250975097509750975097509750975097506121b3565b6000600f60008b815260200190815260200160002090508060000160009054906101000a900473ffffffffffffffffffffffffffffffffffffffff168160010160009054906101000a900473ffffffffffffffffffffffffffffffffffffffff1682600201548360040154846003018560050160009054906101000a900460ff168660050160019054906101000a900460ff168760060183805461209590614bdb565b80601f01602080910402602001604051908101604052809291908181526020018280546120c190614bdb565b801561210e5780601f106120e35761010080835404028352916020019161210e565b820191906000526020600020905b8154815290600101906020018083116120f157829003601f168201915b5050505050935080805461212190614bdb565b80601f016020809104026020016040519081016040528092919081815260200182805461214d90614bdb565b801561219a5780601f1061216f5761010080835404028352916020019161219a565b820191906000526020600020905b81548152906001019060200180831161217d57829003601f168201915b5050505050905098509850985098509850985098509850505b919395975091939597565b60008073ffffffffffffffffffffffffffffffffffffffff168273ffffffffffffffffffffffffffffffffffffffff160361222e576040517f08c379a00000000000000000000000000000000000000000000000000000000081526004016122259061541a565b60405180910390fd5b600360008373ffffffffffffffffffffffffffffffffffffffff1673ffffffffffffffffffffffffffffffffffffffff168152602001908152602001600020549050919050565b6000612281600761349a565b600061228d6007612f57565b905061229933826134b0565b6122a38185613689565b6122ad81846136f6565b8091505092915050565b60088060000154905081565b6060600180546122d290614bdb565b80601f01602080910402602001604051908101604052809291908181526020018280546122fe90614bdb565b801561234b5780601f106123205761010080835404028352916020019161234b565b820191906000526020600020905b81548152906001019060200180831161232e57829003601f168201915b5050505050905090565b612367612360612e96565b8383613924565b5050565b60078060000154905081565b3373ffffffffffffffffffffffffffffffffffffffff16600b600083815260200190815260200160002060020160009054906101000a900473ffffffffffffffffffffffffffffffffffffffff1673ffffffffffffffffffffffffffffffffffffffff161461241b576040517f08c379a0000000000000000000000000000000000000000000000000000000008152600401612412906154ac565b60405180910390fd5b600954341461245f576040517f08c379a00000000000000000000000000000000000000000000000000000000081526004016124569061553e565b60405180910390fd5b6000600b600083815260200190815260200160002060040160006101000a81548160ff02191690831515021790555033600b600083815260200190815260200160002060010160006101000a81548173ffffffffffffffffffffffffffffffffffffffff021916908373ffffffffffffffffffffffffffffffffffffffff16021790555030600b600083815260200190815260200160002060020160006101000a81548173ffffffffffffffffffffffffffffffffffffffff021916908373ffffffffffffffffffffffffffffffffffffffff1602179055506125426008613a90565b61254d333083612ffa565b50565b600a60009054906101000a900473ffffffffffffffffffffffffffffffffffffffff1673ffffffffffffffffffffffffffffffffffffffff163373ffffffffffffffffffffffffffffffffffffffff16146125e0576040517f08c379a00000000000000000000000000000000000000000000000000000000081526004016125d7906155d0565b60405180910390fd5b3373ffffffffffffffffffffffffffffffffffffffff16600a60009054906101000a900473ffffffffffffffffffffffffffffffffffffffff1673ffffffffffffffffffffffffffffffffffffffff1614612670576040517f08c379a000000000000000000000000000000000000000000000000000000000815260040161266790615662565b60405180910390fd5b8060098190555050565b61268b612685612e96565b83612f65565b6126ca576040517f08c379a00000000000000000000000000000000000000000000000000000000081526004016126c190614eb0565b60405180910390fd5b6126d684848484613aec565b50505050565b6000600b6000838152602001908152602001600020600301549050803414612739576040517f08c379a0000000000000000000000000000000000000000000000000000000008152600401612730906156f4565b60405180910390fd5b33600b600084815260200190815260200160002060020160006101000a81548173ffffffffffffffffffffffffffffffffffffffff021916908373ffffffffffffffffffffffffffffffffffffffff1602179055506001600b600084815260200190815260200160002060040160006101000a81548160ff0219169083151502179055506000600b600084815260200190815260200160002060010160006101000a81548173ffffffffffffffffffffffffffffffffffffffff021916908373ffffffffffffffffffffffffffffffffffffffff16021790555061281d600861349a565b612828303384612ffa565b61283230836109ff565b600a60009054906101000a900473ffffffffffffffffffffffffffffffffffffffff1673ffffffffffffffffffffffffffffffffffffffff166108fc6009549081150290604051600060405180830381858888f1935050505015801561289c573d6000803e3d6000fd5b50600b600083815260200190815260200160002060010160009054906101000a900473ffffffffffffffffffffffffffffffffffffffff1673ffffffffffffffffffffffffffffffffffffffff166108fc349081150290604051600060405180830381858888f19350505050158015612919573d6000803e3d6000fd5b505050565b606061292982612e4b565b600060066000848152602001908152602001600020805461294990614bdb565b80601f016020809104026020016040519081016040528092919081815260200182805461297590614bdb565b80156129c25780601f10612997576101008083540402835291602001916129c2565b820191906000526020600020905b8154815290600101906020018083116129a557829003601f168201915b5050505050905060006129d3613b48565b905060008151036129e8578192505050612a2b565b600082511115612a1d578082604051602001612a05929190615750565b60405160208183030381529060405292505050612a2b565b612a2684613b5f565b925050505b919050565b3373ffffffffffffffffffffffffffffffffffffffff16600b600084815260200190815260200160002060020160009054906101000a900473ffffffffffffffffffffffffffffffffffffffff1673ffffffffffffffffffffffffffffffffffffffff1614612ad4576040517f08c379a0000000000000000000000000000000000000000000000000000000008152600401612acb906154ac565b60405180910390fd5b6009543414612b18576040517f08c379a0000000000000000000000000000000000000000000000000000000008152600401612b0f9061553e565b60405180910390fd5b6000600b600084815260200190815260200160002060040160006101000a81548160ff02191690831515021790555080600b60008481526020019081526020016000206003018190555033600b600084815260200190815260200160002060010160006101000a81548173ffffffffffffffffffffffffffffffffffffffff021916908373ffffffffffffffffffffffffffffffffffffffff16021790555030600b600084815260200190815260200160002060020160006101000a81548173ffffffffffffffffffffffffffffffffffffffff021916908373ffffffffffffffffffffffffffffffffffffffff160217905550612c166008613a90565b612c21333084612ffa565b5050565b80600d8190555050565b600b6020528060005260406000206000915090508060000154908060010160009054906101000a900473ffffffffffffffffffffffffffffffffffffffff16908060020160009054906101000a900473ffffffffffffffffffffffffffffffffffffffff16908060030154908060040160009054906101000a900460ff16908060040160019054906101000a900460ff16905086565b6000600560008473ffffffffffffffffffffffffffffffffffffffff1673ffffffffffffffffffffffffffffffffffffffff16815260200190815260200160002060008373ffffffffffffffffffffffffffffffffffffffff1673ffffffffffffffffffffffffffffffffffffffff16815260200190815260200160002060009054906101000a900460ff16905092915050565b600d54341015612d6857600080fd5b612d7181613bc7565b73ffffffffffffffffffffffffffffffffffffffff163373ffffffffffffffffffffffffffffffffffffffff1614612dde576040517f08c379a0000000000000000000000000000000000000000000000000000000008152600401612dd5906157e6565b60405180910390fd5b50565b60007f01ffc9a7000000000000000000000000000000000000000000000000000000007bffffffffffffffffffffffffffffffffffffffffffffffffffffffff1916827bffffffffffffffffffffffffffffffffffffffffffffffffffffffff1916149050919050565b612e5481613c3f565b612e93576040517f08c379a0000000000000000000000000000000000000000000000000000000008152600401612e8a90615388565b60405180910390fd5b50565b600033905090565b816004600083815260200190815260200160002060006101000a81548173ffffffffffffffffffffffffffffffffffffffff021916908373ffffffffffffffffffffffffffffffffffffffff160217905550808273ffffffffffffffffffffffffffffffffffffffff16612f1183611eca565b73ffffffffffffffffffffffffffffffffffffffff167f8c5be1e5ebec7d5bd14f71427d1e84f3dd0314c0f7b2291e5b200ac8c7c3b92560405160405180910390a45050565b600081600001549050919050565b600080612f7183611eca565b90508073ffffffffffffffffffffffffffffffffffffffff168473ffffffffffffffffffffffffffffffffffffffff161480612fb35750612fb28185612cc5565b5b80612ff157508373ffffffffffffffffffffffffffffffffffffffff16612fd9846109b9565b73ffffffffffffffffffffffffffffffffffffffff16145b91505092915050565b8273ffffffffffffffffffffffffffffffffffffffff1661301a82611eca565b73ffffffffffffffffffffffffffffffffffffffff1614613070576040517f08c379a000000000000000000000000000000000000000000000000000000000815260040161306790615878565b60405180910390fd5b600073ffffffffffffffffffffffffffffffffffffffff168273ffffffffffffffffffffffffffffffffffffffff16036130df576040517f08c379a00000000000000000000000000000000000000000000000000000000081526004016130d69061590a565b60405180910390fd5b6130ea838383613cab565b6130f5600082612e9e565b6001600360008573ffffffffffffffffffffffffffffffffffffffff1673ffffffffffffffffffffffffffffffffffffffff16815260200190815260200160002060008282546131459190614d5f565b925050819055506001600360008473ffffffffffffffffffffffffffffffffffffffff1673ffffffffffffffffffffffffffffffffffffffff168152602001908152602001600020600082825461319c9190614d93565b92505081905550816002600083815260200190815260200160002060006101000a81548173ffffffffffffffffffffffffffffffffffffffff021916908373ffffffffffffffffffffffffffffffffffffffff160217905550808273ffffffffffffffffffffffffffffffffffffffff168473ffffffffffffffffffffffffffffffffffffffff167fddf252ad1be2c89b69c2b068fc378daa952ba7f163c4a11628f55a4df523b3ef60405160405180910390a461325b838383613cb0565b505050565b6132f6816040516024016132749190614592565b6040516020818303038152906040527ff82c50f1000000000000000000000000000000000000000000000000000000007bffffffffffffffffffffffffffffffffffffffffffffffffffffffff19166020820180517bffffffffffffffffffffffffffffffffffffffffffffffffffffffff8381831617835250505050613cb5565b50565b60008073ffffffffffffffffffffffffffffffffffffffff16600f600084815260200190815260200160002060000160009054906101000a900473ffffffffffffffffffffffffffffffffffffffff1673ffffffffffffffffffffffffffffffffffffffff1614159050919050565b6133fe8160405160240161337c9190614273565b6040516020818303038152906040527f2c2ecbc2000000000000000000000000000000000000000000000000000000007bffffffffffffffffffffffffffffffffffffffffffffffffffffffff19166020820180517bffffffffffffffffffffffffffffffffffffffffffffffffffffffff8381831617835250505050613cb5565b50565b613497816040516024016134159190614102565b6040516020818303038152906040527f32458eed000000000000000000000000000000000000000000000000000000007bffffffffffffffffffffffffffffffffffffffffffffffffffffffff19166020820180517bffffffffffffffffffffffffffffffffffffffffffffffffffffffff8381831617835250505050613cb5565b50565b6001816000016000828254019250508190555050565b600073ffffffffffffffffffffffffffffffffffffffff168273ffffffffffffffffffffffffffffffffffffffff160361351f576040517f08c379a000000000000000000000000000000000000000000000000000000000815260040161351690615976565b60405180910390fd5b61352881613c3f565b15613568576040517f08c379a000000000000000000000000000000000000000000000000000000000815260040161355f906159e2565b60405180910390fd5b61357460008383613cab565b6001600360008473ffffffffffffffffffffffffffffffffffffffff1673ffffffffffffffffffffffffffffffffffffffff16815260200190815260200160002060008282546135c49190614d93565b92505081905550816002600083815260200190815260200160002060006101000a81548173ffffffffffffffffffffffffffffffffffffffff021916908373ffffffffffffffffffffffffffffffffffffffff160217905550808273ffffffffffffffffffffffffffffffffffffffff16600073ffffffffffffffffffffffffffffffffffffffff167fddf252ad1be2c89b69c2b068fc378daa952ba7f163c4a11628f55a4df523b3ef60405160405180910390a461368560008383613cb0565b5050565b61369282613c3f565b6136d1576040517f08c379a00000000000000000000000000000000000000000000000000000000081526004016136c890615a74565b60405180910390fd5b806006600084815260200190815260200160002090816136f1919061507c565b505050565b60008111613739576040517f08c379a000000000000000000000000000000000000000000000000000000000815260040161373090615ae0565b60405180910390fd5b600954341461377d576040517f08c379a00000000000000000000000000000000000000000000000000000000081526004016137749061553e565b60405180910390fd5b6040518060c001604052808381526020013373ffffffffffffffffffffffffffffffffffffffff1681526020013073ffffffffffffffffffffffffffffffffffffffff16815260200182815260200160001515815260200160001515815250600b60008481526020019081526020016000206000820151816000015560208201518160010160006101000a81548173ffffffffffffffffffffffffffffffffffffffff021916908373ffffffffffffffffffffffffffffffffffffffff16021790555060408201518160020160006101000a81548173ffffffffffffffffffffffffffffffffffffffff021916908373ffffffffffffffffffffffffffffffffffffffff1602179055506060820151816003015560808201518160040160006101000a81548160ff02191690831515021790555060a08201518160040160016101000a81548160ff0219169083151502179055509050506138df333084612ffa565b817f538153ed6048ec0057b06893633e5c91bd15b5456c7598a4ad59ed40e506cb8d333084600080604051613918959493929190615b00565b60405180910390a25050565b8173ffffffffffffffffffffffffffffffffffffffff168373ffffffffffffffffffffffffffffffffffffffff1603613992576040517f08c379a000000000000000000000000000000000000000000000000000000000815260040161398990615b9f565b60405180910390fd5b80600560008573ffffffffffffffffffffffffffffffffffffffff1673ffffffffffffffffffffffffffffffffffffffff16815260200190815260200160002060008473ffffffffffffffffffffffffffffffffffffffff1673ffffffffffffffffffffffffffffffffffffffff16815260200190815260200160002060006101000a81548160ff0219169083151502179055508173ffffffffffffffffffffffffffffffffffffffff168373ffffffffffffffffffffffffffffffffffffffff167f17307eab39ab6107e8899845ad3d59bd9653f200f220920489ca2b5937696c3183604051613a839190614102565b60405180910390a3505050565b60008160000154905060008111613adc576040517f08c379a0000000000000000000000000000000000000000000000000000000008152600401613ad390615c0b565b60405180910390fd5b6001810382600001819055505050565b613af7848484612ffa565b613b0384848484613cde565b613b42576040517f08c379a0000000000000000000000000000000000000000000000000000000008152600401613b3990615c9d565b60405180910390fd5b50505050565b606060405180602001604052806000815250905090565b6060613b6a82612e4b565b6000613b74613b48565b90506000815111613b945760405180602001604052806000815250613bbf565b80613b9e84613e65565b604051602001613baf929190615750565b6040516020818303038152906040525b915050919050565b60008173ffffffffffffffffffffffffffffffffffffffff16638da5cb5b6040518163ffffffff1660e01b8152600401602060405180830381865afa158015613c14573d6000803e3d6000fd5b505050506040513d601f19601f82011682018060405250810190613c389190615cd2565b9050919050565b60008073ffffffffffffffffffffffffffffffffffffffff166002600084815260200190815260200160002060009054906101000a900473ffffffffffffffffffffffffffffffffffffffff1673ffffffffffffffffffffffffffffffffffffffff1614159050919050565b505050565b505050565b60008151905060006a636f6e736f6c652e6c6f679050602083016000808483855afa5050505050565b6000613cff8473ffffffffffffffffffffffffffffffffffffffff16613fc5565b15613e58578373ffffffffffffffffffffffffffffffffffffffff1663150b7a02613d28612e96565b8786866040518563ffffffff1660e01b8152600401613d4a9493929190615d54565b6020604051808303816000875af1925050508015613d8657506040513d601f19601f82011682018060405250810190613d839190615db5565b60015b613e08573d8060008114613db6576040519150601f19603f3d011682016040523d82523d6000602084013e613dbb565b606091505b506000815103613e00576040517f08c379a0000000000000000000000000000000000000000000000000000000008152600401613df790615c9d565b60405180910390fd5b805181602001fd5b63150b7a0260e01b7bffffffffffffffffffffffffffffffffffffffffffffffffffffffff1916817bffffffffffffffffffffffffffffffffffffffffffffffffffffffff191614915050613e5d565b600190505b949350505050565b606060008203613eac576040518060400160405280600181526020017f30000000000000000000000000000000000000000000000000000000000000008152509050613fc0565b600082905060005b60008214613ede578080613ec790614df6565b915050600a82613ed79190615e11565b9150613eb4565b60008167ffffffffffffffff811115613efa57613ef961460a565b5b6040519080825280601f01601f191660200182016040528015613f2c5781602001600182028036833780820191505090505b5090505b60008514613fb957600182613f459190614d5f565b9150600a85613f549190615e42565b6030613f609190614d93565b60f81b818381518110613f7657613f75614dc7565b5b60200101907effffffffffffffffffffffffffffffffffffffffffffffffffffffffffffff1916908160001a905350600a85613fb29190615e11565b9450613f30565b8093505050505b919050565b6000808273ffffffffffffffffffffffffffffffffffffffff163b119050919050565b6040518060c0016040528060008152602001600073ffffffffffffffffffffffffffffffffffffffff168152602001600073ffffffffffffffffffffffffffffffffffffffff168152602001600081526020016000151581526020016000151581525090565b6000604051905090565b600080fd5b600080fd5b60007fffffffff0000000000000000000000000000000000000000000000000000000082169050919050565b61409781614062565b81146140a257600080fd5b50565b6000813590506140b48161408e565b92915050565b6000602082840312156140d0576140cf614058565b5b60006140de848285016140a5565b91505092915050565b60008115159050919050565b6140fc816140e7565b82525050565b600060208201905061411760008301846140f3565b92915050565b600081519050919050565b600082825260208201905092915050565b60005b8381101561415757808201518184015260208101905061413c565b60008484015250505050565b6000601f19601f8301169050919050565b600061417f8261411d565b6141898185614128565b9350614199818560208601614139565b6141a281614163565b840191505092915050565b600060208201905081810360008301526141c78184614174565b905092915050565b6000819050919050565b6141e2816141cf565b81146141ed57600080fd5b50565b6000813590506141ff816141d9565b92915050565b60006020828403121561421b5761421a614058565b5b6000614229848285016141f0565b91505092915050565b600073ffffffffffffffffffffffffffffffffffffffff82169050919050565b600061425d82614232565b9050919050565b61426d81614252565b82525050565b60006020820190506142886000830184614264565b92915050565b61429781614252565b81146142a257600080fd5b50565b6000813590506142b48161428e565b92915050565b600080604083850312156142d1576142d0614058565b5b60006142df858286016142a5565b92505060206142f0858286016141f0565b9150509250929050565b6000602082840312156143105761430f614058565b5b600061431e848285016142a5565b91505092915050565b600081519050919050565b600082825260208201905092915050565b6000819050602082019050919050565b61435c816141cf565b82525050565b600061436e8383614353565b60208301905092915050565b6000602082019050919050565b600061439282614327565b61439c8185614332565b93506143a783614343565b8060005b838110156143d85781516143bf8882614362565b97506143ca8361437a565b9250506001810190506143ab565b5085935050505092915050565b600060208201905081810360008301526143ff8184614387565b905092915050565b600081519050919050565b600082825260208201905092915050565b6000819050602082019050919050565b600061443e82614232565b9050919050565b61444e81614433565b82525050565b61445d816140e7565b82525050565b60c0820160008201516144796000850182614353565b50602082015161448c6020850182614445565b50604082015161449f6040850182614445565b5060608201516144b26060850182614353565b5060808201516144c56080850182614454565b5060a08201516144d860a0850182614454565b50505050565b60006144ea8383614463565b60c08301905092915050565b6000602082019050919050565b600061450e82614407565b6145188185614412565b935061452383614423565b8060005b8381101561455457815161453b88826144de565b9750614546836144f6565b925050600181019050614527565b5085935050505092915050565b6000602082019050818103600083015261457b8184614503565b905092915050565b61458c816141cf565b82525050565b60006020820190506145a76000830184614583565b92915050565b6000806000606084860312156145c6576145c5614058565b5b60006145d4868287016142a5565b93505060206145e5868287016142a5565b92505060406145f6868287016141f0565b9150509250925092565b600080fd5b600080fd5b7f4e487b7100000000000000000000000000000000000000000000000000000000600052604160045260246000fd5b61464282614163565b810181811067ffffffffffffffff821117156146615761466061460a565b5b80604052505050565b600061467461404e565b90506146808282614639565b919050565b600067ffffffffffffffff8211156146a05761469f61460a565b5b6146a982614163565b9050602081019050919050565b82818337600083830152505050565b60006146d86146d384614685565b61466a565b9050828152602081018484840111156146f4576146f3614605565b5b6146ff8482856146b6565b509392505050565b600082601f83011261471c5761471b614600565b5b813561472c8482602086016146c5565b91505092915050565b6000806000806080858703121561474f5761474e614058565b5b600061475d878288016142a5565b945050602085013567ffffffffffffffff81111561477e5761477d61405d565b5b61478a87828801614707565b935050604061479b878288016141f0565b92505060606147ac878288016141f0565b91505092959194509250565b600080604083850312156147cf576147ce614058565b5b60006147dd858286016141f0565b92505060206147ee858286016141f0565b9150509250929050565b60006101008201905061480e600083018b614264565b61481b602083018a614264565b6148286040830189614583565b818103606083015261483a8188614174565b90506148496080830187614583565b61485660a08301866140f3565b61486360c08301856140f3565b81810360e08301526148758184614174565b90509998505050505050505050565b60006101008201905061489a600083018b614264565b6148a7602083018a614264565b6148b46040830189614583565b6148c16060830188614583565b81810360808301526148d38187614174565b90506148e260a08301866140f3565b6148ef60c08301856140f3565b81810360e08301526149018184614174565b90509998505050505050505050565b6000806040838503121561492757614926614058565b5b600083013567ffffffffffffffff8111156149455761494461405d565b5b61495185828601614707565b9250506020614962858286016141f0565b9150509250929050565b614975816140e7565b811461498057600080fd5b50565b6000813590506149928161496c565b92915050565b600080604083850312156149af576149ae614058565b5b60006149bd858286016142a5565b92505060206149ce85828601614983565b9150509250929050565b600067ffffffffffffffff8211156149f3576149f261460a565b5b6149fc82614163565b9050602081019050919050565b6000614a1c614a17846149d8565b61466a565b905082815260208101848484011115614a3857614a37614605565b5b614a438482856146b6565b509392505050565b600082601f830112614a6057614a5f614600565b5b8135614a70848260208601614a09565b91505092915050565b60008060008060808587031215614a9357614a92614058565b5b6000614aa1878288016142a5565b9450506020614ab2878288016142a5565b9350506040614ac3878288016141f0565b925050606085013567ffffffffffffffff811115614ae457614ae361405d565b5b614af087828801614a4b565b91505092959194509250565b614b0581614433565b82525050565b600060c082019050614b206000830189614583565b614b2d6020830188614afc565b614b3a6040830187614afc565b614b476060830186614583565b614b5460808301856140f3565b614b6160a08301846140f3565b979650505050505050565b60008060408385031215614b8357614b82614058565b5b6000614b91858286016142a5565b9250506020614ba2858286016142a5565b9150509250929050565b7f4e487b7100000000000000000000000000000000000000000000000000000000600052602260045260246000fd5b60006002820490506001821680614bf357607f821691505b602082108103614c0657614c05614bac565b5b50919050565b7f4552433732313a20617070726f76616c20746f2063757272656e74206f776e6560008201527f7200000000000000000000000000000000000000000000000000000000000000602082015250565b6000614c68602183614128565b9150614c7382614c0c565b604082019050919050565b60006020820190508181036000830152614c9781614c5b565b9050919050565b7f4552433732313a20617070726f76652063616c6c6572206973206e6f7420746f60008201527f6b656e206f776e6572206e6f7220617070726f76656420666f7220616c6c0000602082015250565b6000614cfa603e83614128565b9150614d0582614c9e565b604082019050919050565b60006020820190508181036000830152614d2981614ced565b9050919050565b7f4e487b7100000000000000000000000000000000000000000000000000000000600052601160045260246000fd5b6000614d6a826141cf565b9150614d75836141cf565b9250828203905081811115614d8d57614d8c614d30565b5b92915050565b6000614d9e826141cf565b9150614da9836141cf565b9250828201905080821115614dc157614dc0614d30565b5b92915050565b7f4e487b7100000000000000000000000000000000000000000000000000000000600052603260045260246000fd5b6000614e01826141cf565b91507fffffffffffffffffffffffffffffffffffffffffffffffffffffffffffffffff8203614e3357614e32614d30565b5b600182019050919050565b7f4552433732313a2063616c6c6572206973206e6f7420746f6b656e206f776e6560008201527f72206e6f7220617070726f766564000000000000000000000000000000000000602082015250565b6000614e9a602e83614128565b9150614ea582614e3e565b604082019050919050565b60006020820190508181036000830152614ec981614e8d565b9050919050565b60008190508160005260206000209050919050565b60006020601f8301049050919050565b600082821b905092915050565b600060088302614f327fffffffffffffffffffffffffffffffffffffffffffffffffffffffffffffffff82614ef5565b614f3c8683614ef5565b95508019841693508086168417925050509392505050565b6000819050919050565b6000614f79614f74614f6f846141cf565b614f54565b6141cf565b9050919050565b6000819050919050565b614f9383614f5e565b614fa7614f9f82614f80565b848454614f02565b825550505050565b600090565b614fbc614faf565b614fc7818484614f8a565b505050565b5b81811015614feb57614fe0600082614fb4565b600181019050614fcd565b5050565b601f8211156150305761500181614ed0565b61500a84614ee5565b81016020851015615019578190505b61502d61502585614ee5565b830182614fcc565b50505b505050565b600082821c905092915050565b600061505360001984600802615035565b1980831691505092915050565b600061506c8383615042565b9150826002028217905092915050565b6150858261411d565b67ffffffffffffffff81111561509e5761509d61460a565b5b6150a88254614bdb565b6150b3828285614fef565b600060209050601f8311600181146150e657600084156150d4578287015190505b6150de8582615060565b865550615146565b601f1984166150f486614ed0565b60005b8281101561511c578489015182556001820191506020850194506020810190506150f7565b868310156151395784890151615135601f891682615042565b8355505b6001600288020188555050505b505050505050565b60006060820190506151636000830186614583565b81810360208301526151758185614174565b90506151846040830184614583565b949350505050565b7f636f6e7472616374496420646f6573206e6f7420657869737400000000000000600082015250565b60006151c2601983614128565b91506151cd8261518c565b602082019050919050565b600060208201905081810360008301526151f1816151b5565b9050919050565b7f726566756e6461626c653a206e6f742073656e64657200000000000000000000600082015250565b600061522e601683614128565b9150615239826151f8565b602082019050919050565b6000602082019050818103600083015261525d81615221565b9050919050565b7f726566756e6461626c653a20616c726561647920726566756e64656400000000600082015250565b600061529a601c83614128565b91506152a582615264565b602082019050919050565b600060208201905081810360008301526152c98161528d565b9050919050565b7f726566756e6461626c653a20616c72656164792077697468647261776e000000600082015250565b6000615306601d83614128565b9150615311826152d0565b602082019050919050565b60006020820190508181036000830152615335816152f9565b9050919050565b7f4552433732313a20696e76616c696420746f6b656e2049440000000000000000600082015250565b6000615372601883614128565b915061537d8261533c565b602082019050919050565b600060208201905081810360008301526153a181615365565b9050919050565b7f4552433732313a2061646472657373207a65726f206973206e6f74206120766160008201527f6c6964206f776e65720000000000000000000000000000000000000000000000602082015250565b6000615404602983614128565b915061540f826153a8565b604082019050919050565b60006020820190508181036000830152615433816153f7565b9050919050565b7f4f6e6c79206974656d206f776e65722063616e20706572666f726d207468697360008201527f206f7065726174696f6e00000000000000000000000000000000000000000000602082015250565b6000615496602a83614128565b91506154a18261543a565b604082019050919050565b600060208201905081810360008301526154c581615489565b9050919050565b7f5072696365206d75737420626520657175616c20746f206c697374696e67207060008201527f7269636500000000000000000000000000000000000000000000000000000000602082015250565b6000615528602483614128565b9150615533826154cc565b604082019050919050565b600060208201905081810360008301526155578161551b565b9050919050565b7f6f6e6c79206f776e6572206f6620746865206d61726b6574706c61636520636160008201527f6e206368616e676520746865206c697374696e67207072696365000000000000602082015250565b60006155ba603a83614128565b91506155c58261555e565b604082019050919050565b600060208201905081810360008301526155e9816155ad565b9050919050565b7f4f6e6c79206d61726b6574706c616365206f776e65722063616e20757064617460008201527f65206c697374696e672070726963652e00000000000000000000000000000000602082015250565b600061564c603083614128565b9150615657826155f0565b604082019050919050565b6000602082019050818103600083015261567b8161563f565b9050919050565b7f506c65617365207375626d6974207468652061736b696e67207072696365206960008201527f6e206f7264657220746f20636f6d706c65746520746865207075726368617365602082015250565b60006156de604083614128565b91506156e982615682565b604082019050919050565b6000602082019050818103600083015261570d816156d1565b9050919050565b600081905092915050565b600061572a8261411d565b6157348185615714565b9350615744818560208601614139565b80840191505092915050565b600061575c828561571f565b9150615768828461571f565b91508190509392505050565b7f796f7520617265206e6f7420746865204f776e6572206f66207468697320636f60008201527f6f6c65637469626c650000000000000000000000000000000000000000000000602082015250565b60006157d0602983614128565b91506157db82615774565b604082019050919050565b600060208201905081810360008301526157ff816157c3565b9050919050565b7f4552433732313a207472616e736665722066726f6d20696e636f72726563742060008201527f6f776e6572000000000000000000000000000000000000000000000000000000602082015250565b6000615862602583614128565b915061586d82615806565b604082019050919050565b6000602082019050818103600083015261589181615855565b9050919050565b7f4552433732313a207472616e7366657220746f20746865207a65726f2061646460008201527f7265737300000000000000000000000000000000000000000000000000000000602082015250565b60006158f4602483614128565b91506158ff82615898565b604082019050919050565b60006020820190508181036000830152615923816158e7565b9050919050565b7f4552433732313a206d696e7420746f20746865207a65726f2061646472657373600082015250565b6000615960602083614128565b915061596b8261592a565b602082019050919050565b6000602082019050818103600083015261598f81615953565b9050919050565b7f4552433732313a20746f6b656e20616c7265616479206d696e74656400000000600082015250565b60006159cc601c83614128565b91506159d782615996565b602082019050919050565b600060208201905081810360008301526159fb816159bf565b9050919050565b7f45524337323155524953746f726167653a2055524920736574206f66206e6f6e60008201527f6578697374656e7420746f6b656e000000000000000000000000000000000000602082015250565b6000615a5e602e83614128565b9150615a6982615a02565b604082019050919050565b60006020820190508181036000830152615a8d81615a51565b9050919050565b7f5072696365206d757374206265206174206c6561737420312077656900000000600082015250565b6000615aca601c83614128565b9150615ad582615a94565b602082019050919050565b60006020820190508181036000830152615af981615abd565b9050919050565b600060a082019050615b156000830188614264565b615b226020830187614264565b615b2f6040830186614583565b615b3c60608301856140f3565b615b4960808301846140f3565b9695505050505050565b7f4552433732313a20617070726f766520746f2063616c6c657200000000000000600082015250565b6000615b89601983614128565b9150615b9482615b53565b602082019050919050565b60006020820190508181036000830152615bb881615b7c565b9050919050565b7f436f756e7465723a2064656372656d656e74206f766572666c6f770000000000600082015250565b6000615bf5601b83614128565b9150615c0082615bbf565b602082019050919050565b60006020820190508181036000830152615c2481615be8565b9050919050565b7f4552433732313a207472616e7366657220746f206e6f6e20455243373231526560008201527f63656976657220696d706c656d656e7465720000000000000000000000000000602082015250565b6000615c87603283614128565b9150615c9282615c2b565b604082019050919050565b60006020820190508181036000830152615cb681615c7a565b9050919050565b600081519050615ccc8161428e565b92915050565b600060208284031215615ce857615ce7614058565b5b6000615cf684828501615cbd565b91505092915050565b600081519050919050565b600082825260208201905092915050565b6000615d2682615cff565b615d308185615d0a565b9350615d40818560208601614139565b615d4981614163565b840191505092915050565b6000608082019050615d696000830187614264565b615d766020830186614264565b615d836040830185614583565b8181036060830152615d958184615d1b565b905095945050505050565b600081519050615daf8161408e565b92915050565b600060208284031215615dcb57615dca614058565b5b6000615dd984828501615da0565b91505092915050565b7f4e487b7100000000000000000000000000000000000000000000000000000000600052601260045260246000fd5b6000615e1c826141cf565b9150615e27836141cf565b925082615e3757615e36615de2565b5b828204905092915050565b6000615e4d826141cf565b9150615e58836141cf565b925082615e6857615e67615de2565b5b82820690509291505056fea2646970667358221220e7950d6de22a7adf333b1deb741b8f090c71569b0948b4a679edacf2b0e7ecd864736f6c63430008110033",
  "linkReferences": {},
  "deployedLinkReferences": {}
}