{
  "_format": "hh-sol-artifact-1",
  "contractName": "NFTMarketplace",
  "sourceName": "contracts/NFTMarketplace.sol",
  "abi": [
    {
      "inputs": [],
      "stateMutability": "nonpayable",
      "type": "constructor"
    },
    {
      "anonymous": false,
      "inputs": [
        {
          "indexed": true,
          "internalType": "address",
          "name": "owner",
          "type": "address"
        },
        {
          "indexed": true,
          "internalType": "address",
          "name": "approved",
          "type": "address"
        },
        {
          "indexed": true,
          "internalType": "uint256",
          "name": "tokenId",
          "type": "uint256"
        }
      ],
      "name": "Approval",
      "type": "event"
    },
    {
      "anonymous": false,
      "inputs": [
        {
          "indexed": true,
          "internalType": "address",
          "name": "owner",
          "type": "address"
        },
        {
          "indexed": true,
          "internalType": "address",
          "name": "operator",
          "type": "address"
        },
        {
          "indexed": false,
          "internalType": "bool",
          "name": "approved",
          "type": "bool"
        }
      ],
      "name": "ApprovalForAll",
      "type": "event"
    },
    {
      "anonymous": false,
      "inputs": [
        {
          "indexed": true,
          "internalType": "uint256",
          "name": "contractId",
          "type": "uint256"
        },
        {
          "indexed": true,
          "internalType": "address",
          "name": "sender",
          "type": "address"
        },
        {
          "indexed": true,
          "internalType": "address",
          "name": "receiver",
          "type": "address"
        },
        {
          "indexed": false,
          "internalType": "uint256",
          "name": "tokenId",
          "type": "uint256"
        },
        {
          "indexed": false,
          "internalType": "string",
          "name": "hashlock",
          "type": "string"
        },
        {
          "indexed": false,
          "internalType": "uint256",
          "name": "requestedid",
          "type": "uint256"
        }
      ],
      "name": "HTLCERC721New",
      "type": "event"
    },
    {
      "anonymous": false,
      "inputs": [
        {
          "indexed": true,
          "internalType": "uint256",
          "name": "contractId",
          "type": "uint256"
        }
      ],
      "name": "HTLCERC721Refund",
      "type": "event"
    },
    {
      "anonymous": false,
      "inputs": [
        {
          "indexed": true,
          "internalType": "uint256",
          "name": "contractId",
          "type": "uint256"
        }
      ],
      "name": "HTLCERC721Withdraw",
      "type": "event"
    },
    {
      "anonymous": false,
      "inputs": [
        {
          "indexed": true,
          "internalType": "uint256",
          "name": "tokenId",
          "type": "uint256"
        },
        {
          "indexed": false,
          "internalType": "address",
          "name": "seller",
          "type": "address"
        },
        {
          "indexed": false,
          "internalType": "address",
          "name": "owner",
          "type": "address"
        },
        {
          "indexed": false,
          "internalType": "uint256",
          "name": "price",
          "type": "uint256"
        },
        {
          "indexed": false,
          "internalType": "bool",
          "name": "sold",
          "type": "bool"
        },
        {
          "indexed": false,
          "internalType": "bool",
          "name": "isSwap",
          "type": "bool"
        }
      ],
      "name": "MarketItemCreated",
      "type": "event"
    },
    {
      "anonymous": false,
      "inputs": [
        {
          "indexed": true,
          "internalType": "address",
          "name": "from",
          "type": "address"
        },
        {
          "indexed": true,
          "internalType": "address",
          "name": "to",
          "type": "address"
        },
        {
          "indexed": true,
          "internalType": "uint256",
          "name": "tokenId",
          "type": "uint256"
        }
      ],
      "name": "Transfer",
      "type": "event"
    },
    {
      "inputs": [],
      "name": "AllTrades",
      "outputs": [
        {
          "internalType": "uint256",
          "name": "",
          "type": "uint256"
        }
      ],
      "stateMutability": "view",
      "type": "function"
    },
    {
      "inputs": [
        {
          "internalType": "address",
          "name": "_Address",
          "type": "address"
        }
      ],
      "name": "MyTrades",
      "outputs": [
        {
          "internalType": "uint256[]",
          "name": "",
          "type": "uint256[]"
        }
      ],
      "stateMutability": "view",
      "type": "function"
    },
    {
      "inputs": [
        {
          "internalType": "uint256",
          "name": "_Amount",
          "type": "uint256"
        }
      ],
      "name": "SetverificationFees",
      "outputs": [],
      "stateMutability": "nonpayable",
      "type": "function"
    },
    {
      "inputs": [
        {
          "internalType": "address",
          "name": "_collectibleAddress",
          "type": "address"
        }
      ],
      "name": "SubmitContract",
      "outputs": [],
      "stateMutability": "payable",
      "type": "function"
    },
    {
      "inputs": [],
      "name": "_itemsSold",
      "outputs": [
        {
          "internalType": "uint256",
          "name": "_value",
          "type": "uint256"
        }
      ],
      "stateMutability": "view",
      "type": "function"
    },
    {
      "inputs": [],
      "name": "_tokenIds",
      "outputs": [
        {
          "internalType": "uint256",
          "name": "_value",
          "type": "uint256"
        }
      ],
      "stateMutability": "view",
      "type": "function"
    },
    {
      "inputs": [
        {
          "internalType": "address",
          "name": "to",
          "type": "address"
        },
        {
          "internalType": "uint256",
          "name": "tokenId",
          "type": "uint256"
        }
      ],
      "name": "approve",
      "outputs": [],
      "stateMutability": "nonpayable",
      "type": "function"
    },
    {
      "inputs": [
        {
          "internalType": "address",
          "name": "owner",
          "type": "address"
        }
      ],
      "name": "balanceOf",
      "outputs": [
        {
          "internalType": "uint256",
          "name": "",
          "type": "uint256"
        }
      ],
      "stateMutability": "view",
      "type": "function"
    },
    {
      "inputs": [
        {
          "internalType": "uint256",
          "name": "",
          "type": "uint256"
        }
      ],
      "name": "contracts",
      "outputs": [
        {
          "internalType": "address",
          "name": "Sender",
          "type": "address"
        },
        {
          "internalType": "address",
          "name": "receiver",
          "type": "address"
        },
        {
          "internalType": "uint256",
          "name": "tokenId",
          "type": "uint256"
        },
        {
          "internalType": "string",
          "name": "hashlock",
          "type": "string"
        },
        {
          "internalType": "uint256",
          "name": "requestedid",
          "type": "uint256"
        },
        {
          "internalType": "bool",
          "name": "withdrawn",
          "type": "bool"
        },
        {
          "internalType": "bool",
          "name": "refunded",
          "type": "bool"
        },
        {
          "internalType": "string",
          "name": "preimage",
          "type": "string"
        }
      ],
      "stateMutability": "view",
      "type": "function"
    },
    {
      "inputs": [
        {
          "internalType": "uint256",
          "name": "tokenId",
          "type": "uint256"
        }
      ],
      "name": "createMarketSale",
      "outputs": [],
      "stateMutability": "payable",
      "type": "function"
    },
    {
      "inputs": [
        {
          "internalType": "string",
          "name": "tokenURI",
          "type": "string"
        },
        {
          "internalType": "uint256",
          "name": "price",
          "type": "uint256"
        }
      ],
      "name": "createToken",
      "outputs": [
        {
          "internalType": "uint256",
          "name": "",
          "type": "uint256"
        }
      ],
      "stateMutability": "payable",
      "type": "function"
    },
    {
      "inputs": [],
      "name": "fetchItemsListed",
      "outputs": [
        {
          "components": [
            {
              "internalType": "uint256",
              "name": "tokenId",
              "type": "uint256"
            },
            {
              "internalType": "address payable",
              "name": "seller",
              "type": "address"
            },
            {
              "internalType": "address payable",
              "name": "owner",
              "type": "address"
            },
            {
              "internalType": "uint256",
              "name": "price",
              "type": "uint256"
            },
            {
              "internalType": "bool",
              "name": "sold",
              "type": "bool"
            },
            {
              "internalType": "bool",
              "name": "isSwap",
              "type": "bool"
            }
          ],
          "internalType": "struct NFTMarketplace.MarketItem[]",
          "name": "",
          "type": "tuple[]"
        }
      ],
      "stateMutability": "view",
      "type": "function"
    },
    {
      "inputs": [],
      "name": "fetchMarketItems",
      "outputs": [
        {
          "components": [
            {
              "internalType": "uint256",
              "name": "tokenId",
              "type": "uint256"
            },
            {
              "internalType": "address payable",
              "name": "seller",
              "type": "address"
            },
            {
              "internalType": "address payable",
              "name": "owner",
              "type": "address"
            },
            {
              "internalType": "uint256",
              "name": "price",
              "type": "uint256"
            },
            {
              "internalType": "bool",
              "name": "sold",
              "type": "bool"
            },
            {
              "internalType": "bool",
              "name": "isSwap",
              "type": "bool"
            }
          ],
          "internalType": "struct NFTMarketplace.MarketItem[]",
          "name": "",
          "type": "tuple[]"
        }
      ],
      "stateMutability": "view",
      "type": "function"
    },
    {
      "inputs": [],
      "name": "fetchMyNFTs",
      "outputs": [
        {
          "components": [
            {
              "internalType": "uint256",
              "name": "tokenId",
              "type": "uint256"
            },
            {
              "internalType": "address payable",
              "name": "seller",
              "type": "address"
            },
            {
              "internalType": "address payable",
              "name": "owner",
              "type": "address"
            },
            {
              "internalType": "uint256",
              "name": "price",
              "type": "uint256"
            },
            {
              "internalType": "bool",
              "name": "sold",
              "type": "bool"
            },
            {
              "internalType": "bool",
              "name": "isSwap",
              "type": "bool"
            }
          ],
          "internalType": "struct NFTMarketplace.MarketItem[]",
          "name": "",
          "type": "tuple[]"
        }
      ],
      "stateMutability": "view",
      "type": "function"
    },
    {
      "inputs": [
        {
          "internalType": "uint256",
          "name": "tokenId",
          "type": "uint256"
        }
      ],
      "name": "getApproved",
      "outputs": [
        {
          "internalType": "address",
          "name": "",
          "type": "address"
        }
      ],
      "stateMutability": "view",
      "type": "function"
    },
    {
      "inputs": [
        {
          "internalType": "uint256",
          "name": "_contractId",
          "type": "uint256"
        }
      ],
      "name": "getContract",
      "outputs": [
        {
          "internalType": "address",
          "name": "sender",
          "type": "address"
        },
        {
          "internalType": "address",
          "name": "receiver",
          "type": "address"
        },
        {
          "internalType": "uint256",
          "name": "tokenId",
          "type": "uint256"
        },
        {
          "internalType": "uint256",
          "name": "requestedId",
          "type": "uint256"
        },
        {
          "internalType": "string",
          "name": "hashlock",
          "type": "string"
        },
        {
          "internalType": "bool",
          "name": "withdrawn",
          "type": "bool"
        },
        {
          "internalType": "bool",
          "name": "refunded",
          "type": "bool"
        },
        {
          "internalType": "string",
          "name": "preimage",
          "type": "string"
        }
      ],
      "stateMutability": "view",
      "type": "function"
    },
    {
      "inputs": [],
      "name": "getListingPrice",
      "outputs": [
        {
          "internalType": "uint256",
          "name": "",
          "type": "uint256"
        }
      ],
      "stateMutability": "view",
      "type": "function"
    },
    {
      "inputs": [
        {
          "internalType": "uint256",
          "name": "",
          "type": "uint256"
        }
      ],
      "name": "idToMarketItem",
      "outputs": [
        {
          "internalType": "uint256",
          "name": "tokenId",
          "type": "uint256"
        },
        {
          "internalType": "address payable",
          "name": "seller",
          "type": "address"
        },
        {
          "internalType": "address payable",
          "name": "owner",
          "type": "address"
        },
        {
          "internalType": "uint256",
          "name": "price",
          "type": "uint256"
        },
        {
          "internalType": "bool",
          "name": "sold",
          "type": "bool"
        },
        {
          "internalType": "bool",
          "name": "isSwap",
          "type": "bool"
        }
      ],
      "stateMutability": "view",
      "type": "function"
    },
    {
      "inputs": [
        {
          "internalType": "address",
          "name": "owner",
          "type": "address"
        },
        {
          "internalType": "address",
          "name": "operator",
          "type": "address"
        }
      ],
      "name": "isApprovedForAll",
      "outputs": [
        {
          "internalType": "bool",
          "name": "",
          "type": "bool"
        }
      ],
      "stateMutability": "view",
      "type": "function"
    },
    {
      "inputs": [],
      "name": "name",
      "outputs": [
        {
          "internalType": "string",
          "name": "",
          "type": "string"
        }
      ],
      "stateMutability": "view",
      "type": "function"
    },
    {
      "inputs": [
        {
          "internalType": "address",
          "name": "_receiver",
          "type": "address"
        },
        {
          "internalType": "string",
          "name": "_hashlock",
          "type": "string"
        },
        {
          "internalType": "uint256",
          "name": "_tokenId",
          "type": "uint256"
        },
        {
          "internalType": "uint256",
          "name": "_requestedid",
          "type": "uint256"
        }
      ],
      "name": "newContract",
      "outputs": [
        {
          "internalType": "uint256",
          "name": "_contractId",
          "type": "uint256"
        }
      ],
      "stateMutability": "payable",
      "type": "function"
    },
    {
      "inputs": [
        {
          "internalType": "uint256",
          "name": "tokenId",
          "type": "uint256"
        }
      ],
      "name": "ownerOf",
      "outputs": [
        {
          "internalType": "address",
          "name": "",
          "type": "address"
        }
      ],
      "stateMutability": "view",
      "type": "function"
    },
    {
      "inputs": [
        {
          "internalType": "uint256",
          "name": "_contractId",
          "type": "uint256"
        }
      ],
      "name": "refund",
      "outputs": [
        {
          "internalType": "bool",
          "name": "",
          "type": "bool"
        }
      ],
      "stateMutability": "nonpayable",
      "type": "function"
    },
    {
      "inputs": [
        {
          "internalType": "uint256",
          "name": "tokenId",
          "type": "uint256"
        },
        {
          "internalType": "uint256",
          "name": "price",
          "type": "uint256"
        }
      ],
      "name": "resellToken",
      "outputs": [],
      "stateMutability": "payable",
      "type": "function"
    },
    {
      "inputs": [
        {
          "internalType": "address",
          "name": "from",
          "type": "address"
        },
        {
          "internalType": "address",
          "name": "to",
          "type": "address"
        },
        {
          "internalType": "uint256",
          "name": "tokenId",
          "type": "uint256"
        }
      ],
      "name": "safeTransferFrom",
      "outputs": [],
      "stateMutability": "nonpayable",
      "type": "function"
    },
    {
      "inputs": [
        {
          "internalType": "address",
          "name": "from",
          "type": "address"
        },
        {
          "internalType": "address",
          "name": "to",
          "type": "address"
        },
        {
          "internalType": "uint256",
          "name": "tokenId",
          "type": "uint256"
        },
        {
          "internalType": "bytes",
          "name": "data",
          "type": "bytes"
        }
      ],
      "name": "safeTransferFrom",
      "outputs": [],
      "stateMutability": "nonpayable",
      "type": "function"
    },
    {
      "inputs": [
        {
          "internalType": "address",
          "name": "operator",
          "type": "address"
        },
        {
          "internalType": "bool",
          "name": "approved",
          "type": "bool"
        }
      ],
      "name": "setApprovalForAll",
      "outputs": [],
      "stateMutability": "nonpayable",
      "type": "function"
    },
    {
      "inputs": [
        {
          "internalType": "bytes4",
          "name": "interfaceId",
          "type": "bytes4"
        }
      ],
      "name": "supportsInterface",
      "outputs": [
        {
          "internalType": "bool",
          "name": "",
          "type": "bool"
        }
      ],
      "stateMutability": "view",
      "type": "function"
    },
    {
      "inputs": [
        {
          "internalType": "uint256",
          "name": "tokenId",
          "type": "uint256"
        }
      ],
      "name": "swapTokentoMarketPlace",
      "outputs": [],
      "stateMutability": "payable",
      "type": "function"
    },
    {
      "inputs": [],
      "name": "symbol",
      "outputs": [
        {
          "internalType": "string",
          "name": "",
          "type": "string"
        }
      ],
      "stateMutability": "view",
      "type": "function"
    },
    {
      "inputs": [
        {
          "internalType": "uint256",
          "name": "tokenId",
          "type": "uint256"
        }
      ],
      "name": "tokenURI",
      "outputs": [
        {
          "internalType": "string",
          "name": "",
          "type": "string"
        }
      ],
      "stateMutability": "view",
      "type": "function"
    },
    {
      "inputs": [
        {
          "internalType": "address",
          "name": "from",
          "type": "address"
        },
        {
          "internalType": "address",
          "name": "to",
          "type": "address"
        },
        {
          "internalType": "uint256",
          "name": "tokenId",
          "type": "uint256"
        }
      ],
      "name": "transferFrom",
      "outputs": [],
      "stateMutability": "nonpayable",
      "type": "function"
    },
    {
      "inputs": [
        {
          "internalType": "uint256",
          "name": "_listingPrice",
          "type": "uint256"
        }
      ],
      "name": "updateListingPrice",
      "outputs": [],
      "stateMutability": "payable",
      "type": "function"
    },
    {
      "inputs": [
        {
          "internalType": "uint256",
          "name": "_tokenId",
          "type": "uint256"
        },
        {
          "internalType": "uint256",
          "name": "_requestedid",
          "type": "uint256"
        }
      ],
      "name": "withdraw",
      "outputs": [
        {
          "internalType": "bool",
          "name": "",
          "type": "bool"
        }
      ],
      "stateMutability": "payable",
      "type": "function"
    }
  ],
  "bytecode": "0x60806040526603297345d9a0006009556000600c556602738d24e52000600e553480156200002c57600080fd5b506040518060400160405280601081526020017f4d657461766572736520546f6b656e73000000000000000000000000000000008152506040518060400160405280600481526020017f4d455454000000000000000000000000000000000000000000000000000000008152508160009081620000aa919062000380565b508060019081620000bc919062000380565b50505033600a60006101000a81548173ffffffffffffffffffffffffffffffffffffffff021916908373ffffffffffffffffffffffffffffffffffffffff16021790555062000467565b600081519050919050565b7f4e487b7100000000000000000000000000000000000000000000000000000000600052604160045260246000fd5b7f4e487b7100000000000000000000000000000000000000000000000000000000600052602260045260246000fd5b600060028204905060018216806200018857607f821691505b6020821081036200019e576200019d62000140565b5b50919050565b60008190508160005260206000209050919050565b60006020601f8301049050919050565b600082821b905092915050565b600060088302620002087fffffffffffffffffffffffffffffffffffffffffffffffffffffffffffffffff82620001c9565b620002148683620001c9565b95508019841693508086168417925050509392505050565b6000819050919050565b6000819050919050565b6000620002616200025b62000255846200022c565b62000236565b6200022c565b9050919050565b6000819050919050565b6200027d8362000240565b620002956200028c8262000268565b848454620001d6565b825550505050565b600090565b620002ac6200029d565b620002b981848462000272565b505050565b5b81811015620002e157620002d5600082620002a2565b600181019050620002bf565b5050565b601f8211156200033057620002fa81620001a4565b6200030584620001b9565b8101602085101562000315578190505b6200032d6200032485620001b9565b830182620002be565b50505b505050565b600082821c905092915050565b6000620003556000198460080262000335565b1980831691505092915050565b600062000370838362000342565b9150826002028217905092915050565b6200038b8262000106565b67ffffffffffffffff811115620003a757620003a662000111565b5b620003b382546200016f565b620003c0828285620002e5565b600060209050601f831160018114620003f85760008415620003e3578287015190505b620003ef858262000362565b8655506200045f565b601f1984166200040886620001a4565b60005b8281101562000432578489015182556001820191506020850194506020810190506200040b565b868310156200045257848901516200044e601f89168262000342565b8355505b6001600288020188555050505b505050505050565b615b7280620004776000396000f3fe6080604052600436106101f95760003560e01c80636ebc8c861161010d578063ae677aa3116100a0578063e219fc751161006f578063e219fc7514610765578063e3b1d3d314610781578063e61a70c0146107aa578063e985e9c5146107ec578063eb707a0314610829576101f9565b8063ae677aa3146106c7578063b88d4fde146106e3578063be9af5361461070c578063c87b56dd14610728576101f9565b806395d89b41116100dc57806395d89b411461062c578063a22cb46514610657578063aa46a40014610680578063ac4a46e3146106ab576101f9565b80636ebc8c861461055057806370a082311461059457806372b3b620146105d157806387506a0d14610601576101f9565b806323b872dd11610190578063441a3e701161015f578063441a3e701461044957806345f8fa8014610479578063474da79a146104a45780636352211e146104e85780636b56211f14610525576101f9565b806323b872dd1461038a578063267298ae146103b3578063278ecde1146103e357806342842e0e14610420576101f9565b80630a1e0f31116101cc5780630a1e0f31146102cc5780630f08efe01461030957806312e8558514610334578063202e37401461035f576101f9565b806301ffc9a7146101fe57806306fdde031461023b578063081812fc14610266578063095ea7b3146102a3575b600080fd5b34801561020a57600080fd5b5061022560048036038101906102209190613d83565b610845565b6040516102329190613dcb565b60405180910390f35b34801561024757600080fd5b50610250610927565b60405161025d9190613e76565b60405180910390f35b34801561027257600080fd5b5061028d60048036038101906102889190613ece565b6109b9565b60405161029a9190613f3c565b60405180910390f35b3480156102af57600080fd5b506102ca60048036038101906102c59190613f83565b6109ff565b005b3480156102d857600080fd5b506102f360048036038101906102ee9190613fc3565b610b16565b60405161030091906140ae565b60405180910390f35b34801561031557600080fd5b5061031e610bad565b60405161032b919061422a565b60405180910390f35b34801561034057600080fd5b50610349610e6a565b604051610356919061425b565b60405180910390f35b34801561036b57600080fd5b50610374610e74565b604051610381919061422a565b60405180910390f35b34801561039657600080fd5b506103b160048036038101906103ac9190614276565b61117b565b005b6103cd60048036038101906103c891906143fe565b6111db565b6040516103da919061425b565b60405180910390f35b3480156103ef57600080fd5b5061040a60048036038101906104059190613ece565b61146f565b6040516104179190613dcb565b60405180910390f35b34801561042c57600080fd5b5061044760048036038101906104429190614276565b6116d3565b005b610463600480360381019061045e9190614481565b6116f3565b6040516104709190613dcb565b60405180910390f35b34801561048557600080fd5b5061048e6118d8565b60405161049b919061422a565b60405180910390f35b3480156104b057600080fd5b506104cb60048036038101906104c69190613ece565b611bdf565b6040516104df9897969594939291906144c1565b60405180910390f35b3480156104f457600080fd5b5061050f600480360381019061050a9190613ece565b611d91565b60405161051c9190613f3c565b60405180910390f35b34801561053157600080fd5b5061053a611e42565b604051610547919061425b565b60405180910390f35b34801561055c57600080fd5b5061057760048036038101906105729190613ece565b611e58565b60405161058b98979695949392919061454d565b60405180910390f35b3480156105a057600080fd5b506105bb60048036038101906105b69190613fc3565b612085565b6040516105c8919061425b565b60405180910390f35b6105eb60048036038101906105e691906145d9565b61213c565b6040516105f8919061425b565b60405180910390f35b34801561060d57600080fd5b5061061661217e565b604051610623919061425b565b60405180910390f35b34801561063857600080fd5b5061064161218a565b60405161064e9190613e76565b60405180910390f35b34801561066357600080fd5b5061067e60048036038101906106799190614661565b61221c565b005b34801561068c57600080fd5b50610695612232565b6040516106a2919061425b565b60405180910390f35b6106c560048036038101906106c09190613ece565b61223e565b005b6106e160048036038101906106dc9190613ece565b612417565b005b3480156106ef57600080fd5b5061070a60048036038101906107059190614742565b612541565b005b61072660048036038101906107219190613ece565b6125a3565b005b34801561073457600080fd5b5061074f600480360381019061074a9190613ece565b6127db565b60405161075c9190613e76565b60405180910390f35b61077f600480360381019061077a9190614481565b6128ed565b005b34801561078d57600080fd5b506107a860048036038101906107a39190613ece565b612ae2565b005b3480156107b657600080fd5b506107d160048036038101906107cc9190613ece565b612aec565b6040516107e3969594939291906147d4565b60405180910390f35b3480156107f857600080fd5b50610813600480360381019061080e9190614835565b612b82565b6040516108209190613dcb565b60405180910390f35b610843600480360381019061083e9190613fc3565b612c16565b005b60007f80ac58cd000000000000000000000000000000000000000000000000000000007bffffffffffffffffffffffffffffffffffffffffffffffffffffffff1916827bffffffffffffffffffffffffffffffffffffffffffffffffffffffff1916148061091057507f5b5e139f000000000000000000000000000000000000000000000000000000007bffffffffffffffffffffffffffffffffffffffffffffffffffffffff1916827bffffffffffffffffffffffffffffffffffffffffffffffffffffffff1916145b80610920575061091f82612c9e565b5b9050919050565b606060008054610936906148a4565b80601f0160208091040260200160405190810160405280929190818152602001828054610962906148a4565b80156109af5780601f10610984576101008083540402835291602001916109af565b820191906000526020600020905b81548152906001019060200180831161099257829003601f168201915b5050505050905090565b60006109c482612d08565b6004600083815260200190815260200160002060009054906101000a900473ffffffffffffffffffffffffffffffffffffffff169050919050565b6000610a0a82611d91565b90508073ffffffffffffffffffffffffffffffffffffffff168373ffffffffffffffffffffffffffffffffffffffff1603610a7a576040517f08c379a0000000000000000000000000000000000000000000000000000000008152600401610a7190614947565b60405180910390fd5b8073ffffffffffffffffffffffffffffffffffffffff16610a99612d53565b73ffffffffffffffffffffffffffffffffffffffff161480610ac85750610ac781610ac2612d53565b612b82565b5b610b07576040517f08c379a0000000000000000000000000000000000000000000000000000000008152600401610afe906149d9565b60405180910390fd5b610b118383612d5b565b505050565b6060601060008373ffffffffffffffffffffffffffffffffffffffff1673ffffffffffffffffffffffffffffffffffffffff168152602001908152602001600020805480602002602001604051908101604052809291908181526020018280548015610ba157602002820191906000526020600020905b815481526020019060010190808311610b8d575b50505050509050919050565b60606000610bbb6007612e14565b90506000610bc96008612e14565b610bd36007612e14565b610bdd9190614a28565b90506000808267ffffffffffffffff811115610bfc57610bfb6142d3565b5b604051908082528060200260200182016040528015610c3557816020015b610c22613cb1565b815260200190600190039081610c1a5790505b50905060005b84811015610e5f573073ffffffffffffffffffffffffffffffffffffffff16600b6000600184610c6b9190614a5c565b815260200190815260200160002060020160009054906101000a900473ffffffffffffffffffffffffffffffffffffffff1673ffffffffffffffffffffffffffffffffffffffff16148015610ced5750600b6000600183610ccc9190614a5c565b815260200190815260200160002060040160019054906101000a900460ff16155b15610e4c576000600182610d019190614a5c565b90506000600b60008381526020019081526020016000209050806040518060c0016040529081600082015481526020016001820160009054906101000a900473ffffffffffffffffffffffffffffffffffffffff1673ffffffffffffffffffffffffffffffffffffffff1673ffffffffffffffffffffffffffffffffffffffff1681526020016002820160009054906101000a900473ffffffffffffffffffffffffffffffffffffffff1673ffffffffffffffffffffffffffffffffffffffff1673ffffffffffffffffffffffffffffffffffffffff168152602001600382015481526020016004820160009054906101000a900460ff161515151581526020016004820160019054906101000a900460ff161515151581525050848681518110610e2f57610e2e614a90565b5b6020026020010181905250600185610e479190614a5c565b945050505b8080610e5790614abf565b915050610c3b565b508094505050505090565b6000600954905090565b60606000610e826007612e14565b905060008060005b83811015610f2a573373ffffffffffffffffffffffffffffffffffffffff16600b6000600184610eba9190614a5c565b815260200190815260200160002060020160009054906101000a900473ffffffffffffffffffffffffffffffffffffffff1673ffffffffffffffffffffffffffffffffffffffff1603610f1757600183610f149190614a5c565b92505b8080610f2290614abf565b915050610e8a565b5060008267ffffffffffffffff811115610f4757610f466142d3565b5b604051908082528060200260200182016040528015610f8057816020015b610f6d613cb1565b815260200190600190039081610f655790505b50905060005b84811015611170573373ffffffffffffffffffffffffffffffffffffffff16600b6000600184610fb69190614a5c565b815260200190815260200160002060020160009054906101000a900473ffffffffffffffffffffffffffffffffffffffff1673ffffffffffffffffffffffffffffffffffffffff160361115d5760006001826110129190614a5c565b90506000600b60008381526020019081526020016000209050806040518060c0016040529081600082015481526020016001820160009054906101000a900473ffffffffffffffffffffffffffffffffffffffff1673ffffffffffffffffffffffffffffffffffffffff1673ffffffffffffffffffffffffffffffffffffffff1681526020016002820160009054906101000a900473ffffffffffffffffffffffffffffffffffffffff1673ffffffffffffffffffffffffffffffffffffffff1673ffffffffffffffffffffffffffffffffffffffff168152602001600382015481526020016004820160009054906101000a900460ff161515151581526020016004820160019054906101000a900460ff1615151515815250508486815181106111405761113f614a90565b5b60200260200101819052506001856111589190614a5c565b945050505b808061116890614abf565b915050610f86565b508094505050505090565b61118c611186612d53565b82612e22565b6111cb576040517f08c379a00000000000000000000000000000000000000000000000000000000081526004016111c290614b79565b60405180910390fd5b6111d6838383612eb7565b505050565b6000600c5490506111ed333085612eb7565b6040518061010001604052803373ffffffffffffffffffffffffffffffffffffffff1681526020018673ffffffffffffffffffffffffffffffffffffffff16815260200184815260200185815260200183815260200160001515815260200160001515815260200185815250600f6000600c54815260200190815260200160002060008201518160000160006101000a81548173ffffffffffffffffffffffffffffffffffffffff021916908373ffffffffffffffffffffffffffffffffffffffff16021790555060208201518160010160006101000a81548173ffffffffffffffffffffffffffffffffffffffff021916908373ffffffffffffffffffffffffffffffffffffffff16021790555060408201518160020155606082015181600301908161131b9190614d45565b506080820151816004015560a08201518160050160006101000a81548160ff02191690831515021790555060c08201518160050160016101000a81548160ff02191690831515021790555060e082015181600601908161137b9190614d45565b50905050600c600081548092919061139290614abf565b9190505550601060003373ffffffffffffffffffffffffffffffffffffffff1673ffffffffffffffffffffffffffffffffffffffff1681526020019081526020016000208190806001815401808255809150506001900390600052602060002001600090919091909150558473ffffffffffffffffffffffffffffffffffffffff163373ffffffffffffffffffffffffffffffffffffffff16827ff02095b678ace2aeca14926ed59473de15ecad8c0f5a6eff75a7f96e85d1683686888760405161145f93929190614e17565b60405180910390a4949350505050565b60008161147b8161311d565b6114ba576040517f08c379a00000000000000000000000000000000000000000000000000000000081526004016114b190614ea1565b60405180910390fd5b823373ffffffffffffffffffffffffffffffffffffffff16600f600083815260200190815260200160002060000160009054906101000a900473ffffffffffffffffffffffffffffffffffffffff1673ffffffffffffffffffffffffffffffffffffffff161461155f576040517f08c379a000000000000000000000000000000000000000000000000000000000815260040161155690614f0d565b60405180910390fd5b60001515600f600083815260200190815260200160002060050160019054906101000a900460ff161515146115c9576040517f08c379a00000000000000000000000000000000000000000000000000000000081526004016115c090614f79565b60405180910390fd5b60001515600f600083815260200190815260200160002060050160009054906101000a900460ff16151514611633576040517f08c379a000000000000000000000000000000000000000000000000000000000815260040161162a90614fe5565b60405180910390fd5b6000600f6000868152602001908152602001600020905060018160050160016101000a81548160ff02191690831515021790555061169a308260000160009054906101000a900473ffffffffffffffffffffffffffffffffffffffff168360020154612eb7565b847f019f57bc1cf49f7d31b6a53f15255ae62cec31145c6727f0be6d246c101f373d60405160405180910390a260019350505050919050565b6116ee83838360405180602001604052806000815250612541565b505050565b60008060005b8181116117565784600f60008381526020019081526020016000206002015414801561173a575083600f600083815260200190815260200160002060040154145b15611743578091505b808061174e90614abf565b9150506116f9565b506000600f6000838152602001908152602001600020905061179d308260000160009054906101000a900473ffffffffffffffffffffffffffffffffffffffff1686612eb7565b6117a8303387612eb7565b6117b230866109ff565b33600b600087815260200190815260200160002060020160006101000a81548173ffffffffffffffffffffffffffffffffffffffff021916908373ffffffffffffffffffffffffffffffffffffffff1602179055508060000160009054906101000a900473ffffffffffffffffffffffffffffffffffffffff16600b600086815260200190815260200160002060020160006101000a81548173ffffffffffffffffffffffffffffffffffffffff021916908373ffffffffffffffffffffffffffffffffffffffff16021790555060018160050160006101000a81548160ff021916908315150217905550600c547f1f1d15a0dc959b0b4700d76fb0cb82771c84dfd766a86e6753bb5326f1308da060405160405180910390a260019250505092915050565b606060006118e66007612e14565b905060008060005b8381101561198e573373ffffffffffffffffffffffffffffffffffffffff16600b600060018461191e9190614a5c565b815260200190815260200160002060010160009054906101000a900473ffffffffffffffffffffffffffffffffffffffff1673ffffffffffffffffffffffffffffffffffffffff160361197b576001836119789190614a5c565b92505b808061198690614abf565b9150506118ee565b5060008267ffffffffffffffff8111156119ab576119aa6142d3565b5b6040519080825280602002602001820160405280156119e457816020015b6119d1613cb1565b8152602001906001900390816119c95790505b50905060005b84811015611bd4573373ffffffffffffffffffffffffffffffffffffffff16600b6000600184611a1a9190614a5c565b815260200190815260200160002060010160009054906101000a900473ffffffffffffffffffffffffffffffffffffffff1673ffffffffffffffffffffffffffffffffffffffff1603611bc1576000600182611a769190614a5c565b90506000600b60008381526020019081526020016000209050806040518060c0016040529081600082015481526020016001820160009054906101000a900473ffffffffffffffffffffffffffffffffffffffff1673ffffffffffffffffffffffffffffffffffffffff1673ffffffffffffffffffffffffffffffffffffffff1681526020016002820160009054906101000a900473ffffffffffffffffffffffffffffffffffffffff1673ffffffffffffffffffffffffffffffffffffffff1673ffffffffffffffffffffffffffffffffffffffff168152602001600382015481526020016004820160009054906101000a900460ff161515151581526020016004820160019054906101000a900460ff161515151581525050848681518110611ba457611ba3614a90565b5b6020026020010181905250600185611bbc9190614a5c565b945050505b8080611bcc90614abf565b9150506119ea565b508094505050505090565b600f6020528060005260406000206000915090508060000160009054906101000a900473ffffffffffffffffffffffffffffffffffffffff16908060010160009054906101000a900473ffffffffffffffffffffffffffffffffffffffff1690806002015490806003018054611c54906148a4565b80601f0160208091040260200160405190810160405280929190818152602001828054611c80906148a4565b8015611ccd5780601f10611ca257610100808354040283529160200191611ccd565b820191906000526020600020905b815481529060010190602001808311611cb057829003601f168201915b5050505050908060040154908060050160009054906101000a900460ff16908060050160019054906101000a900460ff1690806006018054611d0e906148a4565b80601f0160208091040260200160405190810160405280929190818152602001828054611d3a906148a4565b8015611d875780601f10611d5c57610100808354040283529160200191611d87565b820191906000526020600020905b815481529060010190602001808311611d6a57829003601f168201915b5050505050905088565b6000806002600084815260200190815260200160002060009054906101000a900473ffffffffffffffffffffffffffffffffffffffff169050600073ffffffffffffffffffffffffffffffffffffffff168173ffffffffffffffffffffffffffffffffffffffff1603611e39576040517f08c379a0000000000000000000000000000000000000000000000000000000008152600401611e3090615051565b60405180910390fd5b80915050919050565b60006001600c54611e539190614a28565b905090565b6000806000806060600080606060001515611e728a61311d565b151503611eb957600080600080600080604051806020016040528060008152509190604051806020016040528060008152509750975097509750975097509750975061207a565b6000600f60008b815260200190815260200160002090508060000160009054906101000a900473ffffffffffffffffffffffffffffffffffffffff168160010160009054906101000a900473ffffffffffffffffffffffffffffffffffffffff1682600201548360040154846003018560050160009054906101000a900460ff168660050160019054906101000a900460ff1687600601838054611f5c906148a4565b80601f0160208091040260200160405190810160405280929190818152602001828054611f88906148a4565b8015611fd55780601f10611faa57610100808354040283529160200191611fd5565b820191906000526020600020905b815481529060010190602001808311611fb857829003601f168201915b50505050509350808054611fe8906148a4565b80601f0160208091040260200160405190810160405280929190818152602001828054612014906148a4565b80156120615780601f1061203657610100808354040283529160200191612061565b820191906000526020600020905b81548152906001019060200180831161204457829003601f168201915b5050505050905098509850985098509850985098509850505b919395975091939597565b60008073ffffffffffffffffffffffffffffffffffffffff168273ffffffffffffffffffffffffffffffffffffffff16036120f5576040517f08c379a00000000000000000000000000000000000000000000000000000000081526004016120ec906150e3565b60405180910390fd5b600360008373ffffffffffffffffffffffffffffffffffffffff1673ffffffffffffffffffffffffffffffffffffffff168152602001908152602001600020549050919050565b6000612148600761318c565b60006121546007612e14565b905061216033826131a2565b61216a818561337b565b61217481846133e8565b8091505092915050565b60088060000154905081565b606060018054612199906148a4565b80601f01602080910402602001604051908101604052809291908181526020018280546121c5906148a4565b80156122125780601f106121e757610100808354040283529160200191612212565b820191906000526020600020905b8154815290600101906020018083116121f557829003601f168201915b5050505050905090565b61222e612227612d53565b8383613616565b5050565b60078060000154905081565b3373ffffffffffffffffffffffffffffffffffffffff16600b600083815260200190815260200160002060020160009054906101000a900473ffffffffffffffffffffffffffffffffffffffff1673ffffffffffffffffffffffffffffffffffffffff16146122e2576040517f08c379a00000000000000000000000000000000000000000000000000000000081526004016122d990615175565b60405180910390fd5b6009543414612326576040517f08c379a000000000000000000000000000000000000000000000000000000000815260040161231d90615207565b60405180910390fd5b6000600b600083815260200190815260200160002060040160006101000a81548160ff02191690831515021790555033600b600083815260200190815260200160002060010160006101000a81548173ffffffffffffffffffffffffffffffffffffffff021916908373ffffffffffffffffffffffffffffffffffffffff16021790555030600b600083815260200190815260200160002060020160006101000a81548173ffffffffffffffffffffffffffffffffffffffff021916908373ffffffffffffffffffffffffffffffffffffffff1602179055506124096008613782565b612414333083612eb7565b50565b600a60009054906101000a900473ffffffffffffffffffffffffffffffffffffffff1673ffffffffffffffffffffffffffffffffffffffff163373ffffffffffffffffffffffffffffffffffffffff16146124a7576040517f08c379a000000000000000000000000000000000000000000000000000000000815260040161249e90615299565b60405180910390fd5b3373ffffffffffffffffffffffffffffffffffffffff16600a60009054906101000a900473ffffffffffffffffffffffffffffffffffffffff1673ffffffffffffffffffffffffffffffffffffffff1614612537576040517f08c379a000000000000000000000000000000000000000000000000000000000815260040161252e9061532b565b60405180910390fd5b8060098190555050565b61255261254c612d53565b83612e22565b612591576040517f08c379a000000000000000000000000000000000000000000000000000000000815260040161258890614b79565b60405180910390fd5b61259d848484846137de565b50505050565b6000600b6000838152602001908152602001600020600301549050803414612600576040517f08c379a00000000000000000000000000000000000000000000000000000000081526004016125f7906153bd565b60405180910390fd5b33600b600084815260200190815260200160002060020160006101000a81548173ffffffffffffffffffffffffffffffffffffffff021916908373ffffffffffffffffffffffffffffffffffffffff1602179055506001600b600084815260200190815260200160002060040160006101000a81548160ff0219169083151502179055506000600b600084815260200190815260200160002060010160006101000a81548173ffffffffffffffffffffffffffffffffffffffff021916908373ffffffffffffffffffffffffffffffffffffffff1602179055506126e4600861318c565b6126ef303384612eb7565b600a60009054906101000a900473ffffffffffffffffffffffffffffffffffffffff1673ffffffffffffffffffffffffffffffffffffffff166108fc6009549081150290604051600060405180830381858888f19350505050158015612759573d6000803e3d6000fd5b50600b600083815260200190815260200160002060010160009054906101000a900473ffffffffffffffffffffffffffffffffffffffff1673ffffffffffffffffffffffffffffffffffffffff166108fc349081150290604051600060405180830381858888f193505050501580156127d6573d6000803e3d6000fd5b505050565b60606127e682612d08565b6000600660008481526020019081526020016000208054612806906148a4565b80601f0160208091040260200160405190810160405280929190818152602001828054612832906148a4565b801561287f5780601f106128545761010080835404028352916020019161287f565b820191906000526020600020905b81548152906001019060200180831161286257829003601f168201915b50505050509050600061289061383a565b905060008151036128a55781925050506128e8565b6000825111156128da5780826040516020016128c2929190615419565b604051602081830303815290604052925050506128e8565b6128e384613851565b925050505b919050565b3373ffffffffffffffffffffffffffffffffffffffff16600b600084815260200190815260200160002060020160009054906101000a900473ffffffffffffffffffffffffffffffffffffffff1673ffffffffffffffffffffffffffffffffffffffff1614612991576040517f08c379a000000000000000000000000000000000000000000000000000000000815260040161298890615175565b60405180910390fd5b60095434146129d5576040517f08c379a00000000000000000000000000000000000000000000000000000000081526004016129cc90615207565b60405180910390fd5b6000600b600084815260200190815260200160002060040160006101000a81548160ff02191690831515021790555080600b60008481526020019081526020016000206003018190555033600b600084815260200190815260200160002060010160006101000a81548173ffffffffffffffffffffffffffffffffffffffff021916908373ffffffffffffffffffffffffffffffffffffffff16021790555030600b600084815260200190815260200160002060020160006101000a81548173ffffffffffffffffffffffffffffffffffffffff021916908373ffffffffffffffffffffffffffffffffffffffff160217905550612ad36008613782565b612ade333084612eb7565b5050565b80600d8190555050565b600b6020528060005260406000206000915090508060000154908060010160009054906101000a900473ffffffffffffffffffffffffffffffffffffffff16908060020160009054906101000a900473ffffffffffffffffffffffffffffffffffffffff16908060030154908060040160009054906101000a900460ff16908060040160019054906101000a900460ff16905086565b6000600560008473ffffffffffffffffffffffffffffffffffffffff1673ffffffffffffffffffffffffffffffffffffffff16815260200190815260200160002060008373ffffffffffffffffffffffffffffffffffffffff1673ffffffffffffffffffffffffffffffffffffffff16815260200190815260200160002060009054906101000a900460ff16905092915050565b600d54341015612c2557600080fd5b612c2e816138b9565b73ffffffffffffffffffffffffffffffffffffffff163373ffffffffffffffffffffffffffffffffffffffff1614612c9b576040517f08c379a0000000000000000000000000000000000000000000000000000000008152600401612c92906154af565b60405180910390fd5b50565b60007f01ffc9a7000000000000000000000000000000000000000000000000000000007bffffffffffffffffffffffffffffffffffffffffffffffffffffffff1916827bffffffffffffffffffffffffffffffffffffffffffffffffffffffff1916149050919050565b612d1181613931565b612d50576040517f08c379a0000000000000000000000000000000000000000000000000000000008152600401612d4790615051565b60405180910390fd5b50565b600033905090565b816004600083815260200190815260200160002060006101000a81548173ffffffffffffffffffffffffffffffffffffffff021916908373ffffffffffffffffffffffffffffffffffffffff160217905550808273ffffffffffffffffffffffffffffffffffffffff16612dce83611d91565b73ffffffffffffffffffffffffffffffffffffffff167f8c5be1e5ebec7d5bd14f71427d1e84f3dd0314c0f7b2291e5b200ac8c7c3b92560405160405180910390a45050565b600081600001549050919050565b600080612e2e83611d91565b90508073ffffffffffffffffffffffffffffffffffffffff168473ffffffffffffffffffffffffffffffffffffffff161480612e705750612e6f8185612b82565b5b80612eae57508373ffffffffffffffffffffffffffffffffffffffff16612e96846109b9565b73ffffffffffffffffffffffffffffffffffffffff16145b91505092915050565b8273ffffffffffffffffffffffffffffffffffffffff16612ed782611d91565b73ffffffffffffffffffffffffffffffffffffffff1614612f2d576040517f08c379a0000000000000000000000000000000000000000000000000000000008152600401612f2490615541565b60405180910390fd5b600073ffffffffffffffffffffffffffffffffffffffff168273ffffffffffffffffffffffffffffffffffffffff1603612f9c576040517f08c379a0000000000000000000000000000000000000000000000000000000008152600401612f93906155d3565b60405180910390fd5b612fa783838361399d565b612fb2600082612d5b565b6001600360008573ffffffffffffffffffffffffffffffffffffffff1673ffffffffffffffffffffffffffffffffffffffff16815260200190815260200160002060008282546130029190614a28565b925050819055506001600360008473ffffffffffffffffffffffffffffffffffffffff1673ffffffffffffffffffffffffffffffffffffffff16815260200190815260200160002060008282546130599190614a5c565b92505081905550816002600083815260200190815260200160002060006101000a81548173ffffffffffffffffffffffffffffffffffffffff021916908373ffffffffffffffffffffffffffffffffffffffff160217905550808273ffffffffffffffffffffffffffffffffffffffff168473ffffffffffffffffffffffffffffffffffffffff167fddf252ad1be2c89b69c2b068fc378daa952ba7f163c4a11628f55a4df523b3ef60405160405180910390a46131188383836139a2565b505050565b60008073ffffffffffffffffffffffffffffffffffffffff16600f600084815260200190815260200160002060000160009054906101000a900473ffffffffffffffffffffffffffffffffffffffff1673ffffffffffffffffffffffffffffffffffffffff1614159050919050565b6001816000016000828254019250508190555050565b600073ffffffffffffffffffffffffffffffffffffffff168273ffffffffffffffffffffffffffffffffffffffff1603613211576040517f08c379a00000000000000000000000000000000000000000000000000000000081526004016132089061563f565b60405180910390fd5b61321a81613931565b1561325a576040517f08c379a0000000000000000000000000000000000000000000000000000000008152600401613251906156ab565b60405180910390fd5b6132666000838361399d565b6001600360008473ffffffffffffffffffffffffffffffffffffffff1673ffffffffffffffffffffffffffffffffffffffff16815260200190815260200160002060008282546132b69190614a5c565b92505081905550816002600083815260200190815260200160002060006101000a81548173ffffffffffffffffffffffffffffffffffffffff021916908373ffffffffffffffffffffffffffffffffffffffff160217905550808273ffffffffffffffffffffffffffffffffffffffff16600073ffffffffffffffffffffffffffffffffffffffff167fddf252ad1be2c89b69c2b068fc378daa952ba7f163c4a11628f55a4df523b3ef60405160405180910390a4613377600083836139a2565b5050565b61338482613931565b6133c3576040517f08c379a00000000000000000000000000000000000000000000000000000000081526004016133ba9061573d565b60405180910390fd5b806006600084815260200190815260200160002090816133e39190614d45565b505050565b6000811161342b576040517f08c379a0000000000000000000000000000000000000000000000000000000008152600401613422906157a9565b60405180910390fd5b600954341461346f576040517f08c379a000000000000000000000000000000000000000000000000000000000815260040161346690615207565b60405180910390fd5b6040518060c001604052808381526020013373ffffffffffffffffffffffffffffffffffffffff1681526020013073ffffffffffffffffffffffffffffffffffffffff16815260200182815260200160001515815260200160001515815250600b60008481526020019081526020016000206000820151816000015560208201518160010160006101000a81548173ffffffffffffffffffffffffffffffffffffffff021916908373ffffffffffffffffffffffffffffffffffffffff16021790555060408201518160020160006101000a81548173ffffffffffffffffffffffffffffffffffffffff021916908373ffffffffffffffffffffffffffffffffffffffff1602179055506060820151816003015560808201518160040160006101000a81548160ff02191690831515021790555060a08201518160040160016101000a81548160ff0219169083151502179055509050506135d1333084612eb7565b817f538153ed6048ec0057b06893633e5c91bd15b5456c7598a4ad59ed40e506cb8d33308460008060405161360a9594939291906157c9565b60405180910390a25050565b8173ffffffffffffffffffffffffffffffffffffffff168373ffffffffffffffffffffffffffffffffffffffff1603613684576040517f08c379a000000000000000000000000000000000000000000000000000000000815260040161367b90615868565b60405180910390fd5b80600560008573ffffffffffffffffffffffffffffffffffffffff1673ffffffffffffffffffffffffffffffffffffffff16815260200190815260200160002060008473ffffffffffffffffffffffffffffffffffffffff1673ffffffffffffffffffffffffffffffffffffffff16815260200190815260200160002060006101000a81548160ff0219169083151502179055508173ffffffffffffffffffffffffffffffffffffffff168373ffffffffffffffffffffffffffffffffffffffff167f17307eab39ab6107e8899845ad3d59bd9653f200f220920489ca2b5937696c31836040516137759190613dcb565b60405180910390a3505050565b600081600001549050600081116137ce576040517f08c379a00000000000000000000000000000000000000000000000000000000081526004016137c5906158d4565b60405180910390fd5b6001810382600001819055505050565b6137e9848484612eb7565b6137f5848484846139a7565b613834576040517f08c379a000000000000000000000000000000000000000000000000000000000815260040161382b90615966565b60405180910390fd5b50505050565b606060405180602001604052806000815250905090565b606061385c82612d08565b600061386661383a565b9050600081511161388657604051806020016040528060008152506138b1565b8061389084613b2e565b6040516020016138a1929190615419565b6040516020818303038152906040525b915050919050565b60008173ffffffffffffffffffffffffffffffffffffffff16638da5cb5b6040518163ffffffff1660e01b8152600401602060405180830381865afa158015613906573d6000803e3d6000fd5b505050506040513d601f19601f8201168201806040525081019061392a919061599b565b9050919050565b60008073ffffffffffffffffffffffffffffffffffffffff166002600084815260200190815260200160002060009054906101000a900473ffffffffffffffffffffffffffffffffffffffff1673ffffffffffffffffffffffffffffffffffffffff1614159050919050565b505050565b505050565b60006139c88473ffffffffffffffffffffffffffffffffffffffff16613c8e565b15613b21578373ffffffffffffffffffffffffffffffffffffffff1663150b7a026139f1612d53565b8786866040518563ffffffff1660e01b8152600401613a139493929190615a1d565b6020604051808303816000875af1925050508015613a4f57506040513d601f19601f82011682018060405250810190613a4c9190615a7e565b60015b613ad1573d8060008114613a7f576040519150601f19603f3d011682016040523d82523d6000602084013e613a84565b606091505b506000815103613ac9576040517f08c379a0000000000000000000000000000000000000000000000000000000008152600401613ac090615966565b60405180910390fd5b805181602001fd5b63150b7a0260e01b7bffffffffffffffffffffffffffffffffffffffffffffffffffffffff1916817bffffffffffffffffffffffffffffffffffffffffffffffffffffffff191614915050613b26565b600190505b949350505050565b606060008203613b75576040518060400160405280600181526020017f30000000000000000000000000000000000000000000000000000000000000008152509050613c89565b600082905060005b60008214613ba7578080613b9090614abf565b915050600a82613ba09190615ada565b9150613b7d565b60008167ffffffffffffffff811115613bc357613bc26142d3565b5b6040519080825280601f01601f191660200182016040528015613bf55781602001600182028036833780820191505090505b5090505b60008514613c8257600182613c0e9190614a28565b9150600a85613c1d9190615b0b565b6030613c299190614a5c565b60f81b818381518110613c3f57613c3e614a90565b5b60200101907effffffffffffffffffffffffffffffffffffffffffffffffffffffffffffff1916908160001a905350600a85613c7b9190615ada565b9450613bf9565b8093505050505b919050565b6000808273ffffffffffffffffffffffffffffffffffffffff163b119050919050565b6040518060c0016040528060008152602001600073ffffffffffffffffffffffffffffffffffffffff168152602001600073ffffffffffffffffffffffffffffffffffffffff168152602001600081526020016000151581526020016000151581525090565b6000604051905090565b600080fd5b600080fd5b60007fffffffff0000000000000000000000000000000000000000000000000000000082169050919050565b613d6081613d2b565b8114613d6b57600080fd5b50565b600081359050613d7d81613d57565b92915050565b600060208284031215613d9957613d98613d21565b5b6000613da784828501613d6e565b91505092915050565b60008115159050919050565b613dc581613db0565b82525050565b6000602082019050613de06000830184613dbc565b92915050565b600081519050919050565b600082825260208201905092915050565b60005b83811015613e20578082015181840152602081019050613e05565b60008484015250505050565b6000601f19601f8301169050919050565b6000613e4882613de6565b613e528185613df1565b9350613e62818560208601613e02565b613e6b81613e2c565b840191505092915050565b60006020820190508181036000830152613e908184613e3d565b905092915050565b6000819050919050565b613eab81613e98565b8114613eb657600080fd5b50565b600081359050613ec881613ea2565b92915050565b600060208284031215613ee457613ee3613d21565b5b6000613ef284828501613eb9565b91505092915050565b600073ffffffffffffffffffffffffffffffffffffffff82169050919050565b6000613f2682613efb565b9050919050565b613f3681613f1b565b82525050565b6000602082019050613f516000830184613f2d565b92915050565b613f6081613f1b565b8114613f6b57600080fd5b50565b600081359050613f7d81613f57565b92915050565b60008060408385031215613f9a57613f99613d21565b5b6000613fa885828601613f6e565b9250506020613fb985828601613eb9565b9150509250929050565b600060208284031215613fd957613fd8613d21565b5b6000613fe784828501613f6e565b91505092915050565b600081519050919050565b600082825260208201905092915050565b6000819050602082019050919050565b61402581613e98565b82525050565b6000614037838361401c565b60208301905092915050565b6000602082019050919050565b600061405b82613ff0565b6140658185613ffb565b93506140708361400c565b8060005b838110156140a1578151614088888261402b565b975061409383614043565b925050600181019050614074565b5085935050505092915050565b600060208201905081810360008301526140c88184614050565b905092915050565b600081519050919050565b600082825260208201905092915050565b6000819050602082019050919050565b600061410782613efb565b9050919050565b614117816140fc565b82525050565b61412681613db0565b82525050565b60c082016000820151614142600085018261401c565b506020820151614155602085018261410e565b506040820151614168604085018261410e565b50606082015161417b606085018261401c565b50608082015161418e608085018261411d565b5060a08201516141a160a085018261411d565b50505050565b60006141b3838361412c565b60c08301905092915050565b6000602082019050919050565b60006141d7826140d0565b6141e181856140db565b93506141ec836140ec565b8060005b8381101561421d57815161420488826141a7565b975061420f836141bf565b9250506001810190506141f0565b5085935050505092915050565b6000602082019050818103600083015261424481846141cc565b905092915050565b61425581613e98565b82525050565b6000602082019050614270600083018461424c565b92915050565b60008060006060848603121561428f5761428e613d21565b5b600061429d86828701613f6e565b93505060206142ae86828701613f6e565b92505060406142bf86828701613eb9565b9150509250925092565b600080fd5b600080fd5b7f4e487b7100000000000000000000000000000000000000000000000000000000600052604160045260246000fd5b61430b82613e2c565b810181811067ffffffffffffffff8211171561432a576143296142d3565b5b80604052505050565b600061433d613d17565b90506143498282614302565b919050565b600067ffffffffffffffff821115614369576143686142d3565b5b61437282613e2c565b9050602081019050919050565b82818337600083830152505050565b60006143a161439c8461434e565b614333565b9050828152602081018484840111156143bd576143bc6142ce565b5b6143c884828561437f565b509392505050565b600082601f8301126143e5576143e46142c9565b5b81356143f584826020860161438e565b91505092915050565b6000806000806080858703121561441857614417613d21565b5b600061442687828801613f6e565b945050602085013567ffffffffffffffff81111561444757614446613d26565b5b614453878288016143d0565b935050604061446487828801613eb9565b925050606061447587828801613eb9565b91505092959194509250565b6000806040838503121561449857614497613d21565b5b60006144a685828601613eb9565b92505060206144b785828601613eb9565b9150509250929050565b6000610100820190506144d7600083018b613f2d565b6144e4602083018a613f2d565b6144f1604083018961424c565b81810360608301526145038188613e3d565b9050614512608083018761424c565b61451f60a0830186613dbc565b61452c60c0830185613dbc565b81810360e083015261453e8184613e3d565b90509998505050505050505050565b600061010082019050614563600083018b613f2d565b614570602083018a613f2d565b61457d604083018961424c565b61458a606083018861424c565b818103608083015261459c8187613e3d565b90506145ab60a0830186613dbc565b6145b860c0830185613dbc565b81810360e08301526145ca8184613e3d565b90509998505050505050505050565b600080604083850312156145f0576145ef613d21565b5b600083013567ffffffffffffffff81111561460e5761460d613d26565b5b61461a858286016143d0565b925050602061462b85828601613eb9565b9150509250929050565b61463e81613db0565b811461464957600080fd5b50565b60008135905061465b81614635565b92915050565b6000806040838503121561467857614677613d21565b5b600061468685828601613f6e565b92505060206146978582860161464c565b9150509250929050565b600067ffffffffffffffff8211156146bc576146bb6142d3565b5b6146c582613e2c565b9050602081019050919050565b60006146e56146e0846146a1565b614333565b905082815260208101848484011115614701576147006142ce565b5b61470c84828561437f565b509392505050565b600082601f830112614729576147286142c9565b5b81356147398482602086016146d2565b91505092915050565b6000806000806080858703121561475c5761475b613d21565b5b600061476a87828801613f6e565b945050602061477b87828801613f6e565b935050604061478c87828801613eb9565b925050606085013567ffffffffffffffff8111156147ad576147ac613d26565b5b6147b987828801614714565b91505092959194509250565b6147ce816140fc565b82525050565b600060c0820190506147e9600083018961424c565b6147f660208301886147c5565b61480360408301876147c5565b614810606083018661424c565b61481d6080830185613dbc565b61482a60a0830184613dbc565b979650505050505050565b6000806040838503121561484c5761484b613d21565b5b600061485a85828601613f6e565b925050602061486b85828601613f6e565b9150509250929050565b7f4e487b7100000000000000000000000000000000000000000000000000000000600052602260045260246000fd5b600060028204905060018216806148bc57607f821691505b6020821081036148cf576148ce614875565b5b50919050565b7f4552433732313a20617070726f76616c20746f2063757272656e74206f776e6560008201527f7200000000000000000000000000000000000000000000000000000000000000602082015250565b6000614931602183613df1565b915061493c826148d5565b604082019050919050565b6000602082019050818103600083015261496081614924565b9050919050565b7f4552433732313a20617070726f76652063616c6c6572206973206e6f7420746f60008201527f6b656e206f776e6572206e6f7220617070726f76656420666f7220616c6c0000602082015250565b60006149c3603e83613df1565b91506149ce82614967565b604082019050919050565b600060208201905081810360008301526149f2816149b6565b9050919050565b7f4e487b7100000000000000000000000000000000000000000000000000000000600052601160045260246000fd5b6000614a3382613e98565b9150614a3e83613e98565b9250828203905081811115614a5657614a556149f9565b5b92915050565b6000614a6782613e98565b9150614a7283613e98565b9250828201905080821115614a8a57614a896149f9565b5b92915050565b7f4e487b7100000000000000000000000000000000000000000000000000000000600052603260045260246000fd5b6000614aca82613e98565b91507fffffffffffffffffffffffffffffffffffffffffffffffffffffffffffffffff8203614afc57614afb6149f9565b5b600182019050919050565b7f4552433732313a2063616c6c6572206973206e6f7420746f6b656e206f776e6560008201527f72206e6f7220617070726f766564000000000000000000000000000000000000602082015250565b6000614b63602e83613df1565b9150614b6e82614b07565b604082019050919050565b60006020820190508181036000830152614b9281614b56565b9050919050565b60008190508160005260206000209050919050565b60006020601f8301049050919050565b600082821b905092915050565b600060088302614bfb7fffffffffffffffffffffffffffffffffffffffffffffffffffffffffffffffff82614bbe565b614c058683614bbe565b95508019841693508086168417925050509392505050565b6000819050919050565b6000614c42614c3d614c3884613e98565b614c1d565b613e98565b9050919050565b6000819050919050565b614c5c83614c27565b614c70614c6882614c49565b848454614bcb565b825550505050565b600090565b614c85614c78565b614c90818484614c53565b505050565b5b81811015614cb457614ca9600082614c7d565b600181019050614c96565b5050565b601f821115614cf957614cca81614b99565b614cd384614bae565b81016020851015614ce2578190505b614cf6614cee85614bae565b830182614c95565b50505b505050565b600082821c905092915050565b6000614d1c60001984600802614cfe565b1980831691505092915050565b6000614d358383614d0b565b9150826002028217905092915050565b614d4e82613de6565b67ffffffffffffffff811115614d6757614d666142d3565b5b614d7182546148a4565b614d7c828285614cb8565b600060209050601f831160018114614daf5760008415614d9d578287015190505b614da78582614d29565b865550614e0f565b601f198416614dbd86614b99565b60005b82811015614de557848901518255600182019150602085019450602081019050614dc0565b86831015614e025784890151614dfe601f891682614d0b565b8355505b6001600288020188555050505b505050505050565b6000606082019050614e2c600083018661424c565b8181036020830152614e3e8185613e3d565b9050614e4d604083018461424c565b949350505050565b7f636f6e7472616374496420646f6573206e6f7420657869737400000000000000600082015250565b6000614e8b601983613df1565b9150614e9682614e55565b602082019050919050565b60006020820190508181036000830152614eba81614e7e565b9050919050565b7f726566756e6461626c653a206e6f742073656e64657200000000000000000000600082015250565b6000614ef7601683613df1565b9150614f0282614ec1565b602082019050919050565b60006020820190508181036000830152614f2681614eea565b9050919050565b7f726566756e6461626c653a20616c726561647920726566756e64656400000000600082015250565b6000614f63601c83613df1565b9150614f6e82614f2d565b602082019050919050565b60006020820190508181036000830152614f9281614f56565b9050919050565b7f726566756e6461626c653a20616c72656164792077697468647261776e000000600082015250565b6000614fcf601d83613df1565b9150614fda82614f99565b602082019050919050565b60006020820190508181036000830152614ffe81614fc2565b9050919050565b7f4552433732313a20696e76616c696420746f6b656e2049440000000000000000600082015250565b600061503b601883613df1565b915061504682615005565b602082019050919050565b6000602082019050818103600083015261506a8161502e565b9050919050565b7f4552433732313a2061646472657373207a65726f206973206e6f74206120766160008201527f6c6964206f776e65720000000000000000000000000000000000000000000000602082015250565b60006150cd602983613df1565b91506150d882615071565b604082019050919050565b600060208201905081810360008301526150fc816150c0565b9050919050565b7f4f6e6c79206974656d206f776e65722063616e20706572666f726d207468697360008201527f206f7065726174696f6e00000000000000000000000000000000000000000000602082015250565b600061515f602a83613df1565b915061516a82615103565b604082019050919050565b6000602082019050818103600083015261518e81615152565b9050919050565b7f5072696365206d75737420626520657175616c20746f206c697374696e67207060008201527f7269636500000000000000000000000000000000000000000000000000000000602082015250565b60006151f1602483613df1565b91506151fc82615195565b604082019050919050565b60006020820190508181036000830152615220816151e4565b9050919050565b7f6f6e6c79206f776e6572206f6620746865206d61726b6574706c61636520636160008201527f6e206368616e676520746865206c697374696e67207072696365000000000000602082015250565b6000615283603a83613df1565b915061528e82615227565b604082019050919050565b600060208201905081810360008301526152b281615276565b9050919050565b7f4f6e6c79206d61726b6574706c616365206f776e65722063616e20757064617460008201527f65206c697374696e672070726963652e00000000000000000000000000000000602082015250565b6000615315603083613df1565b9150615320826152b9565b604082019050919050565b6000602082019050818103600083015261534481615308565b9050919050565b7f506c65617365207375626d6974207468652061736b696e67207072696365206960008201527f6e206f7264657220746f20636f6d706c65746520746865207075726368617365602082015250565b60006153a7604083613df1565b91506153b28261534b565b604082019050919050565b600060208201905081810360008301526153d68161539a565b9050919050565b600081905092915050565b60006153f382613de6565b6153fd81856153dd565b935061540d818560208601613e02565b80840191505092915050565b600061542582856153e8565b915061543182846153e8565b91508190509392505050565b7f796f7520617265206e6f7420746865204f776e6572206f66207468697320636f60008201527f6f6c65637469626c650000000000000000000000000000000000000000000000602082015250565b6000615499602983613df1565b91506154a48261543d565b604082019050919050565b600060208201905081810360008301526154c88161548c565b9050919050565b7f4552433732313a207472616e736665722066726f6d20696e636f72726563742060008201527f6f776e6572000000000000000000000000000000000000000000000000000000602082015250565b600061552b602583613df1565b9150615536826154cf565b604082019050919050565b6000602082019050818103600083015261555a8161551e565b9050919050565b7f4552433732313a207472616e7366657220746f20746865207a65726f2061646460008201527f7265737300000000000000000000000000000000000000000000000000000000602082015250565b60006155bd602483613df1565b91506155c882615561565b604082019050919050565b600060208201905081810360008301526155ec816155b0565b9050919050565b7f4552433732313a206d696e7420746f20746865207a65726f2061646472657373600082015250565b6000615629602083613df1565b9150615634826155f3565b602082019050919050565b600060208201905081810360008301526156588161561c565b9050919050565b7f4552433732313a20746f6b656e20616c7265616479206d696e74656400000000600082015250565b6000615695601c83613df1565b91506156a08261565f565b602082019050919050565b600060208201905081810360008301526156c481615688565b9050919050565b7f45524337323155524953746f726167653a2055524920736574206f66206e6f6e60008201527f6578697374656e7420746f6b656e000000000000000000000000000000000000602082015250565b6000615727602e83613df1565b9150615732826156cb565b604082019050919050565b600060208201905081810360008301526157568161571a565b9050919050565b7f5072696365206d757374206265206174206c6561737420312077656900000000600082015250565b6000615793601c83613df1565b915061579e8261575d565b602082019050919050565b600060208201905081810360008301526157c281615786565b9050919050565b600060a0820190506157de6000830188613f2d565b6157eb6020830187613f2d565b6157f8604083018661424c565b6158056060830185613dbc565b6158126080830184613dbc565b9695505050505050565b7f4552433732313a20617070726f766520746f2063616c6c657200000000000000600082015250565b6000615852601983613df1565b915061585d8261581c565b602082019050919050565b6000602082019050818103600083015261588181615845565b9050919050565b7f436f756e7465723a2064656372656d656e74206f766572666c6f770000000000600082015250565b60006158be601b83613df1565b91506158c982615888565b602082019050919050565b600060208201905081810360008301526158ed816158b1565b9050919050565b7f4552433732313a207472616e7366657220746f206e6f6e20455243373231526560008201527f63656976657220696d706c656d656e7465720000000000000000000000000000602082015250565b6000615950603283613df1565b915061595b826158f4565b604082019050919050565b6000602082019050818103600083015261597f81615943565b9050919050565b60008151905061599581613f57565b92915050565b6000602082840312156159b1576159b0613d21565b5b60006159bf84828501615986565b91505092915050565b600081519050919050565b600082825260208201905092915050565b60006159ef826159c8565b6159f981856159d3565b9350615a09818560208601613e02565b615a1281613e2c565b840191505092915050565b6000608082019050615a326000830187613f2d565b615a3f6020830186613f2d565b615a4c604083018561424c565b8181036060830152615a5e81846159e4565b905095945050505050565b600081519050615a7881613d57565b92915050565b600060208284031215615a9457615a93613d21565b5b6000615aa284828501615a69565b91505092915050565b7f4e487b7100000000000000000000000000000000000000000000000000000000600052601260045260246000fd5b6000615ae582613e98565b9150615af083613e98565b925082615b0057615aff615aab565b5b828204905092915050565b6000615b1682613e98565b9150615b2183613e98565b925082615b3157615b30615aab565b5b82820690509291505056fea26469706673582212203969725db760e797cc2c4991bfdce402bd3e752f8689901044bb03f534a8db8a64736f6c63430008110033",
  "linkReferences": {},
  "deployedLinkReferences": {}
}